{
  "_format": "hh-sol-artifact-1",
  "contractName": "UniswapV2Pair",
  "sourceName": "contracts/UniswapV2Pair.sol",
  "abi": [
    {
      "inputs": [],
      "stateMutability": "payable",
      "type": "constructor"
    },
    {
      "anonymous": false,
      "inputs": [
        {
          "indexed": true,
          "internalType": "address",
          "name": "owner",
          "type": "address"
        },
        {
          "indexed": true,
          "internalType": "address",
          "name": "spender",
          "type": "address"
        },
        {
          "indexed": false,
          "internalType": "uint256",
          "name": "value",
          "type": "uint256"
        }
      ],
      "name": "Approval",
      "type": "event"
    },
    {
      "anonymous": false,
      "inputs": [
        {
          "indexed": true,
          "internalType": "address",
          "name": "sender",
          "type": "address"
        },
        {
          "indexed": false,
          "internalType": "uint256",
          "name": "amount0",
          "type": "uint256"
        },
        {
          "indexed": false,
          "internalType": "uint256",
          "name": "amount1",
          "type": "uint256"
        },
        {
          "indexed": true,
          "internalType": "address",
          "name": "to",
          "type": "address"
        }
      ],
      "name": "Burn",
      "type": "event"
    },
    {
      "anonymous": false,
      "inputs": [
        {
          "indexed": true,
          "internalType": "address",
          "name": "sender",
          "type": "address"
        },
        {
          "indexed": false,
          "internalType": "uint256",
          "name": "amount0",
          "type": "uint256"
        },
        {
          "indexed": false,
          "internalType": "uint256",
          "name": "amount1",
          "type": "uint256"
        }
      ],
      "name": "Mint",
      "type": "event"
    },
    {
      "anonymous": false,
      "inputs": [
        {
          "indexed": true,
          "internalType": "address",
          "name": "sender",
          "type": "address"
        },
        {
          "indexed": false,
          "internalType": "uint256",
          "name": "amount0In",
          "type": "uint256"
        },
        {
          "indexed": false,
          "internalType": "uint256",
          "name": "amount1In",
          "type": "uint256"
        },
        {
          "indexed": false,
          "internalType": "uint256",
          "name": "amount0Out",
          "type": "uint256"
        },
        {
          "indexed": false,
          "internalType": "uint256",
          "name": "amount1Out",
          "type": "uint256"
        },
        {
          "indexed": true,
          "internalType": "address",
          "name": "to",
          "type": "address"
        }
      ],
      "name": "Swap",
      "type": "event"
    },
    {
      "anonymous": false,
      "inputs": [
        {
          "indexed": false,
          "internalType": "uint256",
          "name": "reserve0",
          "type": "uint256"
        },
        {
          "indexed": false,
          "internalType": "uint256",
          "name": "reserve1",
          "type": "uint256"
        }
      ],
      "name": "Sync",
      "type": "event"
    },
    {
      "anonymous": false,
      "inputs": [
        {
          "indexed": true,
          "internalType": "address",
          "name": "from",
          "type": "address"
        },
        {
          "indexed": true,
          "internalType": "address",
          "name": "to",
          "type": "address"
        },
        {
          "indexed": false,
          "internalType": "uint256",
          "name": "value",
          "type": "uint256"
        }
      ],
      "name": "Transfer",
      "type": "event"
    },
    {
      "inputs": [],
      "name": "DOMAIN_SEPARATOR",
      "outputs": [
        {
          "internalType": "bytes32",
          "name": "",
          "type": "bytes32"
        }
      ],
      "stateMutability": "view",
      "type": "function"
    },
    {
      "inputs": [],
      "name": "MINIMUM_LIQUIDITY",
      "outputs": [
        {
          "internalType": "uint256",
          "name": "",
          "type": "uint256"
        }
      ],
      "stateMutability": "view",
      "type": "function"
    },
    {
      "inputs": [],
      "name": "PERMIT_TYPEHASH",
      "outputs": [
        {
          "internalType": "bytes32",
          "name": "",
          "type": "bytes32"
        }
      ],
      "stateMutability": "view",
      "type": "function"
    },
    {
      "inputs": [
        {
          "internalType": "address",
          "name": "",
          "type": "address"
        },
        {
          "internalType": "address",
          "name": "",
          "type": "address"
        }
      ],
      "name": "allowance",
      "outputs": [
        {
          "internalType": "uint256",
          "name": "",
          "type": "uint256"
        }
      ],
      "stateMutability": "view",
      "type": "function"
    },
    {
      "inputs": [
        {
          "internalType": "address",
          "name": "spender",
          "type": "address"
        },
        {
          "internalType": "uint256",
          "name": "value",
          "type": "uint256"
        }
      ],
      "name": "approve",
      "outputs": [
        {
          "internalType": "bool",
          "name": "",
          "type": "bool"
        }
      ],
      "stateMutability": "payable",
      "type": "function"
    },
    {
      "inputs": [
        {
          "internalType": "address",
          "name": "",
          "type": "address"
        }
      ],
      "name": "balanceOf",
      "outputs": [
        {
          "internalType": "uint256",
          "name": "",
          "type": "uint256"
        }
      ],
      "stateMutability": "view",
      "type": "function"
    },
    {
      "inputs": [],
      "name": "balanceToken0",
      "outputs": [
        {
          "internalType": "uint256",
          "name": "",
          "type": "uint256"
        }
      ],
      "stateMutability": "view",
      "type": "function"
    },
    {
      "inputs": [],
      "name": "balanceToken1",
      "outputs": [
        {
          "internalType": "uint256",
          "name": "",
          "type": "uint256"
        }
      ],
      "stateMutability": "view",
      "type": "function"
    },
    {
      "inputs": [
        {
          "internalType": "address",
          "name": "to",
          "type": "address"
        }
      ],
      "name": "burn",
      "outputs": [
        {
          "internalType": "uint256",
          "name": "amount0",
          "type": "uint256"
        },
        {
          "internalType": "uint256",
          "name": "amount1",
          "type": "uint256"
        }
      ],
      "stateMutability": "payable",
      "type": "function"
    },
    {
      "inputs": [],
      "name": "decimals",
      "outputs": [
        {
          "internalType": "uint8",
          "name": "",
          "type": "uint8"
        }
      ],
      "stateMutability": "view",
      "type": "function"
    },
    {
      "inputs": [],
      "name": "factory",
      "outputs": [
        {
          "internalType": "address",
          "name": "",
          "type": "address"
        }
      ],
      "stateMutability": "view",
      "type": "function"
    },
    {
      "inputs": [],
      "name": "getReserves",
      "outputs": [
        {
          "internalType": "uint256",
          "name": "_reserve0",
          "type": "uint256"
        },
        {
          "internalType": "uint256",
          "name": "_reserve1",
          "type": "uint256"
        }
      ],
      "stateMutability": "view",
      "type": "function"
    },
    {
      "inputs": [
        {
          "internalType": "address",
          "name": "_token0",
          "type": "address"
        },
        {
          "internalType": "address",
          "name": "_token1",
          "type": "address"
        }
      ],
      "name": "initialize",
      "outputs": [],
      "stateMutability": "payable",
      "type": "function"
    },
    {
      "inputs": [],
      "name": "kLast",
      "outputs": [
        {
          "internalType": "uint256",
          "name": "",
          "type": "uint256"
        }
      ],
      "stateMutability": "view",
      "type": "function"
    },
    {
      "inputs": [],
      "name": "lpToken",
      "outputs": [
        {
          "internalType": "address",
          "name": "",
          "type": "address"
        }
      ],
      "stateMutability": "view",
      "type": "function"
    },
    {
      "inputs": [
        {
          "internalType": "address",
          "name": "to",
          "type": "address"
        }
      ],
      "name": "mint",
      "outputs": [
        {
          "internalType": "uint256",
          "name": "liquidity",
          "type": "uint256"
        }
      ],
      "stateMutability": "payable",
      "type": "function"
    },
    {
      "inputs": [],
      "name": "name",
      "outputs": [
        {
          "internalType": "string",
          "name": "",
          "type": "string"
        }
      ],
      "stateMutability": "view",
      "type": "function"
    },
    {
      "inputs": [
        {
          "internalType": "address",
          "name": "",
          "type": "address"
        }
      ],
      "name": "nonces",
      "outputs": [
        {
          "internalType": "uint256",
          "name": "",
          "type": "uint256"
        }
      ],
      "stateMutability": "view",
      "type": "function"
    },
    {
      "inputs": [
        {
          "internalType": "address",
          "name": "owner",
          "type": "address"
        },
        {
          "internalType": "address",
          "name": "spender",
          "type": "address"
        },
        {
          "internalType": "uint256",
          "name": "value",
          "type": "uint256"
        },
        {
          "internalType": "uint256",
          "name": "deadline",
          "type": "uint256"
        },
        {
          "internalType": "uint8",
          "name": "v",
          "type": "uint8"
        },
        {
          "internalType": "bytes32",
          "name": "r",
          "type": "bytes32"
        },
        {
          "internalType": "bytes32",
          "name": "s",
          "type": "bytes32"
        }
      ],
      "name": "permit",
      "outputs": [],
      "stateMutability": "payable",
      "type": "function"
    },
    {
      "inputs": [],
      "name": "price0CumulativeLast",
      "outputs": [
        {
          "internalType": "uint256",
          "name": "",
          "type": "uint256"
        }
      ],
      "stateMutability": "view",
      "type": "function"
    },
    {
      "inputs": [],
      "name": "price1CumulativeLast",
      "outputs": [
        {
          "internalType": "uint256",
          "name": "",
          "type": "uint256"
        }
      ],
      "stateMutability": "view",
      "type": "function"
    },
    {
      "inputs": [
        {
          "internalType": "address",
          "name": "_tokenLib",
          "type": "address"
        }
      ],
      "name": "setTokenLib",
      "outputs": [],
      "stateMutability": "payable",
      "type": "function"
    },
    {
      "inputs": [
        {
          "internalType": "address",
          "name": "to",
          "type": "address"
        }
      ],
      "name": "skim",
      "outputs": [],
      "stateMutability": "payable",
      "type": "function"
    },
    {
      "inputs": [
        {
          "internalType": "uint256",
          "name": "amount0Out",
          "type": "uint256"
        },
        {
          "internalType": "uint256",
          "name": "amount1Out",
          "type": "uint256"
        },
        {
          "internalType": "address",
          "name": "to",
          "type": "address"
        },
        {
          "internalType": "bytes",
          "name": "data",
          "type": "bytes"
        }
      ],
      "name": "swap",
      "outputs": [],
      "stateMutability": "payable",
      "type": "function"
    },
    {
      "inputs": [],
      "name": "symbol",
      "outputs": [
        {
          "internalType": "string",
          "name": "",
          "type": "string"
        }
      ],
      "stateMutability": "view",
      "type": "function"
    },
    {
      "inputs": [],
      "name": "sync",
      "outputs": [],
      "stateMutability": "payable",
      "type": "function"
    },
    {
      "inputs": [],
      "name": "token0",
      "outputs": [
        {
          "internalType": "address",
          "name": "",
          "type": "address"
        }
      ],
      "stateMutability": "view",
      "type": "function"
    },
    {
      "inputs": [],
      "name": "token1",
      "outputs": [
        {
          "internalType": "address",
          "name": "",
          "type": "address"
        }
      ],
      "stateMutability": "view",
      "type": "function"
    },
    {
      "inputs": [],
      "name": "tokenLib",
      "outputs": [
        {
          "internalType": "address",
          "name": "",
          "type": "address"
        }
      ],
      "stateMutability": "view",
      "type": "function"
    },
    {
      "inputs": [],
      "name": "totalSupply",
      "outputs": [
        {
          "internalType": "uint256",
          "name": "",
          "type": "uint256"
        }
      ],
      "stateMutability": "view",
      "type": "function"
    },
    {
      "inputs": [
        {
          "internalType": "address",
          "name": "to",
          "type": "address"
        },
        {
          "internalType": "uint256",
          "name": "value",
          "type": "uint256"
        }
      ],
      "name": "transfer",
      "outputs": [
        {
          "internalType": "bool",
          "name": "",
          "type": "bool"
        }
      ],
      "stateMutability": "payable",
      "type": "function"
    },
    {
      "inputs": [
        {
          "internalType": "address",
          "name": "from",
          "type": "address"
        },
        {
          "internalType": "address",
          "name": "to",
          "type": "address"
        },
        {
          "internalType": "uint256",
          "name": "value",
          "type": "uint256"
        }
      ],
      "name": "transferFrom",
      "outputs": [
        {
          "internalType": "bool",
          "name": "",
          "type": "bool"
        }
      ],
      "stateMutability": "payable",
      "type": "function"
    },
    {
      "stateMutability": "payable",
      "type": "receive"
    }
  ],
  "bytecode": "0x60016010819055600a608052692ab734b9bbb0b8102b1960b11b60a090815260c091909152603160f81b60e0527f8b73c3c69bb8fe3d512ecc4cf759cc79239f7b179b0ffacaa9a75d522b39400f6101209081527fbfcc8ef98ffbf7b6c3fec7bf5185b566b9863e35a9d83acd49ad6824b5969738610140527fc89efdaa54c0f20c7adf612882df0950f5a951637e0307cdcb4c672f298b8bc6610160526000610180819052306101a0526101008390526101c0604052919020600355600780546001600160a01b031916331790556120ba9081906100de90396000f3fe6080604052600436106101e75760003560e01c806370a0823111610102578063ba9a7a5611610095578063d505accf11610064578063d505accf146105cc578063dd62ed3e146105df578063f81fb78514610617578063fff6cae91461062d57600080fd5b8063ba9a7a5614610563578063bc25cf7714610579578063c45a01551461058c578063d21220a7146105ac57600080fd5b806395d89b41116100d157806395d89b41146104d45780639702cd8e1461051d578063a87cfc1214610530578063a9059cbb1461055057600080fd5b806370a08231146104515780637464fc3d1461047e5780637ecebe001461049457806389afcb44146104c157600080fd5b8063313ce5671161017a5780635909c0d5116101495780635909c0d5146103f25780635a3d5493146104085780635fcbd2851461041e5780636a6278421461043e57600080fd5b8063313ce567146103565780633644e5151461037d578063485cc9551461039357806354429aa9146103dc57600080fd5b80630dfe1681116101b65780630dfe1681146102b357806318160ddd146102eb57806323b872dd1461030f57806330adf81f1461032257600080fd5b8063022c0d9f146101f357806306fdde03146102085780630902f1ac14610267578063095ea7b31461029057600080fd5b366101ee57005b600080fd5b610206610201366004611ad9565b610635565b005b34801561021457600080fd5b506102516040518060400160405280600a81526020017f556e69737761702056320000000000000000000000000000000000000000000081525081565b60405161025e9190611bbf565b60405180910390f35b34801561027357600080fd5b50600a54600b545b6040805192835260208301919091520161025e565b6102a361029e366004611bd2565b610cc0565b604051901515815260200161025e565b3480156102bf57600080fd5b506008546102d3906001600160a01b031681565b6040516001600160a01b03909116815260200161025e565b3480156102f757600080fd5b5061030160005481565b60405190815260200161025e565b6102a361031d366004611bfe565b610cd7565b34801561032e57600080fd5b506103017f6e71edae12b1b97f4d1f60370fef10105fa2faae0126114a169c64845d6126c981565b34801561036257600080fd5b5061036b601281565b60405160ff909116815260200161025e565b34801561038957600080fd5b5061030160035481565b6102066103a1366004611c3f565b600880546001600160a01b0393841673ffffffffffffffffffffffffffffffffffffffff199182161790915560098054929093169116179055565b3480156103e857600080fd5b5061030160115481565b3480156103fe57600080fd5b50610301600d5481565b34801561041457600080fd5b50610301600e5481565b34801561042a57600080fd5b506006546102d3906001600160a01b031681565b61030161044c366004611c78565b610d68565b34801561045d57600080fd5b5061030161046c366004611c78565b60016020526000908152604090205481565b34801561048a57600080fd5b50610301600f5481565b3480156104a057600080fd5b506103016104af366004611c78565b60046020526000908152604090205481565b61027b6104cf366004611c78565b611139565b3480156104e057600080fd5b506102516040518060400160405280600681526020017f554e492d5632000000000000000000000000000000000000000000000000000081525081565b61020661052b366004611c78565b61119a565b34801561053c57600080fd5b506005546102d3906001600160a01b031681565b6102a361055e366004611bd2565b6113b7565b34801561056f57600080fd5b506103016103e881565b610206610587366004611c78565b6113c4565b34801561059857600080fd5b506007546102d3906001600160a01b031681565b3480156105b857600080fd5b506009546102d3906001600160a01b031681565b6102066105da366004611ca4565b61141e565b3480156105eb57600080fd5b506103016105fa366004611c3f565b600260209081526000928352604080842090915290825290205481565b34801561062357600080fd5b5061030160125481565b610206611658565b60105460011461068c5760405162461bcd60e51b815260206004820152601160248201527f556e697377617056323a204c4f434b454400000000000000000000000000000060448201526064015b60405180910390fd5b60006010558415158061069f5750600084115b6107115760405162461bcd60e51b815260206004820152602560248201527f556e697377617056323a20494e53554646494349454e545f4f55545055545f4160448201527f4d4f554e540000000000000000000000000000000000000000000000000000006064820152608401610683565b600080610721600a54600b549091565b91509150818710801561073357508086105b6107a55760405162461bcd60e51b815260206004820152602160248201527f556e697377617056323a20494e53554646494349454e545f4c4951554944495460448201527f59000000000000000000000000000000000000000000000000000000000000006064820152608401610683565b600554600854604051633de222bb60e21b81526001600160a01b0391821660048201523060248201526000928392169063f7888aec906044016020604051808303816000875af11580156107fd573d6000803e3d6000fd5b505050506040513d601f19601f820116820180604052508101906108219190611d15565b600554600954604051633de222bb60e21b81526001600160a01b039182166004820152306024820152929450169063f7888aec906044016020604051808303816000875af1158015610877573d6000803e3d6000fd5b505050506040513d601f19601f8201168201806040525081019061089b9190611d15565b601183905560128190556008546009549192506001600160a01b0390811691811690891682148015906108e05750806001600160a01b0316896001600160a01b031614155b61092c5760405162461bcd60e51b815260206004820152601560248201527f556e697377617056323a20494e56414c49445f544f00000000000000000000006044820152606401610683565b8a1561093d5761093d828a8d6116b1565b891561094e5761094e818a8c6116b1565b86156109d4576040517f10d1e85c0000000000000000000000000000000000000000000000000000000081526001600160a01b038a16906310d1e85c906109a19033908f908f908e908e90600401611d2e565b600060405180830381600087803b1580156109bb57600080fd5b505af11580156109cf573d6000803e3d6000fd5b505050505b600554604051633de222bb60e21b81526001600160a01b0384811660048301523060248301529091169063f7888aec906044016020604051808303816000875af1158015610a26573d6000803e3d6000fd5b505050506040513d601f19601f82011682018060405250810190610a4a9190611d15565b600554604051633de222bb60e21b81526001600160a01b03848116600483015230602483015292965091169063f7888aec906044016020604051808303816000875af1158015610a9e573d6000803e3d6000fd5b505050506040513d601f19601f82011682018060405250810190610ac29190611d15565b9250505060008985610ad49190611d91565b8311610ae1576000610af5565b610aeb8a86611d91565b610af59084611d91565b90506000610b038a86611d91565b8311610b10576000610b24565b610b1a8a86611d91565b610b249084611d91565b90506000821180610b355750600081115b610ba65760405162461bcd60e51b8152602060048201526024808201527f556e697377617056323a20494e53554646494349454e545f494e5055545f414d60448201527f4f554e54000000000000000000000000000000000000000000000000000000006064820152608401610683565b6000610bc8610bb684600361173d565b610bc2876103e861173d565b906117ad565b90506000610bda610bb684600361173d565b9050610bf3620f4240610bed8a8a61173d565b9061173d565b610bfd838361173d565b1015610c4b5760405162461bcd60e51b815260206004820152600c60248201527f556e697377617056323a204b00000000000000000000000000000000000000006044820152606401610683565b5050610c598484888861180b565b60408051838152602081018390529081018c9052606081018b90526001600160a01b038a169033907fd78ad95fa46c994b6551d0da85fc275fe613ce37657fb8d5e3d130840159d8229060800160405180910390a350506001601055505050505050505050565b6000610ccd3384846118d3565b5060015b92915050565b6001600160a01b038316600090815260026020908152604080832033845290915281205415610d53576001600160a01b0384166000908152600260209081526040808320338452909152902054610d2e90836117ad565b6001600160a01b03851660009081526002602090815260408083203384529091529020555b610d5e848484611935565b5060019392505050565b6000601054600114610dbc5760405162461bcd60e51b815260206004820152601160248201527f556e697377617056323a204c4f434b45440000000000000000000000000000006044820152606401610683565b6000601081905580610dd1600a54600b549091565b600554600854604051633de222bb60e21b81526001600160a01b03918216600482015230602482015293955091935060009291169063f7888aec906044016020604051808303816000875af1158015610e2e573d6000803e3d6000fd5b505050506040513d601f19601f82011682018060405250810190610e529190611d15565b600554600954604051633de222bb60e21b81526001600160a01b03918216600482015230602482015292935060009291169063f7888aec906044016020604051808303816000875af1158015610eac573d6000803e3d6000fd5b505050506040513d601f19601f82011682018060405250810190610ed09190611d15565b90506000610ede83866117ad565b90506000610eec83866117ad565b60008054919250819003610fa257610f126103e8610bc2610f0d868661173d565b6119db565b6005546006546040517fc6c3bbe60000000000000000000000000000000000000000000000000000000081526001600160a01b039182166004820152600060248201526103e86044820152929a50169063c6c3bbe690606401600060405180830381600087803b158015610f8557600080fd5b505af1158015610f99573d6000803e3d6000fd5b50505050610fd7565b610fd487610fb0858461173d565b610fba9190611dba565b87610fc5858561173d565b610fcf9190611dba565b611a4b565b97505b6000881161104d5760405162461bcd60e51b815260206004820152602860248201527f556e697377617056323a20494e53554646494349454e545f4c4951554944495460448201527f595f4d494e5445440000000000000000000000000000000000000000000000006064820152608401610683565b601185905560128490556005546006546040517fc6c3bbe60000000000000000000000000000000000000000000000000000000081526001600160a01b0391821660048201528b82166024820152604481018b905291169063c6c3bbe690606401600060405180830381600087803b1580156110c857600080fd5b505af11580156110dc573d6000803e3d6000fd5b505050506110ec8585898961180b565b604080518481526020810184905233917f4c209b5fc8ad50758f13e2e1088ba56a560dff690a1c6fef26394f4c03821c4f910160405180910390a250506001601055509395945050505050565b60008060105460011461118e5760405162461bcd60e51b815260206004820152601160248201527f556e697377617056323a204c4f434b45440000000000000000000000000000006044820152606401610683565b60016010559092909150565b6005805473ffffffffffffffffffffffffffffffffffffffff19166001600160a01b038381169182179092556008546040517f59770438000000000000000000000000000000000000000000000000000000008152921660048301526000916359770438906024016000604051808303816000875af1158015611221573d6000803e3d6000fd5b505050506040513d6000823e601f3d908101601f191682016040526112499190810190611e6c565b50506005546009546040517f597704380000000000000000000000000000000000000000000000000000000081526001600160a01b03918216600482015294955060009491169250635977043891506024016000604051808303816000875af11580156112ba573d6000803e3d6000fd5b505050506040513d6000823e601f3d908101601f191682016040526112e29190810190611e6c565b50506005546040519394506001600160a01b0316926302c9d484925061130f915085908590602001611f02565b60405160208183030381529060405260126000306040518563ffffffff1660e01b81526004016113429493929190611f5a565b6020604051808303816000875af1158015611361573d6000803e3d6000fd5b505050506040513d601f19601f820116820180604052508101906113859190611fcd565b6006805473ffffffffffffffffffffffffffffffffffffffff19166001600160a01b0392909216919091179055505050565b6000610ccd338484611935565b6010546001146114165760405162461bcd60e51b815260206004820152601160248201527f556e697377617056323a204c4f434b45440000000000000000000000000000006044820152606401610683565b506001601055565b4284101561146e5760405162461bcd60e51b815260206004820152601260248201527f556e697377617056323a204558504952454400000000000000000000000000006044820152606401610683565b6003546001600160a01b038816600090815260046020526040812080549192917f6e71edae12b1b97f4d1f60370fef10105fa2faae0126114a169c64845d6126c9918b918b918b9190876114c183611fea565b909155506040805160208101969096526001600160a01b0394851690860152929091166060840152608083015260a082015260c0810187905260e001604051602081830303815290604052805190602001206040516020016115559291907f190100000000000000000000000000000000000000000000000000000000000081526002810192909252602282015260420190565b60408051601f198184030181528282528051602091820120600080855291840180845281905260ff88169284019290925260608301869052608083018590529092509060019060a0016020604051602081039080840390855afa1580156115c0573d6000803e3d6000fd5b5050604051601f1901519150506001600160a01b038116158015906115f65750886001600160a01b0316816001600160a01b0316145b6116425760405162461bcd60e51b815260206004820152601c60248201527f556e697377617056323a20494e56414c49445f5349474e4154555245000000006044820152606401610683565b61164d8989896118d3565b505050505050505050565b6010546001146116aa5760405162461bcd60e51b815260206004820152601160248201527f556e697377617056323a204c4f434b45440000000000000000000000000000006044820152606401610683565b6001601055565b6005546040517fbeabacc80000000000000000000000000000000000000000000000000000000081526001600160a01b0385811660048301528481166024830152604482018490529091169063beabacc890606401600060405180830381600087803b15801561172057600080fd5b505af1158015611734573d6000803e3d6000fd5b50505050505050565b6000811580611761575082826117538183612022565b925061175f9083611dba565b145b610cd15760405162461bcd60e51b815260206004820152601460248201527f64732d6d6174682d6d756c2d6f766572666c6f770000000000000000000000006044820152606401610683565b6000826117ba8382611d91565b9150811115610cd15760405162461bcd60e51b815260206004820152601560248201527f64732d6d6174682d7375622d756e646572666c6f7700000000000000000000006044820152606401610683565b600061181c64010000000042612039565b600c549091506000906118359063ffffffff168361204d565b905060008163ffffffff1611801561184c57508315155b801561185757508215155b50600a869055600b859055600c80547fffffffffffffffffffffffffffffffffffffffffffffffffffffffff000000001663ffffffff841617905560408051878152602081018790527fcf2aa50876cdfbb541206f89af0ee78d44a2abf8d328e37fa4917f982149848a910160405180910390a1505050505050565b6001600160a01b0383811660008181526002602090815260408083209487168084529482529182902085905590518481527f8c5be1e5ebec7d5bd14f71427d1e84f3dd0314c0f7b2291e5b200ac8c7c3b92591015b60405180910390a3505050565b6001600160a01b03831660009081526001602052604090205461195890826117ad565b6001600160a01b0380851660009081526001602052604080822093909355908416815220546119879082611a63565b6001600160a01b0380841660008181526001602052604090819020939093559151908516907fddf252ad1be2c89b69c2b068fc378daa952ba7f163c4a11628f55a4df523b3ef906119289085815260200190565b60006003821115611a3c57508060006119f5600283611dba565b611a00906001612071565b90505b81811015611a3657905080600281611a1b8186611dba565b611a259190612071565b611a2f9190611dba565b9050611a03565b50919050565b8115611a46575060015b919050565b6000818310611a5a5781611a5c565b825b9392505050565b600082611a708382612071565b9150811015610cd15760405162461bcd60e51b815260206004820152601460248201527f64732d6d6174682d6164642d6f766572666c6f770000000000000000000000006044820152606401610683565b6001600160a01b0381168114611ad657600080fd5b50565b600080600080600060808688031215611af157600080fd5b85359450602086013593506040860135611b0a81611ac1565b9250606086013567ffffffffffffffff80821115611b2757600080fd5b818801915088601f830112611b3b57600080fd5b813581811115611b4a57600080fd5b896020828501011115611b5c57600080fd5b9699959850939650602001949392505050565b60005b83811015611b8a578181015183820152602001611b72565b50506000910152565b60008151808452611bab816020860160208601611b6f565b601f01601f19169290920160200192915050565b602081526000611a5c6020830184611b93565b60008060408385031215611be557600080fd5b8235611bf081611ac1565b946020939093013593505050565b600080600060608486031215611c1357600080fd5b8335611c1e81611ac1565b92506020840135611c2e81611ac1565b929592945050506040919091013590565b60008060408385031215611c5257600080fd5b8235611c5d81611ac1565b91506020830135611c6d81611ac1565b809150509250929050565b600060208284031215611c8a57600080fd5b8135611a5c81611ac1565b60ff81168114611ad657600080fd5b600080600080600080600060e0888a031215611cbf57600080fd5b8735611cca81611ac1565b96506020880135611cda81611ac1565b955060408801359450606088013593506080880135611cf881611c95565b9699959850939692959460a0840135945060c09093013592915050565b600060208284031215611d2757600080fd5b5051919050565b6001600160a01b038616815284602082015283604082015260806060820152816080820152818360a0830137600081830160a090810191909152601f909201601f19160101949350505050565b634e487b7160e01b600052601160045260246000fd5b81810381811115610cd157610cd1611d7b565b634e487b7160e01b600052601260045260246000fd5b600082611dc957611dc9611da4565b500490565b634e487b7160e01b600052604160045260246000fd5b600082601f830112611df557600080fd5b815167ffffffffffffffff80821115611e1057611e10611dce565b604051601f8301601f19908116603f01168101908282118183101715611e3857611e38611dce565b81604052838152866020858801011115611e5157600080fd5b611e62846020830160208901611b6f565b9695505050505050565b600080600080600060a08688031215611e8457600080fd5b855167ffffffffffffffff80821115611e9c57600080fd5b611ea889838a01611de4565b96506020880151915080821115611ebe57600080fd5b50611ecb88828901611de4565b9450506040860151611edc81611c95565b606087015160808801519194509250611ef481611ac1565b809150509295509295909350565b60008351611f14818460208801611b6f565b7f2d000000000000000000000000000000000000000000000000000000000000009083019081528351611f4e816001840160208801611b6f565b01600101949350505050565b60a081526000611f6d60a0830187611b93565b8281036020840152600281527f4c5000000000000000000000000000000000000000000000000000000000000060208201526040810191505060ff851660408301528360608301526001600160a01b038316608083015295945050505050565b600060208284031215611fdf57600080fd5b8151611a5c81611ac1565b60007fffffffffffffffffffffffffffffffffffffffffffffffffffffffffffffffff820361201b5761201b611d7b565b5060010190565b8082028115828204841417610cd157610cd1611d7b565b60008261204857612048611da4565b500690565b63ffffffff82811682821603908082111561206a5761206a611d7b565b5092915050565b80820180821115610cd157610cd1611d7b56fea26469706673582212206a240203c6e39ca2de29a23098c45ea50a9929a40245244160792e6843e197bd64736f6c63430008140033",
  "linkReferences": {},
  "deployedLinkReferences": {}
}