{
  "_format": "hh-sol-artifact-1",
  "contractName": "TokenLibrary",
  "sourceName": "contracts/libraries/TokenLibrary.sol",
  "abi": [
    {
      "inputs": [],
      "stateMutability": "payable",
      "type": "constructor"
    },
    {
      "anonymous": false,
      "inputs": [
        {
          "indexed": false,
          "internalType": "address",
          "name": "adr",
          "type": "address"
        },
        {
          "indexed": false,
          "internalType": "string",
          "name": "_name",
          "type": "string"
        },
        {
          "indexed": false,
          "internalType": "string",
          "name": "_symbol",
          "type": "string"
        },
        {
          "indexed": false,
          "internalType": "uint8",
          "name": "_decimals",
          "type": "uint8"
        },
        {
          "indexed": false,
          "internalType": "uint256",
          "name": "_totalSupply",
          "type": "uint256"
        },
        {
          "indexed": false,
          "internalType": "address",
          "name": "_minter",
          "type": "address"
        }
      ],
      "name": "TokenCreated",
      "type": "event"
    },
    {
      "anonymous": false,
      "inputs": [
        {
          "indexed": false,
          "internalType": "address",
          "name": "from",
          "type": "address"
        },
        {
          "indexed": false,
          "internalType": "address",
          "name": "to",
          "type": "address"
        },
        {
          "indexed": false,
          "internalType": "uint256",
          "name": "amount",
          "type": "uint256"
        }
      ],
      "name": "Transfer",
      "type": "event"
    },
    {
      "inputs": [
        {
          "internalType": "address",
          "name": "_token",
          "type": "address"
        },
        {
          "internalType": "address",
          "name": "_spender",
          "type": "address"
        },
        {
          "internalType": "uint256",
          "name": "_amount",
          "type": "uint256"
        }
      ],
      "name": "approve",
      "outputs": [],
      "stateMutability": "payable",
      "type": "function"
    },
    {
      "inputs": [
        {
          "internalType": "address",
          "name": "_token",
          "type": "address"
        },
        {
          "internalType": "address",
          "name": "_adr",
          "type": "address"
        }
      ],
      "name": "balanceOf",
      "outputs": [
        {
          "internalType": "uint256",
          "name": "",
          "type": "uint256"
        }
      ],
      "stateMutability": "payable",
      "type": "function"
    },
    {
      "inputs": [
        {
          "internalType": "address",
          "name": "_token",
          "type": "address"
        },
        {
          "internalType": "uint256",
          "name": "_amount",
          "type": "uint256"
        }
      ],
      "name": "burn",
      "outputs": [],
      "stateMutability": "payable",
      "type": "function"
    },
    {
      "inputs": [
        {
          "internalType": "address",
          "name": "_token",
          "type": "address"
        },
        {
          "internalType": "address",
          "name": "_adr",
          "type": "address"
        }
      ],
      "name": "getBalance",
      "outputs": [
        {
          "internalType": "uint256",
          "name": "",
          "type": "uint256"
        }
      ],
      "stateMutability": "view",
      "type": "function"
    },
    {
      "inputs": [
        {
          "internalType": "address",
          "name": "_token",
          "type": "address"
        }
      ],
      "name": "getToken",
      "outputs": [
        {
          "internalType": "string",
          "name": "name",
          "type": "string"
        },
        {
          "internalType": "string",
          "name": "symbol",
          "type": "string"
        },
        {
          "internalType": "uint8",
          "name": "decimals",
          "type": "uint8"
        },
        {
          "internalType": "uint256",
          "name": "totalSupply",
          "type": "uint256"
        },
        {
          "internalType": "address",
          "name": "minter",
          "type": "address"
        }
      ],
      "stateMutability": "payable",
      "type": "function"
    },
    {
      "inputs": [
        {
          "internalType": "address",
          "name": "_token",
          "type": "address"
        },
        {
          "internalType": "address",
          "name": "_to",
          "type": "address"
        },
        {
          "internalType": "uint256",
          "name": "_amount",
          "type": "uint256"
        }
      ],
      "name": "mint",
      "outputs": [],
      "stateMutability": "payable",
      "type": "function"
    },
    {
      "inputs": [
        {
          "internalType": "string",
          "name": "_name",
          "type": "string"
        },
        {
          "internalType": "string",
          "name": "_symbol",
          "type": "string"
        },
        {
          "internalType": "uint8",
          "name": "_decimals",
          "type": "uint8"
        },
        {
          "internalType": "uint256",
          "name": "_totalSupply",
          "type": "uint256"
        },
        {
          "internalType": "address",
          "name": "_minter",
          "type": "address"
        }
      ],
      "name": "newToken",
      "outputs": [
        {
          "internalType": "address",
          "name": "",
          "type": "address"
        }
      ],
      "stateMutability": "payable",
      "type": "function"
    },
    {
      "inputs": [
        {
          "internalType": "address",
          "name": "",
          "type": "address"
        }
      ],
      "name": "tokens",
      "outputs": [
        {
          "internalType": "string",
          "name": "name",
          "type": "string"
        },
        {
          "internalType": "string",
          "name": "symbol",
          "type": "string"
        },
        {
          "internalType": "uint8",
          "name": "decimals",
          "type": "uint8"
        },
        {
          "internalType": "uint256",
          "name": "totalSupply",
          "type": "uint256"
        },
        {
          "internalType": "address",
          "name": "minter",
          "type": "address"
        }
      ],
      "stateMutability": "view",
      "type": "function"
    },
    {
      "inputs": [
        {
          "internalType": "address",
          "name": "_token",
          "type": "address"
        },
        {
          "internalType": "address",
          "name": "_to",
          "type": "address"
        },
        {
          "internalType": "uint256",
          "name": "_amount",
          "type": "uint256"
        }
      ],
      "name": "transfer",
      "outputs": [],
      "stateMutability": "payable",
      "type": "function"
    },
    {
      "inputs": [
        {
          "internalType": "address",
          "name": "_token",
          "type": "address"
        },
        {
          "internalType": "address",
          "name": "_from",
          "type": "address"
        },
        {
          "internalType": "address",
          "name": "_to",
          "type": "address"
        },
        {
          "internalType": "uint256",
          "name": "_amount",
          "type": "uint256"
        }
      ],
      "name": "transferFrom",
      "outputs": [],
      "stateMutability": "payable",
      "type": "function"
    }
  ],
  "bytecode": "0x60806040526110dd806100136000396000f3fe6080604052600436106100b15760003560e01c8063c6c3bbe611610069578063e1f21c671161004e578063e1f21c6714610186578063e486033914610199578063f7888aec146101b957600080fd5b8063c6c3bbe614610145578063d4fac45d1461015857600080fd5b8063597704381161009a57806359770438146100fb5780639dc29fac1461011f578063beabacc81461013257600080fd5b806302c9d484146100b657806315dacbea146100e6575b600080fd5b6100c96100c4366004610c5f565b6101c7565b6040516001600160a01b0390911681526020015b60405180910390f35b6100f96100f4366004610cf6565b6103a7565b005b61010e610109366004610d41565b610436565b6040516100dd959493929190610db3565b6100f961012d366004610e02565b6105ee565b6100f9610140366004610e2c565b61070a565b6100f9610153366004610e2c565b61071b565b34801561016457600080fd5b50610178610173366004610e68565b610792565b6040519081526020016100dd565b6100f9610194366004610e2c565b6107bd565b3480156101a557600080fd5b5061010e6101b4366004610d41565b610862565b610178610173366004610e68565b60008086866040516020016101dd929190610e9b565b60408051601f1981840301815291815281516020928301206001600160a01b038116600090815260029093529120600301549091508190156102665760405162461bcd60e51b815260206004820152601460248201527f746f6b656e20616c72656164792065786973747300000000000000000000000060448201526064015b60405180910390fd5b6040805160a08101825289815260208082018a905260ff891682840152606082018890526001600160a01b03808816608084015284166000908152600290915291909120815181906102b89082610f52565b50602082015160018201906102cd9082610f52565b5060408201516002820180547fffffffffffffffffffffffffffffffffffffffffffffffffffffffffffffff001660ff90921691909117905560608201516003820155608090910151600490910180547fffffffffffffffffffffffff0000000000000000000000000000000000000000166001600160a01b0390921691909117905561035b8185876109af565b7f96277b960035611e3efe74cc6f4dc654567ad6dfe7e479ece4303ecd0321ec1281898989898960405161039496959493929190611012565b60405180910390a1979650505050505050565b6001600160a01b0380851660009081526001602090815260408083209387168352928152828220338352905220548111156104245760405162461bcd60e51b815260206004820181905260248201527f546f6b656e4c69623a20696e73756666696369656e7420616c6c6f77616e6365604482015260640161025d565b61043084848484610a68565b50505050565b60608060008060008060026000886001600160a01b03166001600160a01b031681526020019081526020016000206040518060a001604052908160008201805461047f90610eca565b80601f01602080910402602001604051908101604052809291908181526020018280546104ab90610eca565b80156104f85780601f106104cd576101008083540402835291602001916104f8565b820191906000526020600020905b8154815290600101906020018083116104db57829003601f168201915b5050505050815260200160018201805461051190610eca565b80601f016020809104026020016040519081016040528092919081815260200182805461053d90610eca565b801561058a5780601f1061055f5761010080835404028352916020019161058a565b820191906000526020600020905b81548152906001019060200180831161056d57829003601f168201915b5050509183525050600282015460ff1660208083019190915260038301546040808401919091526004909301546001600160a01b03166060928301528351908401519284015191840151608090940151909b929a5090985091965090945092505050565b6001600160a01b03821660009081526020818152604080832033845290915290205481111561065f5760405162461bcd60e51b815260206004820181905260248201527f546f6b656e4c6962726172793a206e6f7420656e6f7567682062616c616e6365604482015260640161025d565b6001600160a01b03821660009081526020818152604080832033845290915281208054839290610690908490611081565b90915550506001600160a01b038216600090815260026020526040812060030180548392906106c0908490611081565b909155505060408051338152600060208201529081018290527fddf252ad1be2c89b69c2b068fc378daa952ba7f163c4a11628f55a4df523b3ef9060600160405180910390a15050565b61071683338484610a68565b505050565b6001600160a01b038381166000908152600260205260409020600401541633146107875760405162461bcd60e51b815260206004820152601460248201527f546f6b656e4c69623a206e6f74206d696e746572000000000000000000000000604482015260640161025d565b6107168383836109af565b6001600160a01b03808316600090815260208181526040808320938516835292905220545b92915050565b6001600160a01b03831660009081526020818152604080832033845290915290205481111561082e5760405162461bcd60e51b815260206004820152601a60248201527f546f6b656e4c69623a20616d6f756e74203e2062616c616e6365000000000000604482015260640161025d565b6001600160a01b03928316600090815260016020908152604080832033845282528083209490951682529290925291902055565b60026020526000908152604090208054819061087d90610eca565b80601f01602080910402602001604051908101604052809291908181526020018280546108a990610eca565b80156108f65780601f106108cb576101008083540402835291602001916108f6565b820191906000526020600020905b8154815290600101906020018083116108d957829003601f168201915b50505050509080600101805461090b90610eca565b80601f016020809104026020016040519081016040528092919081815260200182805461093790610eca565b80156109845780601f1061095957610100808354040283529160200191610984565b820191906000526020600020905b81548152906001019060200180831161096757829003601f168201915b5050505060028301546003840154600490940154929360ff909116929091506001600160a01b031685565b6001600160a01b03808416600090815260208181526040808320938616835292905290812080548392906109e4908490611094565b90915550506001600160a01b03831660009081526002602052604081206003018054839290610a14908490611094565b909155505060408051600081526001600160a01b03841660208201529081018290527fddf252ad1be2c89b69c2b068fc378daa952ba7f163c4a11628f55a4df523b3ef9060600160405180910390a1505050565b6001600160a01b0380851660009081526020818152604080832093871683529290522054811115610adb5760405162461bcd60e51b815260206004820152601e60248201527f546f6b656e4c69623a20696e73756666696369656e742062616c616e63650000604482015260640161025d565b6001600160a01b0380851660009081526020818152604080832093871683529290529081208054839290610b10908490611081565b90915550506001600160a01b0380851660009081526020818152604080832093861683529290529081208054839290610b4a908490611094565b9091555050604080516001600160a01b038086168252841660208201529081018290527fddf252ad1be2c89b69c2b068fc378daa952ba7f163c4a11628f55a4df523b3ef9060600160405180910390a150505050565b634e487b7160e01b600052604160045260246000fd5b600082601f830112610bc757600080fd5b813567ffffffffffffffff80821115610be257610be2610ba0565b604051601f8301601f19908116603f01168101908282118183101715610c0a57610c0a610ba0565b81604052838152866020858801011115610c2357600080fd5b836020870160208301376000602085830101528094505050505092915050565b80356001600160a01b0381168114610c5a57600080fd5b919050565b600080600080600060a08688031215610c7757600080fd5b853567ffffffffffffffff80821115610c8f57600080fd5b610c9b89838a01610bb6565b96506020880135915080821115610cb157600080fd5b50610cbe88828901610bb6565b945050604086013560ff81168114610cd557600080fd5b925060608601359150610cea60808701610c43565b90509295509295909350565b60008060008060808587031215610d0c57600080fd5b610d1585610c43565b9350610d2360208601610c43565b9250610d3160408601610c43565b9396929550929360600135925050565b600060208284031215610d5357600080fd5b610d5c82610c43565b9392505050565b60005b83811015610d7e578181015183820152602001610d66565b50506000910152565b60008151808452610d9f816020860160208601610d63565b601f01601f19169290920160200192915050565b60a081526000610dc660a0830188610d87565b8281036020840152610dd88188610d87565b60ff969096166040840152505060608101929092526001600160a01b031660809091015292915050565b60008060408385031215610e1557600080fd5b610e1e83610c43565b946020939093013593505050565b600080600060608486031215610e4157600080fd5b610e4a84610c43565b9250610e5860208501610c43565b9150604084013590509250925092565b60008060408385031215610e7b57600080fd5b610e8483610c43565b9150610e9260208401610c43565b90509250929050565b60008351610ead818460208801610d63565b835190830190610ec1818360208801610d63565b01949350505050565b600181811c90821680610ede57607f821691505b602082108103610efe57634e487b7160e01b600052602260045260246000fd5b50919050565b601f82111561071657600081815260208120601f850160051c81016020861015610f2b5750805b601f850160051c820191505b81811015610f4a57828155600101610f37565b505050505050565b815167ffffffffffffffff811115610f6c57610f6c610ba0565b610f8081610f7a8454610eca565b84610f04565b602080601f831160018114610fb55760008415610f9d5750858301515b600019600386901b1c1916600185901b178555610f4a565b600085815260208120601f198616915b82811015610fe457888601518255948401946001909101908401610fc5565b50858210156110025787850151600019600388901b60f8161c191681555b5050505050600190811b01905550565b60006001600160a01b03808916835260c0602084015261103560c0840189610d87565b83810360408501526110478189610d87565b60ff97909716606085015250608083019490945250911660a0909101529392505050565b634e487b7160e01b600052601160045260246000fd5b818103818111156107b7576107b761106b565b808201808211156107b7576107b761106b56fea2646970667358221220280748c650a21e8816330dab3f9fe4976bf784c521efa1bd27540cf65052f35d64736f6c63430008140033",
  "linkReferences": {},
  "deployedLinkReferences": {}
}