{
  "_format": "hh-sol-artifact-1",
  "contractName": "UniswapV2Factory",
  "sourceName": "contracts/UniswapV2Factory.sol",
  "abi": [
    {
      "inputs": [
        {
          "internalType": "address",
          "name": "_feeToSetter",
          "type": "address"
        }
      ],
      "payable": false,
      "stateMutability": "nonpayable",
      "type": "constructor"
    },
    {
      "anonymous": false,
      "inputs": [
        {
          "indexed": true,
          "internalType": "address",
          "name": "token0",
          "type": "address"
        },
        {
          "indexed": true,
          "internalType": "address",
          "name": "token1",
          "type": "address"
        },
        {
          "indexed": false,
          "internalType": "address",
          "name": "pair",
          "type": "address"
        },
        {
          "indexed": false,
          "internalType": "uint256",
          "name": "",
          "type": "uint256"
        }
      ],
      "name": "PairCreated",
      "type": "event"
    },
    {
      "constant": true,
      "inputs": [
        {
          "internalType": "uint256",
          "name": "",
          "type": "uint256"
        }
      ],
      "name": "allPairs",
      "outputs": [
        {
          "internalType": "address",
          "name": "",
          "type": "address"
        }
      ],
      "payable": false,
      "stateMutability": "view",
      "type": "function"
    },
    {
      "constant": true,
      "inputs": [],
      "name": "allPairsLength",
      "outputs": [
        {
          "internalType": "uint256",
          "name": "",
          "type": "uint256"
        }
      ],
      "payable": false,
      "stateMutability": "view",
      "type": "function"
    },
    {
      "constant": false,
      "inputs": [
        {
          "internalType": "address",
          "name": "tokenA",
          "type": "address"
        },
        {
          "internalType": "address",
          "name": "tokenB",
          "type": "address"
        }
      ],
      "name": "createPair",
      "outputs": [
        {
          "internalType": "address",
          "name": "pair",
          "type": "address"
        }
      ],
      "payable": false,
      "stateMutability": "nonpayable",
      "type": "function"
    },
    {
      "constant": true,
      "inputs": [],
      "name": "feeTo",
      "outputs": [
        {
          "internalType": "address",
          "name": "",
          "type": "address"
        }
      ],
      "payable": false,
      "stateMutability": "view",
      "type": "function"
    },
    {
      "constant": true,
      "inputs": [],
      "name": "feeToSetter",
      "outputs": [
        {
          "internalType": "address",
          "name": "",
          "type": "address"
        }
      ],
      "payable": false,
      "stateMutability": "view",
      "type": "function"
    },
    {
      "constant": true,
      "inputs": [
        {
          "internalType": "address",
          "name": "",
          "type": "address"
        },
        {
          "internalType": "address",
          "name": "",
          "type": "address"
        }
      ],
      "name": "getPair",
      "outputs": [
        {
          "internalType": "address",
          "name": "",
          "type": "address"
        }
      ],
      "payable": false,
      "stateMutability": "view",
      "type": "function"
    },
    {
      "constant": false,
      "inputs": [
        {
          "internalType": "address",
          "name": "_feeTo",
          "type": "address"
        }
      ],
      "name": "setFeeTo",
      "outputs": [],
      "payable": false,
      "stateMutability": "nonpayable",
      "type": "function"
    },
    {
      "constant": false,
      "inputs": [
        {
          "internalType": "address",
          "name": "_feeToSetter",
          "type": "address"
        }
      ],
      "name": "setFeeToSetter",
      "outputs": [],
      "payable": false,
      "stateMutability": "nonpayable",
      "type": "function"
    },
    {
      "constant": true,
      "inputs": [],
      "name": "tokenLib",
      "outputs": [
        {
          "internalType": "address",
          "name": "",
          "type": "address"
        }
      ],
      "payable": false,
      "stateMutability": "view",
      "type": "function"
    }
  ],
  "bytecode": "0x608060405234801561001057600080fd5b506040516136f93803806136f98339818101604052602081101561003357600080fd5b5051600180546001600160a01b0319166001600160a01b03909216919091179055613696806100636000396000f3fe608060405234801561001057600080fd5b50600436106100a35760003560e01c8063a2e74af611610076578063c9c653961161005b578063c9c653961461013b578063e6a4390514610169578063f46901ed14610197576100a3565b8063a2e74af61461010b578063a87cfc1214610133576100a3565b8063017e7e58146100a8578063094b7415146100cc5780631e3dd18b146100d4578063574f2ba3146100f1575b600080fd5b6100b06101bd565b604080516001600160a01b039092168252519081900360200190f35b6100b06101cc565b6100b0600480360360208110156100ea57600080fd5b50356101db565b6100f9610202565b60408051918252519081900360200190f35b6101316004803603602081101561012157600080fd5b50356001600160a01b0316610208565b005b6100b0610296565b6100b06004803603604081101561015157600080fd5b506001600160a01b03813581169160200135166102a5565b6100b06004803603604081101561017f57600080fd5b506001600160a01b0381358116916020013516610603565b610131600480360360208110156101ad57600080fd5b50356001600160a01b0316610629565b6000546001600160a01b031681565b6001546001600160a01b031681565b600481815481106101e857fe5b6000918252602090912001546001600160a01b0316905081565b60045490565b6001546001600160a01b03163314610267576040805162461bcd60e51b815260206004820152601460248201527f556e697377617056323a20464f5242494444454e000000000000000000000000604482015290519081900360640190fd5b6001805473ffffffffffffffffffffffffffffffffffffffff19166001600160a01b0392909216919091179055565b6002546001600160a01b031681565b6000816001600160a01b0316836001600160a01b0316141561030e576040805162461bcd60e51b815260206004820152601f60248201527f556e697377617056323a204944454e544943414c285f41444452455353455300604482015290519081900360640190fd5b600080836001600160a01b0316856001600160a01b031610610331578385610334565b84845b90925090506001600160a01b038216610394576040805162461bcd60e51b815260206004820152601760248201527f556e697377617056323a205a45524f5f41444452455353000000000000000000604482015290519081900360640190fd5b6001600160a01b0382811660009081526003602090815260408083208585168452909152902054161561040e576040805162461bcd60e51b815260206004820152601660248201527f556e697377617056323a20504149525f45584953545300000000000000000000604482015290519081900360640190fd5b606060405180602001610420906106b7565b6020820181038252601f19601f8201166040525090506000838360405160200180836001600160a01b03166001600160a01b031660601b8152601401826001600160a01b03166001600160a01b031660601b815260140192505050604051602081830303815290604052805190602001209050808251602084016000f5604080517f485cc9550000000000000000000000000000000000000000000000000000000081526001600160a01b038781166004830152868116602483015291519297509087169163485cc9559160448082019260009290919082900301818387803b15801561050c57600080fd5b505af1158015610520573d6000803e3d6000fd5b505050506001600160a01b0384811660008181526003602081815260408084208987168086529083528185208054978d1673ffffffffffffffffffffffffffffffffffffffff1998891681179091559383528185208686528352818520805488168517905560048054600181018255958190527f8a35acfbc15ff81a39ae7d344fd709f28e8600b4aa8c65c6b64bfe7fe36bd19b90950180549097168417909655925483519283529082015281517f0d3648bd0f6ba80134a33ba9275ac585d9d315f0ad8355cddefde31afa28d0e9929181900390910190a35050505092915050565b60036020908152600092835260408084209091529082529020546001600160a01b031681565b6001546001600160a01b03163314610688576040805162461bcd60e51b815260206004820152601460248201527f556e697377617056323a20464f5242494444454e000000000000000000000000604482015290519081900360640190fd5b6000805473ffffffffffffffffffffffffffffffffffffffff19166001600160a01b0392909216919091179055565b612f9d806106c58339019056fe6080604052600580546001600160a01b031916735fbdb2315678afecb367f032d93f642f64180aa31790556001600e5534801561003b57600080fd5b506040514690806052612f4b8239604080519182900360520182208282018252600a8352692ab734b9bbb0b8102b1960b11b6020938401528151808301835260018152603160f81b908401528151808401919091527fbfcc8ef98ffbf7b6c3fec7bf5185b566b9863e35a9d83acd49ad6824b5969738818301527fc89efdaa54c0f20c7adf612882df0950f5a951637e0307cdcb4c672f298b8bc6606082015260808101949094523060a0808601919091528151808603909101815260c09094019052825192019190912060035550600780546001600160a01b03191633179055612e208061012b6000396000f3fe608060405234801561001057600080fd5b50600436106101cf5760003560e01c80636a62784211610104578063a9059cbb116100a2578063d21220a711610071578063d21220a71461056a578063d505accf14610572578063dd62ed3e146105c3578063fff6cae9146105f1576101cf565b8063a9059cbb14610508578063ba9a7a5614610534578063bc25cf771461053c578063c45a015514610562576101cf565b80637ecebe00116100de5780637ecebe001461049357806389afcb44146104b957806395d89b41146104f8578063a87cfc1214610500576101cf565b80636a6278421461043f57806370a08231146104655780637464fc3d1461048b576101cf565b806330adf81f11610171578063485cc9551161014b578063485cc955146103f95780635909c0d5146104275780635a3d54931461042f5780635fcbd28514610437576101cf565b806330adf81f146103cb578063313ce567146103d35780633644e515146103f1576101cf565b8063095ea7b3116101ad578063095ea7b3146103175780630dfe16811461035757806318160ddd1461037b57806323b872dd14610395576101cf565b8063022c0d9f146101d457806306fdde03146102625780630902f1ac146102df575b600080fd5b610260600480360360808110156101ea57600080fd5b8135916020810135916001600160a01b03604083013516919081019060808101606082013564010000000081111561022157600080fd5b82018360208201111561023357600080fd5b8035906020019184600183028401116401000000008311171561025557600080fd5b5090925090506105f9565b005b61026a610c76565b6040805160208082528351818301528351919283929083019185019080838360005b838110156102a457818101518382015260200161028c565b50505050905090810190601f1680156102d15780820380516001836020036101000a031916815260200191505b509250505060405180910390f35b6102e7610caf565b604080516001600160701b03948516815292909316602083015263ffffffff168183015290519081900360600190f35b6103436004803603604081101561032d57600080fd5b506001600160a01b038135169060200135610cd9565b604080519115158252519081900360200190f35b61035f610cf0565b604080516001600160a01b039092168252519081900360200190f35b610383610cff565b60408051918252519081900360200190f35b610343600480360360608110156103ab57600080fd5b506001600160a01b03813581169160208101359091169060400135610d05565b610383610dbd565b6103db610de1565b6040805160ff9092168252519081900360200190f35b610383610de6565b6102606004803603604081101561040f57600080fd5b506001600160a01b0381358116916020013516610dec565b6103836114bb565b6103836114c1565b61035f6114c7565b6103836004803603602081101561045557600080fd5b50356001600160a01b03166114d6565b6103836004803603602081101561047b57600080fd5b50356001600160a01b03166118d1565b6103836118e3565b610383600480360360208110156104a957600080fd5b50356001600160a01b03166118e9565b6104df600480360360208110156104cf57600080fd5b50356001600160a01b03166118fb565b6040805192835260208301919091528051918290030190f35b61026a611fcb565b61035f612004565b6103436004803603604081101561051e57600080fd5b506001600160a01b038135169060200135612013565b610383612020565b6102606004803603602081101561055257600080fd5b50356001600160a01b0316612026565b61035f6121b6565b61035f6121c5565b610260600480360360e081101561058857600080fd5b506001600160a01b03813581169160208101359091169060408101359060608101359060ff6080820135169060a08101359060c001356121d4565b610383600480360360408110156105d957600080fd5b506001600160a01b03813581169160200135166123fc565b610260612419565b600e54600114610650576040805162461bcd60e51b815260206004820152601160248201527f556e697377617056323a204c4f434b4544000000000000000000000000000000604482015290519081900360640190fd5b6000600e55841515806106635750600084115b61069e5760405162461bcd60e51b8152600401808060200182810382526025815260200180612d326025913960400191505060405180910390fd5b6000806106a9610caf565b5091509150816001600160701b0316871080156106ce5750806001600160701b031686105b6107095760405162461bcd60e51b8152600401808060200182810382526021815260200180612d7b6021913960400191505060405180910390fd5b60055460085460408051633de222bb60e21b81526001600160a01b03928316600482015230602482015290516000938493169163f7888aec916044808301926020929190829003018186803b15801561076157600080fd5b505afa158015610775573d6000803e3d6000fd5b505050506040513d602081101561078b57600080fd5b505160055460095460408051633de222bb60e21b81526001600160a01b039283166004820152306024820152905193955091169163f7888aec91604480820192602092909190829003018186803b1580156107e557600080fd5b505afa1580156107f9573d6000803e3d6000fd5b505050506040513d602081101561080f57600080fd5b50516008546009549192506001600160a01b03908116918116908916821480159061084c5750806001600160a01b0316896001600160a01b031614155b61089d576040805162461bcd60e51b815260206004820152601560248201527f556e697377617056323a20494e56414c49445f544f0000000000000000000000604482015290519081900360640190fd5b8a156108ae576108ae828a8d6125a1565b89156108bf576108bf818a8c6125a1565b861561097a57886001600160a01b03166310d1e85c338d8d8c8c6040518663ffffffff1660e01b815260040180866001600160a01b03166001600160a01b03168152602001858152602001848152602001806020018281038252848482818152602001925080828437600081840152601f19601f8201169050808301925050509650505050505050600060405180830381600087803b15801561096157600080fd5b505af1158015610975573d6000803e3d6000fd5b505050505b60055460408051633de222bb60e21b81526001600160a01b0385811660048301523060248301529151919092169163f7888aec916044808301926020929190829003018186803b1580156109cd57600080fd5b505afa1580156109e1573d6000803e3d6000fd5b505050506040513d60208110156109f757600080fd5b505160055460408051633de222bb60e21b81526001600160a01b038581166004830152306024830152915193975091169163f7888aec91604480820192602092909190829003018186803b158015610a4e57600080fd5b505afa158015610a62573d6000803e3d6000fd5b505050506040513d6020811015610a7857600080fd5b5051925060009150506001600160701b0385168a90038311610a9b576000610aaa565b89856001600160701b03160383035b9050600089856001600160701b0316038311610ac7576000610ad6565b89856001600160701b03160383035b90506000821180610ae75750600081115b610b225760405162461bcd60e51b8152600401808060200182810382526024815260200180612d576024913960400191505060405180910390fd5b6000610b56610b3884600363ffffffff61263416565b610b4a876103e863ffffffff61263416565b9063ffffffff6126a016565b90506000610b6e610b3884600363ffffffff61263416565b9050610b9f620f4240610b936001600160701b038b8116908b1663ffffffff61263416565b9063ffffffff61263416565b610baf838363ffffffff61263416565b1015610c02576040805162461bcd60e51b815260206004820152600c60248201527f556e697377617056323a204b0000000000000000000000000000000000000000604482015290519081900360640190fd5b5050610c10848488886126f8565b60408051838152602081018390528082018d9052606081018c905290516001600160a01b038b169133917fd78ad95fa46c994b6551d0da85fc275fe613ce37657fb8d5e3d130840159d8229181900360800190a350506001600e55505050505050505050565b6040518060400160405280600a81526020017f556e69737761702056320000000000000000000000000000000000000000000081525081565b600a546001600160701b0380821692600160701b830490911691600160e01b900463ffffffff1690565b6000610ce633848461293a565b5060015b92915050565b6008546001600160a01b031681565b60005481565b6001600160a01b03831660009081526002602090815260408083203384529091528120547fffffffffffffffffffffffffffffffffffffffffffffffffffffffffffffffff14610da8576001600160a01b0384166000908152600260209081526040808320338452909152902054610d83908363ffffffff6126a016565b6001600160a01b03851660009081526002602090815260408083203384529091529020555b610db384848461299c565b5060019392505050565b7f6e71edae12b1b97f4d1f60370fef10105fa2faae0126114a169c64845d6126c981565b601281565b60035481565b6007546001600160a01b03163314610e4b576040805162461bcd60e51b815260206004820152601460248201527f556e697377617056323a20464f5242494444454e000000000000000000000000604482015290519081900360640190fd5b600880547fffffffffffffffffffffffff00000000000000000000000000000000000000009081166001600160a01b0385811691821790935560098054909216848416179091556005546040805163e486033960e01b8152600481019390935251606093919091169163e4860339916024808301926000929190829003018186803b158015610ed957600080fd5b505afa158015610eed573d6000803e3d6000fd5b505050506040513d6000823e601f3d908101601f1916820160405260a0811015610f1657600080fd5b8101908080516040519392919084640100000000821115610f3657600080fd5b908301906020820185811115610f4b57600080fd5b8251640100000000811182820188101715610f6557600080fd5b82525081516020918201929091019080838360005b83811015610f92578181015183820152602001610f7a565b50505050905090810190601f168015610fbf5780820380516001836020036101000a031916815260200191505b5060405260200180516040519392919084640100000000821115610fe257600080fd5b908301906020820185811115610ff757600080fd5b825164010000000081118282018810171561101157600080fd5b82525081516020918201929091019080838360005b8381101561103e578181015183820152602001611026565b50505050905090810190601f16801561106b5780820380516001836020036101000a031916815260200191505b50604081815260055463e486033960e01b83526001600160a01b038a8116600485015291519798506060979116955063e4860339945060248083019450600093509091829003018186803b1580156110c257600080fd5b505afa1580156110d6573d6000803e3d6000fd5b505050506040513d6000823e601f3d908101601f1916820160405260a08110156110ff57600080fd5b810190808051604051939291908464010000000082111561111f57600080fd5b90830190602082018581111561113457600080fd5b825164010000000081118282018810171561114e57600080fd5b82525081516020918201929091019080838360005b8381101561117b578181015183820152602001611163565b50505050905090810190601f1680156111a85780820380516001836020036101000a031916815260200191505b50604052602001805160405193929190846401000000008211156111cb57600080fd5b9083019060208201858111156111e057600080fd5b82516401000000008111828201881017156111fa57600080fd5b82525081516020918201929091019080838360005b8381101561122757818101518382015260200161120f565b50505050905090810190601f1680156112545780820380516001836020036101000a031916815260200191505b50604081905260055488519697506001600160a01b0316956302c9d48495508894508793506020918201925082918501908083835b602083106112a85780518252601f199092019160209182019101611289565b6001836020036101000a038019825116818451168082178552505050505050905001807f2d0000000000000000000000000000000000000000000000000000000000000081525060010182805190602001908083835b6020831061131d5780518252601f1990920191602091820191016112fe565b6001836020036101000a0380198251168184511680821785525050505050509050019250505060405160208183030381529060405260126000306040518563ffffffff1660e01b81526004018080602001806020018660ff168152602001858152602001846001600160a01b03166001600160a01b03168152602001838103835287818151815260200191508051906020019080838360005b838110156113ce5781810151838201526020016113b6565b50505050905090810190601f1680156113fb5780820380516001836020036101000a031916815260200191505b50838103825260028152602001807f4c500000000000000000000000000000000000000000000000000000000000008152506020019650505050505050602060405180830381600087803b15801561145257600080fd5b505af1158015611466573d6000803e3d6000fd5b505050506040513d602081101561147c57600080fd5b5051600680547fffffffffffffffffffffffff0000000000000000000000000000000000000000166001600160a01b0390921691909117905550505050565b600b5481565b600c5481565b6006546001600160a01b031681565b6000600e5460011461152f576040805162461bcd60e51b815260206004820152601160248201527f556e697377617056323a204c4f434b4544000000000000000000000000000000604482015290519081900360640190fd5b6000600e8190558061153f610caf565b5060055460085460408051633de222bb60e21b81526001600160a01b039283166004820152306024820152905194965092945060009391169163f7888aec916044808301926020929190829003018186803b15801561159d57600080fd5b505afa1580156115b1573d6000803e3d6000fd5b505050506040513d60208110156115c757600080fd5b505160055460095460408051633de222bb60e21b81526001600160a01b0392831660048201523060248201529051939450600093919092169163f7888aec916044808301926020929190829003018186803b15801561162557600080fd5b505afa158015611639573d6000803e3d6000fd5b505050506040513d602081101561164f57600080fd5b50519050600061166e836001600160701b03871663ffffffff6126a016565b9050600061168b836001600160701b03871663ffffffff6126a016565b905060006116998787612a56565b60005490915080611742576116c26103e8610b4a6116bd878763ffffffff61263416565b612c23565b60055460065460408051636361ddf360e11b81526001600160a01b0392831660048201526000602482018190526103e860448301529151949d50919092169263c6c3bbe69260648084019391929182900301818387803b15801561172557600080fd5b505af1158015611739573d6000803e3d6000fd5b50505050611791565b61178e6001600160701b03891661175f868463ffffffff61263416565b8161176657fe5b046001600160701b038916611781868563ffffffff61263416565b8161178857fe5b04612c75565b98505b600089116117d05760405162461bcd60e51b8152600401808060200182810382526028815260200180612dc46028913960400191505060405180910390fd5b60055460065460408051636361ddf360e11b81526001600160a01b0392831660048201528d83166024820152604481018d90529051919092169163c6c3bbe691606480830192600092919082900301818387803b15801561183057600080fd5b505af1158015611844573d6000803e3d6000fd5b5050505061185486868a8a6126f8565b811561188457600a54611880906001600160701b0380821691600160701b90041663ffffffff61263416565b600d555b6040805185815260208101859052815133927f4c209b5fc8ad50758f13e2e1088ba56a560dff690a1c6fef26394f4c03821c4f928290030190a250506001600e5550949695505050505050565b60016020526000908152604090205481565b600d5481565b60046020526000908152604090205481565b600080600e54600114611955576040805162461bcd60e51b815260206004820152601160248201527f556e697377617056323a204c4f434b4544000000000000000000000000000000604482015290519081900360640190fd5b6000600e81905580611965610caf565b5060085460095460055460408051633de222bb60e21b81526001600160a01b0394851660048201819052306024830152915196985094965094918316936000939091169163f7888aec91604480820192602092909190829003018186803b1580156119cf57600080fd5b505afa1580156119e3573d6000803e3d6000fd5b505050506040513d60208110156119f957600080fd5b505160055460408051633de222bb60e21b81526001600160a01b0386811660048301523060248301529151939450600093919092169163f7888aec916044808301926020929190829003018186803b158015611a5457600080fd5b505afa158015611a68573d6000803e3d6000fd5b505050506040513d6020811015611a7e57600080fd5b505160055460065460408051633de222bb60e21b81526001600160a01b0392831660048201523060248201529051939450600093919092169163f7888aec916044808301926020929190829003018186803b158015611adc57600080fd5b505afa158015611af0573d6000803e3d6000fd5b505050506040513d6020811015611b0657600080fd5b505190506000611b168888612a56565b6005546006546040805163e486033960e01b81526001600160a01b0392831660048201529051939450600093919092169163e48603399160248083019286929190829003018186803b158015611b6b57600080fd5b505afa158015611b7f573d6000803e3d6000fd5b505050506040513d6000823e601f3d908101601f1916820160405260a0811015611ba857600080fd5b8101908080516040519392919084640100000000821115611bc857600080fd5b908301906020820185811115611bdd57600080fd5b8251640100000000811182820188101715611bf757600080fd5b82525081516020918201929091019080838360005b83811015611c24578181015183820152602001611c0c565b50505050905090810190601f168015611c515780820380516001836020036101000a031916815260200191505b5060405260200180516040519392919084640100000000821115611c7457600080fd5b908301906020820185811115611c8957600080fd5b8251640100000000811182820188101715611ca357600080fd5b82525081516020918201929091019080838360005b83811015611cd0578181015183820152602001611cb8565b50505050905090810190601f168015611cfd5780820380516001836020036101000a031916815260200191505b50604090815201519450849350611d20925086915088905063ffffffff61263416565b81611d2757fe5b049a5080611d3b848663ffffffff61263416565b81611d4257fe5b04995060008b118015611d55575060008a115b611d905760405162461bcd60e51b8152600401808060200182810382526028815260200180612d9c6028913960400191505060405180910390fd5b600554600654604080517f9dc29fac0000000000000000000000000000000000000000000000000000000081526001600160a01b0392831660048201526024810187905290519190921691639dc29fac91604480830192600092919082900301818387803b158015611e0157600080fd5b505af1158015611e15573d6000803e3d6000fd5b50505050611e24878d8d6125a1565b611e2f868d8c6125a1565b60055460408051633de222bb60e21b81526001600160a01b038a811660048301523060248301529151919092169163f7888aec916044808301926020929190829003018186803b158015611e8257600080fd5b505afa158015611e96573d6000803e3d6000fd5b505050506040513d6020811015611eac57600080fd5b505160055460408051633de222bb60e21b81526001600160a01b038a81166004830152306024830152915193985091169163f7888aec91604480820192602092909190829003018186803b158015611f0357600080fd5b505afa158015611f17573d6000803e3d6000fd5b505050506040513d6020811015611f2d57600080fd5b50519350611f3d85858b8b6126f8565b8115611f6d57600a54611f69906001600160701b0380821691600160701b90041663ffffffff61263416565b600d555b604080518c8152602081018c905281516001600160a01b038f169233927fdccd412f0b1252819cb1fd330b93224ca42612892bb3f4f789976e6d81936496929081900390910190a35050505050505050506001600e81905550915091565b6040518060400160405280600681526020017f554e492d5632000000000000000000000000000000000000000000000000000081525081565b6005546001600160a01b031681565b6000610ce633848461299c565b6103e881565b600e5460011461207d576040805162461bcd60e51b815260206004820152601160248201527f556e697377617056323a204c4f434b4544000000000000000000000000000000604482015290519081900360640190fd5b6000600e55600854600954600a5460055460408051633de222bb60e21b81526001600160a01b0395861660048201819052306024830152915191959485169461213a9487948994612135946001600160701b03909316939091169163f7888aec916044808301926020929190829003018186803b1580156120fd57600080fd5b505afa158015612111573d6000803e3d6000fd5b505050506040513d602081101561212757600080fd5b50519063ffffffff6126a016565b6125a1565b600a5460055460408051633de222bb60e21b81526001600160a01b03858116600483015230602483015291516121ac948694899461213594600160701b9093046001600160701b03169391169163f7888aec916044808301926020929190829003018186803b1580156120fd57600080fd5b50506001600e5550565b6007546001600160a01b031681565b6009546001600160a01b031681565b42841015612229576040805162461bcd60e51b815260206004820152601260248201527f556e697377617056323a20455850495245440000000000000000000000000000604482015290519081900360640190fd5b6003546001600160a01b0380891660008181526004602090815260408083208054600180820190925582517f6e71edae12b1b97f4d1f60370fef10105fa2faae0126114a169c64845d6126c98186015280840196909652958d166060860152608085018c905260a085019590955260c08085018b90528151808603909101815260e0850182528051908301207f19010000000000000000000000000000000000000000000000000000000000006101008601526101028501969096526101228085019690965280518085039096018652610142840180825286519683019690962095839052610162840180825286905260ff89166101828501526101a284018890526101c28401879052519193926101e280820193601f1981019281900390910190855afa15801561235f573d6000803e3d6000fd5b5050604051601f1901519150506001600160a01b038116158015906123955750886001600160a01b0316816001600160a01b0316145b6123e6576040805162461bcd60e51b815260206004820152601c60248201527f556e697377617056323a20494e56414c49445f5349474e415455524500000000604482015290519081900360640190fd5b6123f189898961293a565b505050505050505050565b600260209081526000928352604080842090915290825290205481565b600e54600114612470576040805162461bcd60e51b815260206004820152601160248201527f556e697377617056323a204c4f434b4544000000000000000000000000000000604482015290519081900360640190fd5b6000600e5560055460085460408051633de222bb60e21b81526001600160a01b039283166004820152306024820152905161259a93929092169163f7888aec91604480820192602092909190829003018186803b1580156124d057600080fd5b505afa1580156124e4573d6000803e3d6000fd5b505050506040513d60208110156124fa57600080fd5b505160055460095460408051633de222bb60e21b81526001600160a01b0392831660048201523060248201529051919092169163f7888aec916044808301926020929190829003018186803b15801561255257600080fd5b505afa158015612566573d6000803e3d6000fd5b505050506040513d602081101561257c57600080fd5b5051600a546001600160701b0380821691600160701b9004166126f8565b6001600e55565b600554604080517fbeabacc80000000000000000000000000000000000000000000000000000000081526001600160a01b0386811660048301528581166024830152604482018590529151919092169163beabacc891606480830192600092919082900301818387803b15801561261757600080fd5b505af115801561262b573d6000803e3d6000fd5b50505050505050565b600081158061264f5750508082028282828161264c57fe5b04145b610cea576040805162461bcd60e51b815260206004820152601460248201527f64732d6d6174682d6d756c2d6f766572666c6f77000000000000000000000000604482015290519081900360640190fd5b80820382811115610cea576040805162461bcd60e51b815260206004820152601560248201527f64732d6d6174682d7375622d756e646572666c6f770000000000000000000000604482015290519081900360640190fd5b6001600160701b03841180159061271657506001600160701b038311155b612767576040805162461bcd60e51b815260206004820152601360248201527f556e697377617056323a204f564552464c4f5700000000000000000000000000604482015290519081900360640190fd5b600a5463ffffffff42811691600160e01b9004811682039081161580159061279757506001600160701b03841615155b80156127ab57506001600160701b03831615155b1561285b578063ffffffff166127ee856127c486612c8d565b7bffffffffffffffffffffffffffffffffffffffffffffffffffffffff169063ffffffff612c9f16565b600b80547bffffffffffffffffffffffffffffffffffffffffffffffffffffffff929092169290920201905563ffffffff811661282e846127c487612c8d565b600c80547bffffffffffffffffffffffffffffffffffffffffffffffffffffffff92909216929092020190555b600a80547fffffffffffffffffffffffffffffffffffff0000000000000000000000000000166001600160701b03888116919091177fffffffff0000000000000000000000000000ffffffffffffffffffffffffffff16600160701b8883168102919091177bffffffffffffffffffffffffffffffffffffffffffffffffffffffff16600160e01b63ffffffff871602179283905560408051848416815291909304909116602082015281517f1c411e9a96e071241c2f21f7726b17ae89e3cab4c78be50e062b03a9fffbbad1929181900390910190a1505050505050565b6001600160a01b03808416600081815260026020908152604080832094871680845294825291829020859055815185815291517f8c5be1e5ebec7d5bd14f71427d1e84f3dd0314c0f7b2291e5b200ac8c7c3b9259281900390910190a3505050565b6001600160a01b0383166000908152600160205260409020546129c5908263ffffffff6126a016565b6001600160a01b0380851660009081526001602052604080822093909355908416815220546129fa908263ffffffff612cd916565b6001600160a01b0380841660008181526001602090815260409182902094909455805185815290519193928716927fddf252ad1be2c89b69c2b068fc378daa952ba7f163c4a11628f55a4df523b3ef92918290030190a3505050565b600080600760009054906101000a90046001600160a01b03166001600160a01b031663017e7e586040518163ffffffff1660e01b815260040160206040518083038186803b158015612aa757600080fd5b505afa158015612abb573d6000803e3d6000fd5b505050506040513d6020811015612ad157600080fd5b5051600d546001600160a01b038216158015945091925090612c0f578015612c0a576000612b146116bd6001600160701b0388811690881663ffffffff61263416565b90506000612b2183612c23565b905080821115612c07576000612b4f612b40848463ffffffff6126a016565b6000549063ffffffff61263416565b90506000612b7483612b6886600563ffffffff61263416565b9063ffffffff612cd916565b90506000818381612b8157fe5b0490508015612c035760055460065460408051636361ddf360e11b81526001600160a01b0392831660048201528a83166024820152604481018590529051919092169163c6c3bbe691606480830192600092919082900301818387803b158015612bea57600080fd5b505af1158015612bfe573d6000803e3d6000fd5b505050505b5050505b50505b612c1b565b8015612c1b576000600d555b505092915050565b60006003821115612c66575080600160028204015b81811015612c6057809150600281828581612c4f57fe5b040181612c5857fe5b049050612c38565b50612c70565b8115612c70575060015b919050565b6000818310612c845781612c86565b825b9392505050565b6001600160701b0316600160701b0290565b60006001600160701b0382167bffffffffffffffffffffffffffffffffffffffffffffffffffffffff841681612cd157fe5b049392505050565b80820182811015610cea576040805162461bcd60e51b815260206004820152601460248201527f64732d6d6174682d6164642d6f766572666c6f77000000000000000000000000604482015290519081900360640190fdfe556e697377617056323a20494e53554646494349454e545f4f55545055545f414d4f554e54556e697377617056323a20494e53554646494349454e545f494e5055545f414d4f554e54556e697377617056323a20494e53554646494349454e545f4c4951554944495459556e697377617056323a20494e53554646494349454e545f4c49515549444954595f4255524e4544556e697377617056323a20494e53554646494349454e545f4c49515549444954595f4d494e544544a265627a7a72315820bd56c33d1f8020840e57da60fb337c8a79d8e274ad3e25281fa3eb75531e642f64736f6c63430005100032454950373132446f6d61696e28737472696e67206e616d652c737472696e672076657273696f6e2c75696e7432353620636861696e49642c6164647265737320766572696679696e67436f6e747261637429a265627a7a7231582006fc4565f7e930f460ba2ce46e7f39f9048adfced07c4988bb9465bca4b8357564736f6c63430005100032",
  "linkReferences": {},
  "deployedLinkReferences": {}
}