{
  "_format": "hh-sol-artifact-1",
  "contractName": "TokenLibrary",
  "sourceName": "contracts/libraries/TokenLibrary.sol",
  "abi": [
    {
      "anonymous": false,
      "inputs": [
        {
          "indexed": false,
          "internalType": "address",
          "name": "adr",
          "type": "address"
        },
        {
          "indexed": false,
          "internalType": "string",
          "name": "_name",
          "type": "string"
        },
        {
          "indexed": false,
          "internalType": "string",
          "name": "_symbol",
          "type": "string"
        },
        {
          "indexed": false,
          "internalType": "uint8",
          "name": "_decimals",
          "type": "uint8"
        },
        {
          "indexed": false,
          "internalType": "uint256",
          "name": "_totalSupply",
          "type": "uint256"
        },
        {
          "indexed": false,
          "internalType": "address",
          "name": "_minter",
          "type": "address"
        }
      ],
      "name": "TokenCreated",
      "type": "event"
    },
    {
      "anonymous": false,
      "inputs": [
        {
          "indexed": false,
          "internalType": "address",
          "name": "from",
          "type": "address"
        },
        {
          "indexed": false,
          "internalType": "address",
          "name": "to",
          "type": "address"
        },
        {
          "indexed": false,
          "internalType": "uint256",
          "name": "amount",
          "type": "uint256"
        }
      ],
      "name": "Transfer",
      "type": "event"
    },
    {
      "constant": true,
      "inputs": [
        {
          "internalType": "address",
          "name": "_token",
          "type": "address"
        },
        {
          "internalType": "address",
          "name": "_holder",
          "type": "address"
        },
        {
          "internalType": "address",
          "name": "_spender",
          "type": "address"
        }
      ],
      "name": "allowance",
      "outputs": [
        {
          "internalType": "uint256",
          "name": "",
          "type": "uint256"
        }
      ],
      "payable": false,
      "stateMutability": "view",
      "type": "function"
    },
    {
      "constant": false,
      "inputs": [
        {
          "internalType": "address",
          "name": "_token",
          "type": "address"
        },
        {
          "internalType": "address",
          "name": "_spender",
          "type": "address"
        },
        {
          "internalType": "uint256",
          "name": "_amount",
          "type": "uint256"
        }
      ],
      "name": "approve",
      "outputs": [],
      "payable": false,
      "stateMutability": "nonpayable",
      "type": "function"
    },
    {
      "constant": true,
      "inputs": [
        {
          "internalType": "address",
          "name": "_token",
          "type": "address"
        },
        {
          "internalType": "address",
          "name": "_adr",
          "type": "address"
        }
      ],
      "name": "balanceOf",
      "outputs": [
        {
          "internalType": "uint256",
          "name": "",
          "type": "uint256"
        }
      ],
      "payable": false,
      "stateMutability": "view",
      "type": "function"
    },
    {
      "constant": false,
      "inputs": [
        {
          "internalType": "address",
          "name": "_token",
          "type": "address"
        },
        {
          "internalType": "uint256",
          "name": "_amount",
          "type": "uint256"
        }
      ],
      "name": "burn",
      "outputs": [],
      "payable": false,
      "stateMutability": "nonpayable",
      "type": "function"
    },
    {
      "constant": false,
      "inputs": [
        {
          "internalType": "address",
          "name": "_token",
          "type": "address"
        },
        {
          "internalType": "address",
          "name": "_to",
          "type": "address"
        },
        {
          "internalType": "uint256",
          "name": "_amount",
          "type": "uint256"
        }
      ],
      "name": "mint",
      "outputs": [],
      "payable": false,
      "stateMutability": "nonpayable",
      "type": "function"
    },
    {
      "constant": false,
      "inputs": [
        {
          "internalType": "string",
          "name": "_name",
          "type": "string"
        },
        {
          "internalType": "string",
          "name": "_symbol",
          "type": "string"
        },
        {
          "internalType": "uint8",
          "name": "_decimals",
          "type": "uint8"
        },
        {
          "internalType": "uint256",
          "name": "_totalSupply",
          "type": "uint256"
        },
        {
          "internalType": "address",
          "name": "_minter",
          "type": "address"
        }
      ],
      "name": "newToken",
      "outputs": [
        {
          "internalType": "address",
          "name": "",
          "type": "address"
        }
      ],
      "payable": false,
      "stateMutability": "nonpayable",
      "type": "function"
    },
    {
      "constant": true,
      "inputs": [
        {
          "internalType": "address",
          "name": "",
          "type": "address"
        }
      ],
      "name": "tokens",
      "outputs": [
        {
          "internalType": "string",
          "name": "name",
          "type": "string"
        },
        {
          "internalType": "string",
          "name": "symbol",
          "type": "string"
        },
        {
          "internalType": "uint8",
          "name": "decimals",
          "type": "uint8"
        },
        {
          "internalType": "uint256",
          "name": "totalSupply",
          "type": "uint256"
        },
        {
          "internalType": "address",
          "name": "minter",
          "type": "address"
        }
      ],
      "payable": false,
      "stateMutability": "view",
      "type": "function"
    },
    {
      "constant": false,
      "inputs": [
        {
          "internalType": "address",
          "name": "_token",
          "type": "address"
        },
        {
          "internalType": "address",
          "name": "_to",
          "type": "address"
        },
        {
          "internalType": "uint256",
          "name": "_amount",
          "type": "uint256"
        }
      ],
      "name": "transfer",
      "outputs": [],
      "payable": false,
      "stateMutability": "nonpayable",
      "type": "function"
    },
    {
      "constant": false,
      "inputs": [
        {
          "internalType": "address",
          "name": "_token",
          "type": "address"
        },
        {
          "internalType": "address",
          "name": "_from",
          "type": "address"
        },
        {
          "internalType": "address",
          "name": "_to",
          "type": "address"
        },
        {
          "internalType": "uint256",
          "name": "_amount",
          "type": "uint256"
        }
      ],
      "name": "transferFrom",
      "outputs": [],
      "payable": false,
      "stateMutability": "nonpayable",
      "type": "function"
    }
  ],
  "bytecode": "0x608060405234801561001057600080fd5b50610f1e806100206000396000f3fe608060405234801561001057600080fd5b50600436106100a35760003560e01c8063beabacc811610076578063e1f21c671161005b578063e1f21c6714610328578063e48603391461035e578063f7888aec14610484576100a3565b8063beabacc8146102bc578063c6c3bbe6146102f2576100a3565b806302c9d484146100a857806315dacbea14610208578063927da105146102465780639dc29fac14610290575b600080fd5b6101ec600480360360a08110156100be57600080fd5b8101906020810181356401000000008111156100d957600080fd5b8201836020820111156100eb57600080fd5b8035906020019184600183028401116401000000008311171561010d57600080fd5b91908080601f016020809104026020016040519081016040528093929190818152602001838380828437600092019190915250929594936020810193503591505064010000000081111561016057600080fd5b82018360208201111561017257600080fd5b8035906020019184600183028401116401000000008311171561019457600080fd5b91908080601f0160208091040260200160405190810160405280939291908181526020018383808284376000920191909152509295505050813560ff16925050602081013590604001356001600160a01b03166104b2565b604080516001600160a01b039092168252519081900360200190f35b6102446004803603608081101561021e57600080fd5b506001600160a01b03813581169160208101358216916040820135169060600135610843565b005b61027e6004803603606081101561025c57600080fd5b506001600160a01b0381358116916020810135821691604090910135166108d9565b60408051918252519081900360200190f35b610244600480360360408110156102a657600080fd5b506001600160a01b038135169060200135610910565b610244600480360360608110156102d257600080fd5b506001600160a01b03813581169160208101359091169060400135610a07565b6102446004803603606081101561030857600080fd5b506001600160a01b03813581169160208101359091169060400135610a18565b6102446004803603606081101561033e57600080fd5b506001600160a01b03813581169160208101359091169060400135610a94565b6103846004803603602081101561037457600080fd5b50356001600160a01b0316610b42565b6040805160ff851691810191909152606081018390526001600160a01b038216608082015260a08082528651908201528551819060208083019160c08401918a019080838360005b838110156103e45781810151838201526020016103cc565b50505050905090810190601f1680156104115780820380516001836020036101000a031916815260200191505b50838103825287518152875160209182019189019080838360005b8381101561044457818101518382015260200161042c565b50505050905090810190601f1680156104715780820380516001836020036101000a031916815260200191505b5097505050505050505060405180910390f35b61027e6004803603604081101561049a57600080fd5b506001600160a01b0381358116916020013516610c9f565b60008086866040516020018083805190602001908083835b602083106104e95780518252601f1990920191602091820191016104ca565b51815160209384036101000a600019018019909216911617905285519190930192850191508083835b602083106105315780518252601f199092019160209182019101610512565b6001836020036101000a038019825116818451168082178552505050505050905001925050506040516020818303038152906040528051906020012090506000819050600080826001600160a01b03166001600160a01b03168152602001908152602001600020600301546000146105f0576040805162461bcd60e51b815260206004820152601460248201527f746f6b656e20616c726561647920657869737473000000000000000000000000604482015290519081900360640190fd5b6040805160a08101825289815260208082018a905260ff891682840152606082018890526001600160a01b038088166080840152841660009081528082529290922081518051929391926106479284920190610e4e565b5060208281015180516106609260018501920190610e4e565b5060408201516002820180547fffffffffffffffffffffffffffffffffffffffffffffffffffffffffffffff001660ff90921691909117905560608201516003820155608090910151600490910180547fffffffffffffffffffffffff0000000000000000000000000000000000000000166001600160a01b039092169190911790556106ee818587610ccc565b7f96277b960035611e3efe74cc6f4dc654567ad6dfe7e479ece4303ecd0321ec1281898989898960405180876001600160a01b03166001600160a01b0316815260200180602001806020018660ff1660ff168152602001858152602001846001600160a01b03166001600160a01b03168152602001838103835288818151815260200191508051906020019080838360005b83811015610798578181015183820152602001610780565b50505050905090810190601f1680156107c55780820380516001836020036101000a031916815260200191505b50838103825287518152875160209182019189019080838360005b838110156107f85781810151838201526020016107e0565b50505050905090810190601f1680156108255780820380516001836020036101000a031916815260200191505b509850505050505050505060405180910390a1979650505050505050565b6001600160a01b03808516600090815260208181526040808320938716835260069093018152828220338352905220548111156108c7576040805162461bcd60e51b815260206004820181905260248201527f546f6b656e4c69623a20696e73756666696369656e7420616c6c6f77616e6365604482015290519081900360640190fd5b6108d384848484610d4e565b50505050565b6001600160a01b03928316600090815260208181526040808320948616835260069094018152838220929094168152925290205490565b6001600160a01b038216600090815260208181526040808320338452600501909152902054811115610989576040805162461bcd60e51b815260206004820181905260248201527f546f6b656e4c6962726172793a206e6f7420656e6f7567682062616c616e6365604482015290519081900360640190fd5b6001600160a01b038216600081815260208181526040808320338085526005820184528285208054889003905594845283835260030180548690039055805193845290830191909152818101839052517fddf252ad1be2c89b69c2b068fc378daa952ba7f163c4a11628f55a4df523b3ef9181900360600190a15050565b610a1383338484610d4e565b505050565b6001600160a01b03838116600090815260208190526040902060040154163314610a89576040805162461bcd60e51b815260206004820152601460248201527f546f6b656e4c69623a206e6f74206d696e746572000000000000000000000000604482015290519081900360640190fd5b610a13838383610ccc565b6001600160a01b038316600090815260208181526040808320338452600501909152902054811115610b0d576040805162461bcd60e51b815260206004820152601a60248201527f546f6b656e4c69623a20616d6f756e74203e2062616c616e6365000000000000604482015290519081900360640190fd5b6001600160a01b0392831660009081526020818152604080832033845260060182528083209490951682529290925291902055565b6000602081815291815260409081902080548251601f600260001961010060018616150201909316929092049182018590048502810185019093528083529092839190830182828015610bd65780601f10610bab57610100808354040283529160200191610bd6565b820191906000526020600020905b815481529060010190602001808311610bb957829003601f168201915b505050505090806001018054600181600116156101000203166002900480601f016020809104026020016040519081016040528092919081815260200182805460018160011615610100020316600290048015610c745780601f10610c4957610100808354040283529160200191610c74565b820191906000526020600020905b815481529060010190602001808311610c5757829003601f168201915b5050505060028301546003840154600490940154929360ff909116929091506001600160a01b031685565b6001600160a01b039182166000908152602081815260408083209390941682526005909201909152205490565b6001600160a01b038084166000818152602081815260408083209487168084526005860183528184208054880190559383528282526003909401805486019055835191825281019190915280820183905290517fddf252ad1be2c89b69c2b068fc378daa952ba7f163c4a11628f55a4df523b3ef9181900360600190a1505050565b6001600160a01b038085166000908152602081815260408083209387168352600590930190522054811115610dca576040805162461bcd60e51b815260206004820152601e60248201527f546f6b656e4c69623a20696e73756666696369656e742062616c616e63650000604482015290519081900360640190fd5b6001600160a01b03848116600090815260208181526040808320878516808552600590910183528184208054879003905593861680845292819020805486019055805193845290830191909152818101839052517fddf252ad1be2c89b69c2b068fc378daa952ba7f163c4a11628f55a4df523b3ef9181900360600190a150505050565b828054600181600116156101000203166002900490600052602060002090601f016020900481019282601f10610e8f57805160ff1916838001178555610ebc565b82800160010185558215610ebc579182015b82811115610ebc578251825591602001919060010190610ea1565b50610ec8929150610ecc565b5090565b610ee691905b80821115610ec85760008155600101610ed2565b9056fea265627a7a72315820e10fe280641f60cd47c9a575dd1379bdff33f7b84698e8ed67db84c0b800442564736f6c63430005100032",
  "linkReferences": {},
  "deployedLinkReferences": {}
}