{
  "contracts/UniswapV2Factory.sol": {
    "UniswapV2Factory": {
      "abi": [
        {
          "inputs": [
            {
              "internalType": "address",
              "name": "_feeToSetter",
              "type": "address"
            },
            {
              "internalType": "address",
              "name": "_tokenLib",
              "type": "address"
            }
          ],
          "stateMutability": "payable",
          "type": "constructor"
        },
        {
          "anonymous": false,
          "inputs": [
            {
              "indexed": true,
              "internalType": "address",
              "name": "token0",
              "type": "address"
            },
            {
              "indexed": true,
              "internalType": "address",
              "name": "token1",
              "type": "address"
            },
            {
              "indexed": false,
              "internalType": "address",
              "name": "pair",
              "type": "address"
            },
            {
              "indexed": false,
              "internalType": "uint256",
              "name": "",
              "type": "uint256"
            }
          ],
          "name": "PairCreated",
          "type": "event"
        },
        {
          "inputs": [
            {
              "internalType": "uint256",
              "name": "",
              "type": "uint256"
            }
          ],
          "name": "allPairs",
          "outputs": [
            {
              "internalType": "address",
              "name": "",
              "type": "address"
            }
          ],
          "stateMutability": "view",
          "type": "function"
        },
        {
          "inputs": [],
          "name": "allPairsLength",
          "outputs": [
            {
              "internalType": "uint256",
              "name": "",
              "type": "uint256"
            }
          ],
          "stateMutability": "view",
          "type": "function"
        },
        {
          "inputs": [
            {
              "internalType": "address",
              "name": "tokenA",
              "type": "address"
            },
            {
              "internalType": "address",
              "name": "tokenB",
              "type": "address"
            }
          ],
          "name": "createPair",
          "outputs": [
            {
              "internalType": "address",
              "name": "pair",
              "type": "address"
            }
          ],
          "stateMutability": "payable",
          "type": "function"
        },
        {
          "inputs": [],
          "name": "feeTo",
          "outputs": [
            {
              "internalType": "address",
              "name": "",
              "type": "address"
            }
          ],
          "stateMutability": "view",
          "type": "function"
        },
        {
          "inputs": [],
          "name": "feeToSetter",
          "outputs": [
            {
              "internalType": "address",
              "name": "",
              "type": "address"
            }
          ],
          "stateMutability": "view",
          "type": "function"
        },
        {
          "inputs": [
            {
              "internalType": "address",
              "name": "",
              "type": "address"
            },
            {
              "internalType": "address",
              "name": "",
              "type": "address"
            }
          ],
          "name": "getPair",
          "outputs": [
            {
              "internalType": "address",
              "name": "",
              "type": "address"
            }
          ],
          "stateMutability": "view",
          "type": "function"
        },
        {
          "inputs": [],
          "name": "getTokenLib",
          "outputs": [
            {
              "internalType": "address",
              "name": "",
              "type": "address"
            }
          ],
          "stateMutability": "view",
          "type": "function"
        },
        {
          "inputs": [
            {
              "internalType": "address",
              "name": "_feeTo",
              "type": "address"
            }
          ],
          "name": "setFeeTo",
          "outputs": [],
          "stateMutability": "payable",
          "type": "function"
        },
        {
          "inputs": [
            {
              "internalType": "address",
              "name": "_feeToSetter",
              "type": "address"
            }
          ],
          "name": "setFeeToSetter",
          "outputs": [],
          "stateMutability": "payable",
          "type": "function"
        },
        {
          "inputs": [],
          "name": "tokenLib",
          "outputs": [
            {
              "internalType": "address",
              "name": "",
              "type": "address"
            }
          ],
          "stateMutability": "view",
          "type": "function"
        }
      ],
      "evm": {
        "bytecode": {
          "linkReferences": {},
          "object": "60806040526040516128c53803806128c58339810160408190526100229161006f565b600180546001600160a01b039384166001600160a01b031991821617909155600280549290931691161790556100a2565b80516001600160a01b038116811461006a57600080fd5b919050565b6000806040838503121561008257600080fd5b61008b83610053565b915061009960208401610053565b90509250929050565b612814806100b16000396000f3fe6080604052600436106100b15760003560e01c8063a2e74af611610069578063c9c653961161004e578063c9c65396146101a4578063e6a43905146101b7578063f46901ed146101f857600080fd5b8063a2e74af61461016f578063a87cfc121461018457600080fd5b80631e3dd18b1161009a5780631e3dd18b146101135780632942fddb14610133578063574f2ba31461015157600080fd5b8063017e7e58146100b6578063094b7415146100f3575b600080fd5b3480156100c257600080fd5b506000546100d6906001600160a01b031681565b6040516001600160a01b0390911681526020015b60405180910390f35b3480156100ff57600080fd5b506001546100d6906001600160a01b031681565b34801561011f57600080fd5b506100d661012e3660046105bc565b61020b565b34801561013f57600080fd5b506002546001600160a01b03166100d6565b34801561015d57600080fd5b506004546040519081526020016100ea565b61018261017d3660046105f1565b610235565b005b34801561019057600080fd5b506002546100d6906001600160a01b031681565b6100d66101b2366004610613565b6102c3565b3480156101c357600080fd5b506100d66101d2366004610613565b60036020908152600092835260408084209091529082529020546001600160a01b031681565b6101826102063660046105f1565b610526565b6004818154811061021b57600080fd5b6000918252602090912001546001600160a01b0316905081565b6001546001600160a01b031633146102945760405162461bcd60e51b815260206004820152601460248201527f556e697377617056323a20464f5242494444454e00000000000000000000000060448201526064015b60405180910390fd5b6001805473ffffffffffffffffffffffffffffffffffffffff19166001600160a01b0392909216919091179055565b6000816001600160a01b0316836001600160a01b0316036103265760405162461bcd60e51b815260206004820152601f60248201527f556e697377617056323a204944454e544943414c285f41444452455353455300604482015260640161028b565b600080836001600160a01b0316856001600160a01b03161061034957838561034c565b84845b90925090506001600160a01b0382166103a75760405162461bcd60e51b815260206004820152601760248201527f556e697377617056323a205a45524f5f41444452455353000000000000000000604482015260640161028b565b6001600160a01b0382811660009081526003602090815260408083208585168452909152902054161561041c5760405162461bcd60e51b815260206004820152601660248201527f556e697377617056323a20504149525f45584953545300000000000000000000604482015260640161028b565b604051610428906105af565b604051809103906000f080158015610444573d6000803e3d6000fd5b506001600160a01b038381166000818152600360208181526040808420888716808652908352818520805473ffffffffffffffffffffffffffffffffffffffff19908116988a169889179091559383528185208686528352818520805485168817905560048054600181018255958190527f8a35acfbc15ff81a39ae7d344fd709f28e8600b4aa8c65c6b64bfe7fe36bd19b90950180549094168717909355925483519586529085015293965090917f0d3648bd0f6ba80134a33ba9275ac585d9d315f0ad8355cddefde31afa28d0e9910160405180910390a3505092915050565b6001546001600160a01b031633146105805760405162461bcd60e51b815260206004820152601460248201527f556e697377617056323a20464f5242494444454e000000000000000000000000604482015260640161028b565b6000805473ffffffffffffffffffffffffffffffffffffffff19166001600160a01b0392909216919091179055565b6121988061064783390190565b6000602082840312156105ce57600080fd5b5035919050565b80356001600160a01b03811681146105ec57600080fd5b919050565b60006020828403121561060357600080fd5b61060c826105d5565b9392505050565b6000806040838503121561062657600080fd5b61062f836105d5565b915061063d602084016105d5565b9050925092905056fe60016010819055600a608052692ab734b9bbb0b8102b1960b11b60a090815260c091909152603160f81b60e0527f8b73c3c69bb8fe3d512ecc4cf759cc79239f7b179b0ffacaa9a75d522b39400f6101209081527fbfcc8ef98ffbf7b6c3fec7bf5185b566b9863e35a9d83acd49ad6824b5969738610140527fc89efdaa54c0f20c7adf612882df0950f5a951637e0307cdcb4c672f298b8bc6610160526000610180819052306101a0526101008390526101c0604052919020600355600780546001600160a01b031916331790556120ba9081906100de90396000f3fe6080604052600436106101e75760003560e01c806370a0823111610102578063ba9a7a5611610095578063d505accf11610064578063d505accf146105cc578063dd62ed3e146105df578063f81fb78514610617578063fff6cae91461062d57600080fd5b8063ba9a7a5614610563578063bc25cf7714610579578063c45a01551461058c578063d21220a7146105ac57600080fd5b806395d89b41116100d157806395d89b41146104d45780639702cd8e1461051d578063a87cfc1214610530578063a9059cbb1461055057600080fd5b806370a08231146104515780637464fc3d1461047e5780637ecebe001461049457806389afcb44146104c157600080fd5b8063313ce5671161017a5780635909c0d5116101495780635909c0d5146103f25780635a3d5493146104085780635fcbd2851461041e5780636a6278421461043e57600080fd5b8063313ce567146103565780633644e5151461037d578063485cc9551461039357806354429aa9146103dc57600080fd5b80630dfe1681116101b65780630dfe1681146102b357806318160ddd146102eb57806323b872dd1461030f57806330adf81f1461032257600080fd5b8063022c0d9f146101f357806306fdde03146102085780630902f1ac14610267578063095ea7b31461029057600080fd5b366101ee57005b600080fd5b610206610201366004611ad9565b610635565b005b34801561021457600080fd5b506102516040518060400160405280600a81526020017f556e69737761702056320000000000000000000000000000000000000000000081525081565b60405161025e9190611bbf565b60405180910390f35b34801561027357600080fd5b50600a54600b545b6040805192835260208301919091520161025e565b6102a361029e366004611bd2565b610cc0565b604051901515815260200161025e565b3480156102bf57600080fd5b506008546102d3906001600160a01b031681565b6040516001600160a01b03909116815260200161025e565b3480156102f757600080fd5b5061030160005481565b60405190815260200161025e565b6102a361031d366004611bfe565b610cd7565b34801561032e57600080fd5b506103017f6e71edae12b1b97f4d1f60370fef10105fa2faae0126114a169c64845d6126c981565b34801561036257600080fd5b5061036b601281565b60405160ff909116815260200161025e565b34801561038957600080fd5b5061030160035481565b6102066103a1366004611c3f565b600880546001600160a01b0393841673ffffffffffffffffffffffffffffffffffffffff199182161790915560098054929093169116179055565b3480156103e857600080fd5b5061030160115481565b3480156103fe57600080fd5b50610301600d5481565b34801561041457600080fd5b50610301600e5481565b34801561042a57600080fd5b506006546102d3906001600160a01b031681565b61030161044c366004611c78565b610d68565b34801561045d57600080fd5b5061030161046c366004611c78565b60016020526000908152604090205481565b34801561048a57600080fd5b50610301600f5481565b3480156104a057600080fd5b506103016104af366004611c78565b60046020526000908152604090205481565b61027b6104cf366004611c78565b611139565b3480156104e057600080fd5b506102516040518060400160405280600681526020017f554e492d5632000000000000000000000000000000000000000000000000000081525081565b61020661052b366004611c78565b61119a565b34801561053c57600080fd5b506005546102d3906001600160a01b031681565b6102a361055e366004611bd2565b6113b7565b34801561056f57600080fd5b506103016103e881565b610206610587366004611c78565b6113c4565b34801561059857600080fd5b506007546102d3906001600160a01b031681565b3480156105b857600080fd5b506009546102d3906001600160a01b031681565b6102066105da366004611ca4565b61141e565b3480156105eb57600080fd5b506103016105fa366004611c3f565b600260209081526000928352604080842090915290825290205481565b34801561062357600080fd5b5061030160125481565b610206611658565b60105460011461068c5760405162461bcd60e51b815260206004820152601160248201527f556e697377617056323a204c4f434b454400000000000000000000000000000060448201526064015b60405180910390fd5b60006010558415158061069f5750600084115b6107115760405162461bcd60e51b815260206004820152602560248201527f556e697377617056323a20494e53554646494349454e545f4f55545055545f4160448201527f4d4f554e540000000000000000000000000000000000000000000000000000006064820152608401610683565b600080610721600a54600b549091565b91509150818710801561073357508086105b6107a55760405162461bcd60e51b815260206004820152602160248201527f556e697377617056323a20494e53554646494349454e545f4c4951554944495460448201527f59000000000000000000000000000000000000000000000000000000000000006064820152608401610683565b600554600854604051633de222bb60e21b81526001600160a01b0391821660048201523060248201526000928392169063f7888aec906044016020604051808303816000875af11580156107fd573d6000803e3d6000fd5b505050506040513d601f19601f820116820180604052508101906108219190611d15565b600554600954604051633de222bb60e21b81526001600160a01b039182166004820152306024820152929450169063f7888aec906044016020604051808303816000875af1158015610877573d6000803e3d6000fd5b505050506040513d601f19601f8201168201806040525081019061089b9190611d15565b601183905560128190556008546009549192506001600160a01b0390811691811690891682148015906108e05750806001600160a01b0316896001600160a01b031614155b61092c5760405162461bcd60e51b815260206004820152601560248201527f556e697377617056323a20494e56414c49445f544f00000000000000000000006044820152606401610683565b8a1561093d5761093d828a8d6116b1565b891561094e5761094e818a8c6116b1565b86156109d4576040517f10d1e85c0000000000000000000000000000000000000000000000000000000081526001600160a01b038a16906310d1e85c906109a19033908f908f908e908e90600401611d2e565b600060405180830381600087803b1580156109bb57600080fd5b505af11580156109cf573d6000803e3d6000fd5b505050505b600554604051633de222bb60e21b81526001600160a01b0384811660048301523060248301529091169063f7888aec906044016020604051808303816000875af1158015610a26573d6000803e3d6000fd5b505050506040513d601f19601f82011682018060405250810190610a4a9190611d15565b600554604051633de222bb60e21b81526001600160a01b03848116600483015230602483015292965091169063f7888aec906044016020604051808303816000875af1158015610a9e573d6000803e3d6000fd5b505050506040513d601f19601f82011682018060405250810190610ac29190611d15565b9250505060008985610ad49190611d91565b8311610ae1576000610af5565b610aeb8a86611d91565b610af59084611d91565b90506000610b038a86611d91565b8311610b10576000610b24565b610b1a8a86611d91565b610b249084611d91565b90506000821180610b355750600081115b610ba65760405162461bcd60e51b8152602060048201526024808201527f556e697377617056323a20494e53554646494349454e545f494e5055545f414d60448201527f4f554e54000000000000000000000000000000000000000000000000000000006064820152608401610683565b6000610bc8610bb684600361173d565b610bc2876103e861173d565b906117ad565b90506000610bda610bb684600361173d565b9050610bf3620f4240610bed8a8a61173d565b9061173d565b610bfd838361173d565b1015610c4b5760405162461bcd60e51b815260206004820152600c60248201527f556e697377617056323a204b00000000000000000000000000000000000000006044820152606401610683565b5050610c598484888861180b565b60408051838152602081018390529081018c9052606081018b90526001600160a01b038a169033907fd78ad95fa46c994b6551d0da85fc275fe613ce37657fb8d5e3d130840159d8229060800160405180910390a350506001601055505050505050505050565b6000610ccd3384846118d3565b5060015b92915050565b6001600160a01b038316600090815260026020908152604080832033845290915281205415610d53576001600160a01b0384166000908152600260209081526040808320338452909152902054610d2e90836117ad565b6001600160a01b03851660009081526002602090815260408083203384529091529020555b610d5e848484611935565b5060019392505050565b6000601054600114610dbc5760405162461bcd60e51b815260206004820152601160248201527f556e697377617056323a204c4f434b45440000000000000000000000000000006044820152606401610683565b6000601081905580610dd1600a54600b549091565b600554600854604051633de222bb60e21b81526001600160a01b03918216600482015230602482015293955091935060009291169063f7888aec906044016020604051808303816000875af1158015610e2e573d6000803e3d6000fd5b505050506040513d601f19601f82011682018060405250810190610e529190611d15565b600554600954604051633de222bb60e21b81526001600160a01b03918216600482015230602482015292935060009291169063f7888aec906044016020604051808303816000875af1158015610eac573d6000803e3d6000fd5b505050506040513d601f19601f82011682018060405250810190610ed09190611d15565b90506000610ede83866117ad565b90506000610eec83866117ad565b60008054919250819003610fa257610f126103e8610bc2610f0d868661173d565b6119db565b6005546006546040517fc6c3bbe60000000000000000000000000000000000000000000000000000000081526001600160a01b039182166004820152600060248201526103e86044820152929a50169063c6c3bbe690606401600060405180830381600087803b158015610f8557600080fd5b505af1158015610f99573d6000803e3d6000fd5b50505050610fd7565b610fd487610fb0858461173d565b610fba9190611dba565b87610fc5858561173d565b610fcf9190611dba565b611a4b565b97505b6000881161104d5760405162461bcd60e51b815260206004820152602860248201527f556e697377617056323a20494e53554646494349454e545f4c4951554944495460448201527f595f4d494e5445440000000000000000000000000000000000000000000000006064820152608401610683565b601185905560128490556005546006546040517fc6c3bbe60000000000000000000000000000000000000000000000000000000081526001600160a01b0391821660048201528b82166024820152604481018b905291169063c6c3bbe690606401600060405180830381600087803b1580156110c857600080fd5b505af11580156110dc573d6000803e3d6000fd5b505050506110ec8585898961180b565b604080518481526020810184905233917f4c209b5fc8ad50758f13e2e1088ba56a560dff690a1c6fef26394f4c03821c4f910160405180910390a250506001601055509395945050505050565b60008060105460011461118e5760405162461bcd60e51b815260206004820152601160248201527f556e697377617056323a204c4f434b45440000000000000000000000000000006044820152606401610683565b60016010559092909150565b6005805473ffffffffffffffffffffffffffffffffffffffff19166001600160a01b038381169182179092556008546040517f59770438000000000000000000000000000000000000000000000000000000008152921660048301526000916359770438906024016000604051808303816000875af1158015611221573d6000803e3d6000fd5b505050506040513d6000823e601f3d908101601f191682016040526112499190810190611e6c565b50506005546009546040517f597704380000000000000000000000000000000000000000000000000000000081526001600160a01b03918216600482015294955060009491169250635977043891506024016000604051808303816000875af11580156112ba573d6000803e3d6000fd5b505050506040513d6000823e601f3d908101601f191682016040526112e29190810190611e6c565b50506005546040519394506001600160a01b0316926302c9d484925061130f915085908590602001611f02565b60405160208183030381529060405260126000306040518563ffffffff1660e01b81526004016113429493929190611f5a565b6020604051808303816000875af1158015611361573d6000803e3d6000fd5b505050506040513d601f19601f820116820180604052508101906113859190611fcd565b6006805473ffffffffffffffffffffffffffffffffffffffff19166001600160a01b0392909216919091179055505050565b6000610ccd338484611935565b6010546001146114165760405162461bcd60e51b815260206004820152601160248201527f556e697377617056323a204c4f434b45440000000000000000000000000000006044820152606401610683565b506001601055565b4284101561146e5760405162461bcd60e51b815260206004820152601260248201527f556e697377617056323a204558504952454400000000000000000000000000006044820152606401610683565b6003546001600160a01b038816600090815260046020526040812080549192917f6e71edae12b1b97f4d1f60370fef10105fa2faae0126114a169c64845d6126c9918b918b918b9190876114c183611fea565b909155506040805160208101969096526001600160a01b0394851690860152929091166060840152608083015260a082015260c0810187905260e001604051602081830303815290604052805190602001206040516020016115559291907f190100000000000000000000000000000000000000000000000000000000000081526002810192909252602282015260420190565b60408051601f198184030181528282528051602091820120600080855291840180845281905260ff88169284019290925260608301869052608083018590529092509060019060a0016020604051602081039080840390855afa1580156115c0573d6000803e3d6000fd5b5050604051601f1901519150506001600160a01b038116158015906115f65750886001600160a01b0316816001600160a01b0316145b6116425760405162461bcd60e51b815260206004820152601c60248201527f556e697377617056323a20494e56414c49445f5349474e4154555245000000006044820152606401610683565b61164d8989896118d3565b505050505050505050565b6010546001146116aa5760405162461bcd60e51b815260206004820152601160248201527f556e697377617056323a204c4f434b45440000000000000000000000000000006044820152606401610683565b6001601055565b6005546040517fbeabacc80000000000000000000000000000000000000000000000000000000081526001600160a01b0385811660048301528481166024830152604482018490529091169063beabacc890606401600060405180830381600087803b15801561172057600080fd5b505af1158015611734573d6000803e3d6000fd5b50505050505050565b6000811580611761575082826117538183612022565b925061175f9083611dba565b145b610cd15760405162461bcd60e51b815260206004820152601460248201527f64732d6d6174682d6d756c2d6f766572666c6f770000000000000000000000006044820152606401610683565b6000826117ba8382611d91565b9150811115610cd15760405162461bcd60e51b815260206004820152601560248201527f64732d6d6174682d7375622d756e646572666c6f7700000000000000000000006044820152606401610683565b600061181c64010000000042612039565b600c549091506000906118359063ffffffff168361204d565b905060008163ffffffff1611801561184c57508315155b801561185757508215155b50600a869055600b859055600c80547fffffffffffffffffffffffffffffffffffffffffffffffffffffffff000000001663ffffffff841617905560408051878152602081018790527fcf2aa50876cdfbb541206f89af0ee78d44a2abf8d328e37fa4917f982149848a910160405180910390a1505050505050565b6001600160a01b0383811660008181526002602090815260408083209487168084529482529182902085905590518481527f8c5be1e5ebec7d5bd14f71427d1e84f3dd0314c0f7b2291e5b200ac8c7c3b92591015b60405180910390a3505050565b6001600160a01b03831660009081526001602052604090205461195890826117ad565b6001600160a01b0380851660009081526001602052604080822093909355908416815220546119879082611a63565b6001600160a01b0380841660008181526001602052604090819020939093559151908516907fddf252ad1be2c89b69c2b068fc378daa952ba7f163c4a11628f55a4df523b3ef906119289085815260200190565b60006003821115611a3c57508060006119f5600283611dba565b611a00906001612071565b90505b81811015611a3657905080600281611a1b8186611dba565b611a259190612071565b611a2f9190611dba565b9050611a03565b50919050565b8115611a46575060015b919050565b6000818310611a5a5781611a5c565b825b9392505050565b600082611a708382612071565b9150811015610cd15760405162461bcd60e51b815260206004820152601460248201527f64732d6d6174682d6164642d6f766572666c6f770000000000000000000000006044820152606401610683565b6001600160a01b0381168114611ad657600080fd5b50565b600080600080600060808688031215611af157600080fd5b85359450602086013593506040860135611b0a81611ac1565b9250606086013567ffffffffffffffff80821115611b2757600080fd5b818801915088601f830112611b3b57600080fd5b813581811115611b4a57600080fd5b896020828501011115611b5c57600080fd5b9699959850939650602001949392505050565b60005b83811015611b8a578181015183820152602001611b72565b50506000910152565b60008151808452611bab816020860160208601611b6f565b601f01601f19169290920160200192915050565b602081526000611a5c6020830184611b93565b60008060408385031215611be557600080fd5b8235611bf081611ac1565b946020939093013593505050565b600080600060608486031215611c1357600080fd5b8335611c1e81611ac1565b92506020840135611c2e81611ac1565b929592945050506040919091013590565b60008060408385031215611c5257600080fd5b8235611c5d81611ac1565b91506020830135611c6d81611ac1565b809150509250929050565b600060208284031215611c8a57600080fd5b8135611a5c81611ac1565b60ff81168114611ad657600080fd5b600080600080600080600060e0888a031215611cbf57600080fd5b8735611cca81611ac1565b96506020880135611cda81611ac1565b955060408801359450606088013593506080880135611cf881611c95565b9699959850939692959460a0840135945060c09093013592915050565b600060208284031215611d2757600080fd5b5051919050565b6001600160a01b038616815284602082015283604082015260806060820152816080820152818360a0830137600081830160a090810191909152601f909201601f19160101949350505050565b634e487b7160e01b600052601160045260246000fd5b81810381811115610cd157610cd1611d7b565b634e487b7160e01b600052601260045260246000fd5b600082611dc957611dc9611da4565b500490565b634e487b7160e01b600052604160045260246000fd5b600082601f830112611df557600080fd5b815167ffffffffffffffff80821115611e1057611e10611dce565b604051601f8301601f19908116603f01168101908282118183101715611e3857611e38611dce565b81604052838152866020858801011115611e5157600080fd5b611e62846020830160208901611b6f565b9695505050505050565b600080600080600060a08688031215611e8457600080fd5b855167ffffffffffffffff80821115611e9c57600080fd5b611ea889838a01611de4565b96506020880151915080821115611ebe57600080fd5b50611ecb88828901611de4565b9450506040860151611edc81611c95565b606087015160808801519194509250611ef481611ac1565b809150509295509295909350565b60008351611f14818460208801611b6f565b7f2d000000000000000000000000000000000000000000000000000000000000009083019081528351611f4e816001840160208801611b6f565b01600101949350505050565b60a081526000611f6d60a0830187611b93565b8281036020840152600281527f4c5000000000000000000000000000000000000000000000000000000000000060208201526040810191505060ff851660408301528360608301526001600160a01b038316608083015295945050505050565b600060208284031215611fdf57600080fd5b8151611a5c81611ac1565b60007fffffffffffffffffffffffffffffffffffffffffffffffffffffffffffffffff820361201b5761201b611d7b565b5060010190565b8082028115828204841417610cd157610cd1611d7b565b60008261204857612048611da4565b500690565b63ffffffff82811682821603908082111561206a5761206a611d7b565b5092915050565b80820180821115610cd157610cd1611d7b56fea26469706673582212206a240203c6e39ca2de29a23098c45ea50a9929a40245244160792e6843e197bd64736f6c63430008140033a264697066735822122005478f5dfb1d56d388c5df2afcc68742298d0af5a350b47b2d3e49ab0280c02164736f6c63430008140033",
          "opcodes": "PUSH1 0x80 PUSH1 0x40 MSTORE PUSH1 0x40 MLOAD PUSH2 0x28C5 CODESIZE SUB DUP1 PUSH2 0x28C5 DUP4 CODECOPY DUP2 ADD PUSH1 0x40 DUP2 SWAP1 MSTORE PUSH2 0x22 SWAP2 PUSH2 0x6F JUMP JUMPDEST PUSH1 0x1 DUP1 SLOAD PUSH1 0x1 PUSH1 0x1 PUSH1 0xA0 SHL SUB SWAP4 DUP5 AND PUSH1 0x1 PUSH1 0x1 PUSH1 0xA0 SHL SUB NOT SWAP2 DUP3 AND OR SWAP1 SWAP2 SSTORE PUSH1 0x2 DUP1 SLOAD SWAP3 SWAP1 SWAP4 AND SWAP2 AND OR SWAP1 SSTORE PUSH2 0xA2 JUMP JUMPDEST DUP1 MLOAD PUSH1 0x1 PUSH1 0x1 PUSH1 0xA0 SHL SUB DUP2 AND DUP2 EQ PUSH2 0x6A JUMPI PUSH1 0x0 DUP1 REVERT JUMPDEST SWAP2 SWAP1 POP JUMP JUMPDEST PUSH1 0x0 DUP1 PUSH1 0x40 DUP4 DUP6 SUB SLT ISZERO PUSH2 0x82 JUMPI PUSH1 0x0 DUP1 REVERT JUMPDEST PUSH2 0x8B DUP4 PUSH2 0x53 JUMP JUMPDEST SWAP2 POP PUSH2 0x99 PUSH1 0x20 DUP5 ADD PUSH2 0x53 JUMP JUMPDEST SWAP1 POP SWAP3 POP SWAP3 SWAP1 POP JUMP JUMPDEST PUSH2 0x2814 DUP1 PUSH2 0xB1 PUSH1 0x0 CODECOPY PUSH1 0x0 RETURN INVALID PUSH1 0x80 PUSH1 0x40 MSTORE PUSH1 0x4 CALLDATASIZE LT PUSH2 0xB1 JUMPI PUSH1 0x0 CALLDATALOAD PUSH1 0xE0 SHR DUP1 PUSH4 0xA2E74AF6 GT PUSH2 0x69 JUMPI DUP1 PUSH4 0xC9C65396 GT PUSH2 0x4E JUMPI DUP1 PUSH4 0xC9C65396 EQ PUSH2 0x1A4 JUMPI DUP1 PUSH4 0xE6A43905 EQ PUSH2 0x1B7 JUMPI DUP1 PUSH4 0xF46901ED EQ PUSH2 0x1F8 JUMPI PUSH1 0x0 DUP1 REVERT JUMPDEST DUP1 PUSH4 0xA2E74AF6 EQ PUSH2 0x16F JUMPI DUP1 PUSH4 0xA87CFC12 EQ PUSH2 0x184 JUMPI PUSH1 0x0 DUP1 REVERT JUMPDEST DUP1 PUSH4 0x1E3DD18B GT PUSH2 0x9A JUMPI DUP1 PUSH4 0x1E3DD18B EQ PUSH2 0x113 JUMPI DUP1 PUSH4 0x2942FDDB EQ PUSH2 0x133 JUMPI DUP1 PUSH4 0x574F2BA3 EQ PUSH2 0x151 JUMPI PUSH1 0x0 DUP1 REVERT JUMPDEST DUP1 PUSH4 0x17E7E58 EQ PUSH2 0xB6 JUMPI DUP1 PUSH4 0x94B7415 EQ PUSH2 0xF3 JUMPI JUMPDEST PUSH1 0x0 DUP1 REVERT JUMPDEST CALLVALUE DUP1 ISZERO PUSH2 0xC2 JUMPI PUSH1 0x0 DUP1 REVERT JUMPDEST POP PUSH1 0x0 SLOAD PUSH2 0xD6 SWAP1 PUSH1 0x1 PUSH1 0x1 PUSH1 0xA0 SHL SUB AND DUP2 JUMP JUMPDEST PUSH1 0x40 MLOAD PUSH1 0x1 PUSH1 0x1 PUSH1 0xA0 SHL SUB SWAP1 SWAP2 AND DUP2 MSTORE PUSH1 0x20 ADD JUMPDEST PUSH1 0x40 MLOAD DUP1 SWAP2 SUB SWAP1 RETURN JUMPDEST CALLVALUE DUP1 ISZERO PUSH2 0xFF JUMPI PUSH1 0x0 DUP1 REVERT JUMPDEST POP PUSH1 0x1 SLOAD PUSH2 0xD6 SWAP1 PUSH1 0x1 PUSH1 0x1 PUSH1 0xA0 SHL SUB AND DUP2 JUMP JUMPDEST CALLVALUE DUP1 ISZERO PUSH2 0x11F JUMPI PUSH1 0x0 DUP1 REVERT JUMPDEST POP PUSH2 0xD6 PUSH2 0x12E CALLDATASIZE PUSH1 0x4 PUSH2 0x5BC JUMP JUMPDEST PUSH2 0x20B JUMP JUMPDEST CALLVALUE DUP1 ISZERO PUSH2 0x13F JUMPI PUSH1 0x0 DUP1 REVERT JUMPDEST POP PUSH1 0x2 SLOAD PUSH1 0x1 PUSH1 0x1 PUSH1 0xA0 SHL SUB AND PUSH2 0xD6 JUMP JUMPDEST CALLVALUE DUP1 ISZERO PUSH2 0x15D JUMPI PUSH1 0x0 DUP1 REVERT JUMPDEST POP PUSH1 0x4 SLOAD PUSH1 0x40 MLOAD SWAP1 DUP2 MSTORE PUSH1 0x20 ADD PUSH2 0xEA JUMP JUMPDEST PUSH2 0x182 PUSH2 0x17D CALLDATASIZE PUSH1 0x4 PUSH2 0x5F1 JUMP JUMPDEST PUSH2 0x235 JUMP JUMPDEST STOP JUMPDEST CALLVALUE DUP1 ISZERO PUSH2 0x190 JUMPI PUSH1 0x0 DUP1 REVERT JUMPDEST POP PUSH1 0x2 SLOAD PUSH2 0xD6 SWAP1 PUSH1 0x1 PUSH1 0x1 PUSH1 0xA0 SHL SUB AND DUP2 JUMP JUMPDEST PUSH2 0xD6 PUSH2 0x1B2 CALLDATASIZE PUSH1 0x4 PUSH2 0x613 JUMP JUMPDEST PUSH2 0x2C3 JUMP JUMPDEST CALLVALUE DUP1 ISZERO PUSH2 0x1C3 JUMPI PUSH1 0x0 DUP1 REVERT JUMPDEST POP PUSH2 0xD6 PUSH2 0x1D2 CALLDATASIZE PUSH1 0x4 PUSH2 0x613 JUMP JUMPDEST PUSH1 0x3 PUSH1 0x20 SWAP1 DUP2 MSTORE PUSH1 0x0 SWAP3 DUP4 MSTORE PUSH1 0x40 DUP1 DUP5 KECCAK256 SWAP1 SWAP2 MSTORE SWAP1 DUP3 MSTORE SWAP1 KECCAK256 SLOAD PUSH1 0x1 PUSH1 0x1 PUSH1 0xA0 SHL SUB AND DUP2 JUMP JUMPDEST PUSH2 0x182 PUSH2 0x206 CALLDATASIZE PUSH1 0x4 PUSH2 0x5F1 JUMP JUMPDEST PUSH2 0x526 JUMP JUMPDEST PUSH1 0x4 DUP2 DUP2 SLOAD DUP2 LT PUSH2 0x21B JUMPI PUSH1 0x0 DUP1 REVERT JUMPDEST PUSH1 0x0 SWAP2 DUP3 MSTORE PUSH1 0x20 SWAP1 SWAP2 KECCAK256 ADD SLOAD PUSH1 0x1 PUSH1 0x1 PUSH1 0xA0 SHL SUB AND SWAP1 POP DUP2 JUMP JUMPDEST PUSH1 0x1 SLOAD PUSH1 0x1 PUSH1 0x1 PUSH1 0xA0 SHL SUB AND CALLER EQ PUSH2 0x294 JUMPI PUSH1 0x40 MLOAD PUSH3 0x461BCD PUSH1 0xE5 SHL DUP2 MSTORE PUSH1 0x20 PUSH1 0x4 DUP3 ADD MSTORE PUSH1 0x14 PUSH1 0x24 DUP3 ADD MSTORE PUSH32 0x556E697377617056323A20464F5242494444454E000000000000000000000000 PUSH1 0x44 DUP3 ADD MSTORE PUSH1 0x64 ADD JUMPDEST PUSH1 0x40 MLOAD DUP1 SWAP2 SUB SWAP1 REVERT JUMPDEST PUSH1 0x1 DUP1 SLOAD PUSH20 0xFFFFFFFFFFFFFFFFFFFFFFFFFFFFFFFFFFFFFFFF NOT AND PUSH1 0x1 PUSH1 0x1 PUSH1 0xA0 SHL SUB SWAP3 SWAP1 SWAP3 AND SWAP2 SWAP1 SWAP2 OR SWAP1 SSTORE JUMP JUMPDEST PUSH1 0x0 DUP2 PUSH1 0x1 PUSH1 0x1 PUSH1 0xA0 SHL SUB AND DUP4 PUSH1 0x1 PUSH1 0x1 PUSH1 0xA0 SHL SUB AND SUB PUSH2 0x326 JUMPI PUSH1 0x40 MLOAD PUSH3 0x461BCD PUSH1 0xE5 SHL DUP2 MSTORE PUSH1 0x20 PUSH1 0x4 DUP3 ADD MSTORE PUSH1 0x1F PUSH1 0x24 DUP3 ADD MSTORE PUSH32 0x556E697377617056323A204944454E544943414C285F41444452455353455300 PUSH1 0x44 DUP3 ADD MSTORE PUSH1 0x64 ADD PUSH2 0x28B JUMP JUMPDEST PUSH1 0x0 DUP1 DUP4 PUSH1 0x1 PUSH1 0x1 PUSH1 0xA0 SHL SUB AND DUP6 PUSH1 0x1 PUSH1 0x1 PUSH1 0xA0 SHL SUB AND LT PUSH2 0x349 JUMPI DUP4 DUP6 PUSH2 0x34C JUMP JUMPDEST DUP5 DUP5 JUMPDEST SWAP1 SWAP3 POP SWAP1 POP PUSH1 0x1 PUSH1 0x1 PUSH1 0xA0 SHL SUB DUP3 AND PUSH2 0x3A7 JUMPI PUSH1 0x40 MLOAD PUSH3 0x461BCD PUSH1 0xE5 SHL DUP2 MSTORE PUSH1 0x20 PUSH1 0x4 DUP3 ADD MSTORE PUSH1 0x17 PUSH1 0x24 DUP3 ADD MSTORE PUSH32 0x556E697377617056323A205A45524F5F41444452455353000000000000000000 PUSH1 0x44 DUP3 ADD MSTORE PUSH1 0x64 ADD PUSH2 0x28B JUMP JUMPDEST PUSH1 0x1 PUSH1 0x1 PUSH1 0xA0 SHL SUB DUP3 DUP2 AND PUSH1 0x0 SWAP1 DUP2 MSTORE PUSH1 0x3 PUSH1 0x20 SWAP1 DUP2 MSTORE PUSH1 0x40 DUP1 DUP4 KECCAK256 DUP6 DUP6 AND DUP5 MSTORE SWAP1 SWAP2 MSTORE SWAP1 KECCAK256 SLOAD AND ISZERO PUSH2 0x41C JUMPI PUSH1 0x40 MLOAD PUSH3 0x461BCD PUSH1 0xE5 SHL DUP2 MSTORE PUSH1 0x20 PUSH1 0x4 DUP3 ADD MSTORE PUSH1 0x16 PUSH1 0x24 DUP3 ADD MSTORE PUSH32 0x556E697377617056323A20504149525F45584953545300000000000000000000 PUSH1 0x44 DUP3 ADD MSTORE PUSH1 0x64 ADD PUSH2 0x28B JUMP JUMPDEST PUSH1 0x40 MLOAD PUSH2 0x428 SWAP1 PUSH2 0x5AF JUMP JUMPDEST PUSH1 0x40 MLOAD DUP1 SWAP2 SUB SWAP1 PUSH1 0x0 CREATE DUP1 ISZERO DUP1 ISZERO PUSH2 0x444 JUMPI RETURNDATASIZE PUSH1 0x0 DUP1 RETURNDATACOPY RETURNDATASIZE PUSH1 0x0 REVERT JUMPDEST POP PUSH1 0x1 PUSH1 0x1 PUSH1 0xA0 SHL SUB DUP4 DUP2 AND PUSH1 0x0 DUP2 DUP2 MSTORE PUSH1 0x3 PUSH1 0x20 DUP2 DUP2 MSTORE PUSH1 0x40 DUP1 DUP5 KECCAK256 DUP9 DUP8 AND DUP1 DUP7 MSTORE SWAP1 DUP4 MSTORE DUP2 DUP6 KECCAK256 DUP1 SLOAD PUSH20 0xFFFFFFFFFFFFFFFFFFFFFFFFFFFFFFFFFFFFFFFF NOT SWAP1 DUP2 AND SWAP9 DUP11 AND SWAP9 DUP10 OR SWAP1 SWAP2 SSTORE SWAP4 DUP4 MSTORE DUP2 DUP6 KECCAK256 DUP7 DUP7 MSTORE DUP4 MSTORE DUP2 DUP6 KECCAK256 DUP1 SLOAD DUP6 AND DUP9 OR SWAP1 SSTORE PUSH1 0x4 DUP1 SLOAD PUSH1 0x1 DUP2 ADD DUP3 SSTORE SWAP6 DUP2 SWAP1 MSTORE PUSH32 0x8A35ACFBC15FF81A39AE7D344FD709F28E8600B4AA8C65C6B64BFE7FE36BD19B SWAP1 SWAP6 ADD DUP1 SLOAD SWAP1 SWAP5 AND DUP8 OR SWAP1 SWAP4 SSTORE SWAP3 SLOAD DUP4 MLOAD SWAP6 DUP7 MSTORE SWAP1 DUP6 ADD MSTORE SWAP4 SWAP7 POP SWAP1 SWAP2 PUSH32 0xD3648BD0F6BA80134A33BA9275AC585D9D315F0AD8355CDDEFDE31AFA28D0E9 SWAP2 ADD PUSH1 0x40 MLOAD DUP1 SWAP2 SUB SWAP1 LOG3 POP POP SWAP3 SWAP2 POP POP JUMP JUMPDEST PUSH1 0x1 SLOAD PUSH1 0x1 PUSH1 0x1 PUSH1 0xA0 SHL SUB AND CALLER EQ PUSH2 0x580 JUMPI PUSH1 0x40 MLOAD PUSH3 0x461BCD PUSH1 0xE5 SHL DUP2 MSTORE PUSH1 0x20 PUSH1 0x4 DUP3 ADD MSTORE PUSH1 0x14 PUSH1 0x24 DUP3 ADD MSTORE PUSH32 0x556E697377617056323A20464F5242494444454E000000000000000000000000 PUSH1 0x44 DUP3 ADD MSTORE PUSH1 0x64 ADD PUSH2 0x28B JUMP JUMPDEST PUSH1 0x0 DUP1 SLOAD PUSH20 0xFFFFFFFFFFFFFFFFFFFFFFFFFFFFFFFFFFFFFFFF NOT AND PUSH1 0x1 PUSH1 0x1 PUSH1 0xA0 SHL SUB SWAP3 SWAP1 SWAP3 AND SWAP2 SWAP1 SWAP2 OR SWAP1 SSTORE JUMP JUMPDEST PUSH2 0x2198 DUP1 PUSH2 0x647 DUP4 CODECOPY ADD SWAP1 JUMP JUMPDEST PUSH1 0x0 PUSH1 0x20 DUP3 DUP5 SUB SLT ISZERO PUSH2 0x5CE JUMPI PUSH1 0x0 DUP1 REVERT JUMPDEST POP CALLDATALOAD SWAP2 SWAP1 POP JUMP JUMPDEST DUP1 CALLDATALOAD PUSH1 0x1 PUSH1 0x1 PUSH1 0xA0 SHL SUB DUP2 AND DUP2 EQ PUSH2 0x5EC JUMPI PUSH1 0x0 DUP1 REVERT JUMPDEST SWAP2 SWAP1 POP JUMP JUMPDEST PUSH1 0x0 PUSH1 0x20 DUP3 DUP5 SUB SLT ISZERO PUSH2 0x603 JUMPI PUSH1 0x0 DUP1 REVERT JUMPDEST PUSH2 0x60C DUP3 PUSH2 0x5D5 JUMP JUMPDEST SWAP4 SWAP3 POP POP POP JUMP JUMPDEST PUSH1 0x0 DUP1 PUSH1 0x40 DUP4 DUP6 SUB SLT ISZERO PUSH2 0x626 JUMPI PUSH1 0x0 DUP1 REVERT JUMPDEST PUSH2 0x62F DUP4 PUSH2 0x5D5 JUMP JUMPDEST SWAP2 POP PUSH2 0x63D PUSH1 0x20 DUP5 ADD PUSH2 0x5D5 JUMP JUMPDEST SWAP1 POP SWAP3 POP SWAP3 SWAP1 POP JUMP INVALID PUSH1 0x1 PUSH1 0x10 DUP2 SWAP1 SSTORE PUSH1 0xA PUSH1 0x80 MSTORE PUSH10 0x2AB734B9BBB0B8102B19 PUSH1 0xB1 SHL PUSH1 0xA0 SWAP1 DUP2 MSTORE PUSH1 0xC0 SWAP2 SWAP1 SWAP2 MSTORE PUSH1 0x31 PUSH1 0xF8 SHL PUSH1 0xE0 MSTORE PUSH32 0x8B73C3C69BB8FE3D512ECC4CF759CC79239F7B179B0FFACAA9A75D522B39400F PUSH2 0x120 SWAP1 DUP2 MSTORE PUSH32 0xBFCC8EF98FFBF7B6C3FEC7BF5185B566B9863E35A9D83ACD49AD6824B5969738 PUSH2 0x140 MSTORE PUSH32 0xC89EFDAA54C0F20C7ADF612882DF0950F5A951637E0307CDCB4C672F298B8BC6 PUSH2 0x160 MSTORE PUSH1 0x0 PUSH2 0x180 DUP2 SWAP1 MSTORE ADDRESS PUSH2 0x1A0 MSTORE PUSH2 0x100 DUP4 SWAP1 MSTORE PUSH2 0x1C0 PUSH1 0x40 MSTORE SWAP2 SWAP1 KECCAK256 PUSH1 0x3 SSTORE PUSH1 0x7 DUP1 SLOAD PUSH1 0x1 PUSH1 0x1 PUSH1 0xA0 SHL SUB NOT AND CALLER OR SWAP1 SSTORE PUSH2 0x20BA SWAP1 DUP2 SWAP1 PUSH2 0xDE SWAP1 CODECOPY PUSH1 0x0 RETURN INVALID PUSH1 0x80 PUSH1 0x40 MSTORE PUSH1 0x4 CALLDATASIZE LT PUSH2 0x1E7 JUMPI PUSH1 0x0 CALLDATALOAD PUSH1 0xE0 SHR DUP1 PUSH4 0x70A08231 GT PUSH2 0x102 JUMPI DUP1 PUSH4 0xBA9A7A56 GT PUSH2 0x95 JUMPI DUP1 PUSH4 0xD505ACCF GT PUSH2 0x64 JUMPI DUP1 PUSH4 0xD505ACCF EQ PUSH2 0x5CC JUMPI DUP1 PUSH4 0xDD62ED3E EQ PUSH2 0x5DF JUMPI DUP1 PUSH4 0xF81FB785 EQ PUSH2 0x617 JUMPI DUP1 PUSH4 0xFFF6CAE9 EQ PUSH2 0x62D JUMPI PUSH1 0x0 DUP1 REVERT JUMPDEST DUP1 PUSH4 0xBA9A7A56 EQ PUSH2 0x563 JUMPI DUP1 PUSH4 0xBC25CF77 EQ PUSH2 0x579 JUMPI DUP1 PUSH4 0xC45A0155 EQ PUSH2 0x58C JUMPI DUP1 PUSH4 0xD21220A7 EQ PUSH2 0x5AC JUMPI PUSH1 0x0 DUP1 REVERT JUMPDEST DUP1 PUSH4 0x95D89B41 GT PUSH2 0xD1 JUMPI DUP1 PUSH4 0x95D89B41 EQ PUSH2 0x4D4 JUMPI DUP1 PUSH4 0x9702CD8E EQ PUSH2 0x51D JUMPI DUP1 PUSH4 0xA87CFC12 EQ PUSH2 0x530 JUMPI DUP1 PUSH4 0xA9059CBB EQ PUSH2 0x550 JUMPI PUSH1 0x0 DUP1 REVERT JUMPDEST DUP1 PUSH4 0x70A08231 EQ PUSH2 0x451 JUMPI DUP1 PUSH4 0x7464FC3D EQ PUSH2 0x47E JUMPI DUP1 PUSH4 0x7ECEBE00 EQ PUSH2 0x494 JUMPI DUP1 PUSH4 0x89AFCB44 EQ PUSH2 0x4C1 JUMPI PUSH1 0x0 DUP1 REVERT JUMPDEST DUP1 PUSH4 0x313CE567 GT PUSH2 0x17A JUMPI DUP1 PUSH4 0x5909C0D5 GT PUSH2 0x149 JUMPI DUP1 PUSH4 0x5909C0D5 EQ PUSH2 0x3F2 JUMPI DUP1 PUSH4 0x5A3D5493 EQ PUSH2 0x408 JUMPI DUP1 PUSH4 0x5FCBD285 EQ PUSH2 0x41E JUMPI DUP1 PUSH4 0x6A627842 EQ PUSH2 0x43E JUMPI PUSH1 0x0 DUP1 REVERT JUMPDEST DUP1 PUSH4 0x313CE567 EQ PUSH2 0x356 JUMPI DUP1 PUSH4 0x3644E515 EQ PUSH2 0x37D JUMPI DUP1 PUSH4 0x485CC955 EQ PUSH2 0x393 JUMPI DUP1 PUSH4 0x54429AA9 EQ PUSH2 0x3DC JUMPI PUSH1 0x0 DUP1 REVERT JUMPDEST DUP1 PUSH4 0xDFE1681 GT PUSH2 0x1B6 JUMPI DUP1 PUSH4 0xDFE1681 EQ PUSH2 0x2B3 JUMPI DUP1 PUSH4 0x18160DDD EQ PUSH2 0x2EB JUMPI DUP1 PUSH4 0x23B872DD EQ PUSH2 0x30F JUMPI DUP1 PUSH4 0x30ADF81F EQ PUSH2 0x322 JUMPI PUSH1 0x0 DUP1 REVERT JUMPDEST DUP1 PUSH4 0x22C0D9F EQ PUSH2 0x1F3 JUMPI DUP1 PUSH4 0x6FDDE03 EQ PUSH2 0x208 JUMPI DUP1 PUSH4 0x902F1AC EQ PUSH2 0x267 JUMPI DUP1 PUSH4 0x95EA7B3 EQ PUSH2 0x290 JUMPI PUSH1 0x0 DUP1 REVERT JUMPDEST CALLDATASIZE PUSH2 0x1EE JUMPI STOP JUMPDEST PUSH1 0x0 DUP1 REVERT JUMPDEST PUSH2 0x206 PUSH2 0x201 CALLDATASIZE PUSH1 0x4 PUSH2 0x1AD9 JUMP JUMPDEST PUSH2 0x635 JUMP JUMPDEST STOP JUMPDEST CALLVALUE DUP1 ISZERO PUSH2 0x214 JUMPI PUSH1 0x0 DUP1 REVERT JUMPDEST POP PUSH2 0x251 PUSH1 0x40 MLOAD DUP1 PUSH1 0x40 ADD PUSH1 0x40 MSTORE DUP1 PUSH1 0xA DUP2 MSTORE PUSH1 0x20 ADD PUSH32 0x556E697377617020563200000000000000000000000000000000000000000000 DUP2 MSTORE POP DUP2 JUMP JUMPDEST PUSH1 0x40 MLOAD PUSH2 0x25E SWAP2 SWAP1 PUSH2 0x1BBF JUMP JUMPDEST PUSH1 0x40 MLOAD DUP1 SWAP2 SUB SWAP1 RETURN JUMPDEST CALLVALUE DUP1 ISZERO PUSH2 0x273 JUMPI PUSH1 0x0 DUP1 REVERT JUMPDEST POP PUSH1 0xA SLOAD PUSH1 0xB SLOAD JUMPDEST PUSH1 0x40 DUP1 MLOAD SWAP3 DUP4 MSTORE PUSH1 0x20 DUP4 ADD SWAP2 SWAP1 SWAP2 MSTORE ADD PUSH2 0x25E JUMP JUMPDEST PUSH2 0x2A3 PUSH2 0x29E CALLDATASIZE PUSH1 0x4 PUSH2 0x1BD2 JUMP JUMPDEST PUSH2 0xCC0 JUMP JUMPDEST PUSH1 0x40 MLOAD SWAP1 ISZERO ISZERO DUP2 MSTORE PUSH1 0x20 ADD PUSH2 0x25E JUMP JUMPDEST CALLVALUE DUP1 ISZERO PUSH2 0x2BF JUMPI PUSH1 0x0 DUP1 REVERT JUMPDEST POP PUSH1 0x8 SLOAD PUSH2 0x2D3 SWAP1 PUSH1 0x1 PUSH1 0x1 PUSH1 0xA0 SHL SUB AND DUP2 JUMP JUMPDEST PUSH1 0x40 MLOAD PUSH1 0x1 PUSH1 0x1 PUSH1 0xA0 SHL SUB SWAP1 SWAP2 AND DUP2 MSTORE PUSH1 0x20 ADD PUSH2 0x25E JUMP JUMPDEST CALLVALUE DUP1 ISZERO PUSH2 0x2F7 JUMPI PUSH1 0x0 DUP1 REVERT JUMPDEST POP PUSH2 0x301 PUSH1 0x0 SLOAD DUP2 JUMP JUMPDEST PUSH1 0x40 MLOAD SWAP1 DUP2 MSTORE PUSH1 0x20 ADD PUSH2 0x25E JUMP JUMPDEST PUSH2 0x2A3 PUSH2 0x31D CALLDATASIZE PUSH1 0x4 PUSH2 0x1BFE JUMP JUMPDEST PUSH2 0xCD7 JUMP JUMPDEST CALLVALUE DUP1 ISZERO PUSH2 0x32E JUMPI PUSH1 0x0 DUP1 REVERT JUMPDEST POP PUSH2 0x301 PUSH32 0x6E71EDAE12B1B97F4D1F60370FEF10105FA2FAAE0126114A169C64845D6126C9 DUP2 JUMP JUMPDEST CALLVALUE DUP1 ISZERO PUSH2 0x362 JUMPI PUSH1 0x0 DUP1 REVERT JUMPDEST POP PUSH2 0x36B PUSH1 0x12 DUP2 JUMP JUMPDEST PUSH1 0x40 MLOAD PUSH1 0xFF SWAP1 SWAP2 AND DUP2 MSTORE PUSH1 0x20 ADD PUSH2 0x25E JUMP JUMPDEST CALLVALUE DUP1 ISZERO PUSH2 0x389 JUMPI PUSH1 0x0 DUP1 REVERT JUMPDEST POP PUSH2 0x301 PUSH1 0x3 SLOAD DUP2 JUMP JUMPDEST PUSH2 0x206 PUSH2 0x3A1 CALLDATASIZE PUSH1 0x4 PUSH2 0x1C3F JUMP JUMPDEST PUSH1 0x8 DUP1 SLOAD PUSH1 0x1 PUSH1 0x1 PUSH1 0xA0 SHL SUB SWAP4 DUP5 AND PUSH20 0xFFFFFFFFFFFFFFFFFFFFFFFFFFFFFFFFFFFFFFFF NOT SWAP2 DUP3 AND OR SWAP1 SWAP2 SSTORE PUSH1 0x9 DUP1 SLOAD SWAP3 SWAP1 SWAP4 AND SWAP2 AND OR SWAP1 SSTORE JUMP JUMPDEST CALLVALUE DUP1 ISZERO PUSH2 0x3E8 JUMPI PUSH1 0x0 DUP1 REVERT JUMPDEST POP PUSH2 0x301 PUSH1 0x11 SLOAD DUP2 JUMP JUMPDEST CALLVALUE DUP1 ISZERO PUSH2 0x3FE JUMPI PUSH1 0x0 DUP1 REVERT JUMPDEST POP PUSH2 0x301 PUSH1 0xD SLOAD DUP2 JUMP JUMPDEST CALLVALUE DUP1 ISZERO PUSH2 0x414 JUMPI PUSH1 0x0 DUP1 REVERT JUMPDEST POP PUSH2 0x301 PUSH1 0xE SLOAD DUP2 JUMP JUMPDEST CALLVALUE DUP1 ISZERO PUSH2 0x42A JUMPI PUSH1 0x0 DUP1 REVERT JUMPDEST POP PUSH1 0x6 SLOAD PUSH2 0x2D3 SWAP1 PUSH1 0x1 PUSH1 0x1 PUSH1 0xA0 SHL SUB AND DUP2 JUMP JUMPDEST PUSH2 0x301 PUSH2 0x44C CALLDATASIZE PUSH1 0x4 PUSH2 0x1C78 JUMP JUMPDEST PUSH2 0xD68 JUMP JUMPDEST CALLVALUE DUP1 ISZERO PUSH2 0x45D JUMPI PUSH1 0x0 DUP1 REVERT JUMPDEST POP PUSH2 0x301 PUSH2 0x46C CALLDATASIZE PUSH1 0x4 PUSH2 0x1C78 JUMP JUMPDEST PUSH1 0x1 PUSH1 0x20 MSTORE PUSH1 0x0 SWAP1 DUP2 MSTORE PUSH1 0x40 SWAP1 KECCAK256 SLOAD DUP2 JUMP JUMPDEST CALLVALUE DUP1 ISZERO PUSH2 0x48A JUMPI PUSH1 0x0 DUP1 REVERT JUMPDEST POP PUSH2 0x301 PUSH1 0xF SLOAD DUP2 JUMP JUMPDEST CALLVALUE DUP1 ISZERO PUSH2 0x4A0 JUMPI PUSH1 0x0 DUP1 REVERT JUMPDEST POP PUSH2 0x301 PUSH2 0x4AF CALLDATASIZE PUSH1 0x4 PUSH2 0x1C78 JUMP JUMPDEST PUSH1 0x4 PUSH1 0x20 MSTORE PUSH1 0x0 SWAP1 DUP2 MSTORE PUSH1 0x40 SWAP1 KECCAK256 SLOAD DUP2 JUMP JUMPDEST PUSH2 0x27B PUSH2 0x4CF CALLDATASIZE PUSH1 0x4 PUSH2 0x1C78 JUMP JUMPDEST PUSH2 0x1139 JUMP JUMPDEST CALLVALUE DUP1 ISZERO PUSH2 0x4E0 JUMPI PUSH1 0x0 DUP1 REVERT JUMPDEST POP PUSH2 0x251 PUSH1 0x40 MLOAD DUP1 PUSH1 0x40 ADD PUSH1 0x40 MSTORE DUP1 PUSH1 0x6 DUP2 MSTORE PUSH1 0x20 ADD PUSH32 0x554E492D56320000000000000000000000000000000000000000000000000000 DUP2 MSTORE POP DUP2 JUMP JUMPDEST PUSH2 0x206 PUSH2 0x52B CALLDATASIZE PUSH1 0x4 PUSH2 0x1C78 JUMP JUMPDEST PUSH2 0x119A JUMP JUMPDEST CALLVALUE DUP1 ISZERO PUSH2 0x53C JUMPI PUSH1 0x0 DUP1 REVERT JUMPDEST POP PUSH1 0x5 SLOAD PUSH2 0x2D3 SWAP1 PUSH1 0x1 PUSH1 0x1 PUSH1 0xA0 SHL SUB AND DUP2 JUMP JUMPDEST PUSH2 0x2A3 PUSH2 0x55E CALLDATASIZE PUSH1 0x4 PUSH2 0x1BD2 JUMP JUMPDEST PUSH2 0x13B7 JUMP JUMPDEST CALLVALUE DUP1 ISZERO PUSH2 0x56F JUMPI PUSH1 0x0 DUP1 REVERT JUMPDEST POP PUSH2 0x301 PUSH2 0x3E8 DUP2 JUMP JUMPDEST PUSH2 0x206 PUSH2 0x587 CALLDATASIZE PUSH1 0x4 PUSH2 0x1C78 JUMP JUMPDEST PUSH2 0x13C4 JUMP JUMPDEST CALLVALUE DUP1 ISZERO PUSH2 0x598 JUMPI PUSH1 0x0 DUP1 REVERT JUMPDEST POP PUSH1 0x7 SLOAD PUSH2 0x2D3 SWAP1 PUSH1 0x1 PUSH1 0x1 PUSH1 0xA0 SHL SUB AND DUP2 JUMP JUMPDEST CALLVALUE DUP1 ISZERO PUSH2 0x5B8 JUMPI PUSH1 0x0 DUP1 REVERT JUMPDEST POP PUSH1 0x9 SLOAD PUSH2 0x2D3 SWAP1 PUSH1 0x1 PUSH1 0x1 PUSH1 0xA0 SHL SUB AND DUP2 JUMP JUMPDEST PUSH2 0x206 PUSH2 0x5DA CALLDATASIZE PUSH1 0x4 PUSH2 0x1CA4 JUMP JUMPDEST PUSH2 0x141E JUMP JUMPDEST CALLVALUE DUP1 ISZERO PUSH2 0x5EB JUMPI PUSH1 0x0 DUP1 REVERT JUMPDEST POP PUSH2 0x301 PUSH2 0x5FA CALLDATASIZE PUSH1 0x4 PUSH2 0x1C3F JUMP JUMPDEST PUSH1 0x2 PUSH1 0x20 SWAP1 DUP2 MSTORE PUSH1 0x0 SWAP3 DUP4 MSTORE PUSH1 0x40 DUP1 DUP5 KECCAK256 SWAP1 SWAP2 MSTORE SWAP1 DUP3 MSTORE SWAP1 KECCAK256 SLOAD DUP2 JUMP JUMPDEST CALLVALUE DUP1 ISZERO PUSH2 0x623 JUMPI PUSH1 0x0 DUP1 REVERT JUMPDEST POP PUSH2 0x301 PUSH1 0x12 SLOAD DUP2 JUMP JUMPDEST PUSH2 0x206 PUSH2 0x1658 JUMP JUMPDEST PUSH1 0x10 SLOAD PUSH1 0x1 EQ PUSH2 0x68C JUMPI PUSH1 0x40 MLOAD PUSH3 0x461BCD PUSH1 0xE5 SHL DUP2 MSTORE PUSH1 0x20 PUSH1 0x4 DUP3 ADD MSTORE PUSH1 0x11 PUSH1 0x24 DUP3 ADD MSTORE PUSH32 0x556E697377617056323A204C4F434B4544000000000000000000000000000000 PUSH1 0x44 DUP3 ADD MSTORE PUSH1 0x64 ADD JUMPDEST PUSH1 0x40 MLOAD DUP1 SWAP2 SUB SWAP1 REVERT JUMPDEST PUSH1 0x0 PUSH1 0x10 SSTORE DUP5 ISZERO ISZERO DUP1 PUSH2 0x69F JUMPI POP PUSH1 0x0 DUP5 GT JUMPDEST PUSH2 0x711 JUMPI PUSH1 0x40 MLOAD PUSH3 0x461BCD PUSH1 0xE5 SHL DUP2 MSTORE PUSH1 0x20 PUSH1 0x4 DUP3 ADD MSTORE PUSH1 0x25 PUSH1 0x24 DUP3 ADD MSTORE PUSH32 0x556E697377617056323A20494E53554646494349454E545F4F55545055545F41 PUSH1 0x44 DUP3 ADD MSTORE PUSH32 0x4D4F554E54000000000000000000000000000000000000000000000000000000 PUSH1 0x64 DUP3 ADD MSTORE PUSH1 0x84 ADD PUSH2 0x683 JUMP JUMPDEST PUSH1 0x0 DUP1 PUSH2 0x721 PUSH1 0xA SLOAD PUSH1 0xB SLOAD SWAP1 SWAP2 JUMP JUMPDEST SWAP2 POP SWAP2 POP DUP2 DUP8 LT DUP1 ISZERO PUSH2 0x733 JUMPI POP DUP1 DUP7 LT JUMPDEST PUSH2 0x7A5 JUMPI PUSH1 0x40 MLOAD PUSH3 0x461BCD PUSH1 0xE5 SHL DUP2 MSTORE PUSH1 0x20 PUSH1 0x4 DUP3 ADD MSTORE PUSH1 0x21 PUSH1 0x24 DUP3 ADD MSTORE PUSH32 0x556E697377617056323A20494E53554646494349454E545F4C49515549444954 PUSH1 0x44 DUP3 ADD MSTORE PUSH32 0x5900000000000000000000000000000000000000000000000000000000000000 PUSH1 0x64 DUP3 ADD MSTORE PUSH1 0x84 ADD PUSH2 0x683 JUMP JUMPDEST PUSH1 0x5 SLOAD PUSH1 0x8 SLOAD PUSH1 0x40 MLOAD PUSH4 0x3DE222BB PUSH1 0xE2 SHL DUP2 MSTORE PUSH1 0x1 PUSH1 0x1 PUSH1 0xA0 SHL SUB SWAP2 DUP3 AND PUSH1 0x4 DUP3 ADD MSTORE ADDRESS PUSH1 0x24 DUP3 ADD MSTORE PUSH1 0x0 SWAP3 DUP4 SWAP3 AND SWAP1 PUSH4 0xF7888AEC SWAP1 PUSH1 0x44 ADD PUSH1 0x20 PUSH1 0x40 MLOAD DUP1 DUP4 SUB DUP2 PUSH1 0x0 DUP8 GAS CALL ISZERO DUP1 ISZERO PUSH2 0x7FD JUMPI RETURNDATASIZE PUSH1 0x0 DUP1 RETURNDATACOPY RETURNDATASIZE PUSH1 0x0 REVERT JUMPDEST POP POP POP POP PUSH1 0x40 MLOAD RETURNDATASIZE PUSH1 0x1F NOT PUSH1 0x1F DUP3 ADD AND DUP3 ADD DUP1 PUSH1 0x40 MSTORE POP DUP2 ADD SWAP1 PUSH2 0x821 SWAP2 SWAP1 PUSH2 0x1D15 JUMP JUMPDEST PUSH1 0x5 SLOAD PUSH1 0x9 SLOAD PUSH1 0x40 MLOAD PUSH4 0x3DE222BB PUSH1 0xE2 SHL DUP2 MSTORE PUSH1 0x1 PUSH1 0x1 PUSH1 0xA0 SHL SUB SWAP2 DUP3 AND PUSH1 0x4 DUP3 ADD MSTORE ADDRESS PUSH1 0x24 DUP3 ADD MSTORE SWAP3 SWAP5 POP AND SWAP1 PUSH4 0xF7888AEC SWAP1 PUSH1 0x44 ADD PUSH1 0x20 PUSH1 0x40 MLOAD DUP1 DUP4 SUB DUP2 PUSH1 0x0 DUP8 GAS CALL ISZERO DUP1 ISZERO PUSH2 0x877 JUMPI RETURNDATASIZE PUSH1 0x0 DUP1 RETURNDATACOPY RETURNDATASIZE PUSH1 0x0 REVERT JUMPDEST POP POP POP POP PUSH1 0x40 MLOAD RETURNDATASIZE PUSH1 0x1F NOT PUSH1 0x1F DUP3 ADD AND DUP3 ADD DUP1 PUSH1 0x40 MSTORE POP DUP2 ADD SWAP1 PUSH2 0x89B SWAP2 SWAP1 PUSH2 0x1D15 JUMP JUMPDEST PUSH1 0x11 DUP4 SWAP1 SSTORE PUSH1 0x12 DUP2 SWAP1 SSTORE PUSH1 0x8 SLOAD PUSH1 0x9 SLOAD SWAP2 SWAP3 POP PUSH1 0x1 PUSH1 0x1 PUSH1 0xA0 SHL SUB SWAP1 DUP2 AND SWAP2 DUP2 AND SWAP1 DUP10 AND DUP3 EQ DUP1 ISZERO SWAP1 PUSH2 0x8E0 JUMPI POP DUP1 PUSH1 0x1 PUSH1 0x1 PUSH1 0xA0 SHL SUB AND DUP10 PUSH1 0x1 PUSH1 0x1 PUSH1 0xA0 SHL SUB AND EQ ISZERO JUMPDEST PUSH2 0x92C JUMPI PUSH1 0x40 MLOAD PUSH3 0x461BCD PUSH1 0xE5 SHL DUP2 MSTORE PUSH1 0x20 PUSH1 0x4 DUP3 ADD MSTORE PUSH1 0x15 PUSH1 0x24 DUP3 ADD MSTORE PUSH32 0x556E697377617056323A20494E56414C49445F544F0000000000000000000000 PUSH1 0x44 DUP3 ADD MSTORE PUSH1 0x64 ADD PUSH2 0x683 JUMP JUMPDEST DUP11 ISZERO PUSH2 0x93D JUMPI PUSH2 0x93D DUP3 DUP11 DUP14 PUSH2 0x16B1 JUMP JUMPDEST DUP10 ISZERO PUSH2 0x94E JUMPI PUSH2 0x94E DUP2 DUP11 DUP13 PUSH2 0x16B1 JUMP JUMPDEST DUP7 ISZERO PUSH2 0x9D4 JUMPI PUSH1 0x40 MLOAD PUSH32 0x10D1E85C00000000000000000000000000000000000000000000000000000000 DUP2 MSTORE PUSH1 0x1 PUSH1 0x1 PUSH1 0xA0 SHL SUB DUP11 AND SWAP1 PUSH4 0x10D1E85C SWAP1 PUSH2 0x9A1 SWAP1 CALLER SWAP1 DUP16 SWAP1 DUP16 SWAP1 DUP15 SWAP1 DUP15 SWAP1 PUSH1 0x4 ADD PUSH2 0x1D2E JUMP JUMPDEST PUSH1 0x0 PUSH1 0x40 MLOAD DUP1 DUP4 SUB DUP2 PUSH1 0x0 DUP8 DUP1 EXTCODESIZE ISZERO DUP1 ISZERO PUSH2 0x9BB JUMPI PUSH1 0x0 DUP1 REVERT JUMPDEST POP GAS CALL ISZERO DUP1 ISZERO PUSH2 0x9CF JUMPI RETURNDATASIZE PUSH1 0x0 DUP1 RETURNDATACOPY RETURNDATASIZE PUSH1 0x0 REVERT JUMPDEST POP POP POP POP JUMPDEST PUSH1 0x5 SLOAD PUSH1 0x40 MLOAD PUSH4 0x3DE222BB PUSH1 0xE2 SHL DUP2 MSTORE PUSH1 0x1 PUSH1 0x1 PUSH1 0xA0 SHL SUB DUP5 DUP2 AND PUSH1 0x4 DUP4 ADD MSTORE ADDRESS PUSH1 0x24 DUP4 ADD MSTORE SWAP1 SWAP2 AND SWAP1 PUSH4 0xF7888AEC SWAP1 PUSH1 0x44 ADD PUSH1 0x20 PUSH1 0x40 MLOAD DUP1 DUP4 SUB DUP2 PUSH1 0x0 DUP8 GAS CALL ISZERO DUP1 ISZERO PUSH2 0xA26 JUMPI RETURNDATASIZE PUSH1 0x0 DUP1 RETURNDATACOPY RETURNDATASIZE PUSH1 0x0 REVERT JUMPDEST POP POP POP POP PUSH1 0x40 MLOAD RETURNDATASIZE PUSH1 0x1F NOT PUSH1 0x1F DUP3 ADD AND DUP3 ADD DUP1 PUSH1 0x40 MSTORE POP DUP2 ADD SWAP1 PUSH2 0xA4A SWAP2 SWAP1 PUSH2 0x1D15 JUMP JUMPDEST PUSH1 0x5 SLOAD PUSH1 0x40 MLOAD PUSH4 0x3DE222BB PUSH1 0xE2 SHL DUP2 MSTORE PUSH1 0x1 PUSH1 0x1 PUSH1 0xA0 SHL SUB DUP5 DUP2 AND PUSH1 0x4 DUP4 ADD MSTORE ADDRESS PUSH1 0x24 DUP4 ADD MSTORE SWAP3 SWAP7 POP SWAP2 AND SWAP1 PUSH4 0xF7888AEC SWAP1 PUSH1 0x44 ADD PUSH1 0x20 PUSH1 0x40 MLOAD DUP1 DUP4 SUB DUP2 PUSH1 0x0 DUP8 GAS CALL ISZERO DUP1 ISZERO PUSH2 0xA9E JUMPI RETURNDATASIZE PUSH1 0x0 DUP1 RETURNDATACOPY RETURNDATASIZE PUSH1 0x0 REVERT JUMPDEST POP POP POP POP PUSH1 0x40 MLOAD RETURNDATASIZE PUSH1 0x1F NOT PUSH1 0x1F DUP3 ADD AND DUP3 ADD DUP1 PUSH1 0x40 MSTORE POP DUP2 ADD SWAP1 PUSH2 0xAC2 SWAP2 SWAP1 PUSH2 0x1D15 JUMP JUMPDEST SWAP3 POP POP POP PUSH1 0x0 DUP10 DUP6 PUSH2 0xAD4 SWAP2 SWAP1 PUSH2 0x1D91 JUMP JUMPDEST DUP4 GT PUSH2 0xAE1 JUMPI PUSH1 0x0 PUSH2 0xAF5 JUMP JUMPDEST PUSH2 0xAEB DUP11 DUP7 PUSH2 0x1D91 JUMP JUMPDEST PUSH2 0xAF5 SWAP1 DUP5 PUSH2 0x1D91 JUMP JUMPDEST SWAP1 POP PUSH1 0x0 PUSH2 0xB03 DUP11 DUP7 PUSH2 0x1D91 JUMP JUMPDEST DUP4 GT PUSH2 0xB10 JUMPI PUSH1 0x0 PUSH2 0xB24 JUMP JUMPDEST PUSH2 0xB1A DUP11 DUP7 PUSH2 0x1D91 JUMP JUMPDEST PUSH2 0xB24 SWAP1 DUP5 PUSH2 0x1D91 JUMP JUMPDEST SWAP1 POP PUSH1 0x0 DUP3 GT DUP1 PUSH2 0xB35 JUMPI POP PUSH1 0x0 DUP2 GT JUMPDEST PUSH2 0xBA6 JUMPI PUSH1 0x40 MLOAD PUSH3 0x461BCD PUSH1 0xE5 SHL DUP2 MSTORE PUSH1 0x20 PUSH1 0x4 DUP3 ADD MSTORE PUSH1 0x24 DUP1 DUP3 ADD MSTORE PUSH32 0x556E697377617056323A20494E53554646494349454E545F494E5055545F414D PUSH1 0x44 DUP3 ADD MSTORE PUSH32 0x4F554E5400000000000000000000000000000000000000000000000000000000 PUSH1 0x64 DUP3 ADD MSTORE PUSH1 0x84 ADD PUSH2 0x683 JUMP JUMPDEST PUSH1 0x0 PUSH2 0xBC8 PUSH2 0xBB6 DUP5 PUSH1 0x3 PUSH2 0x173D JUMP JUMPDEST PUSH2 0xBC2 DUP8 PUSH2 0x3E8 PUSH2 0x173D JUMP JUMPDEST SWAP1 PUSH2 0x17AD JUMP JUMPDEST SWAP1 POP PUSH1 0x0 PUSH2 0xBDA PUSH2 0xBB6 DUP5 PUSH1 0x3 PUSH2 0x173D JUMP JUMPDEST SWAP1 POP PUSH2 0xBF3 PUSH3 0xF4240 PUSH2 0xBED DUP11 DUP11 PUSH2 0x173D JUMP JUMPDEST SWAP1 PUSH2 0x173D JUMP JUMPDEST PUSH2 0xBFD DUP4 DUP4 PUSH2 0x173D JUMP JUMPDEST LT ISZERO PUSH2 0xC4B JUMPI PUSH1 0x40 MLOAD PUSH3 0x461BCD PUSH1 0xE5 SHL DUP2 MSTORE PUSH1 0x20 PUSH1 0x4 DUP3 ADD MSTORE PUSH1 0xC PUSH1 0x24 DUP3 ADD MSTORE PUSH32 0x556E697377617056323A204B0000000000000000000000000000000000000000 PUSH1 0x44 DUP3 ADD MSTORE PUSH1 0x64 ADD PUSH2 0x683 JUMP JUMPDEST POP POP PUSH2 0xC59 DUP5 DUP5 DUP9 DUP9 PUSH2 0x180B JUMP JUMPDEST PUSH1 0x40 DUP1 MLOAD DUP4 DUP2 MSTORE PUSH1 0x20 DUP2 ADD DUP4 SWAP1 MSTORE SWAP1 DUP2 ADD DUP13 SWAP1 MSTORE PUSH1 0x60 DUP2 ADD DUP12 SWAP1 MSTORE PUSH1 0x1 PUSH1 0x1 PUSH1 0xA0 SHL SUB DUP11 AND SWAP1 CALLER SWAP1 PUSH32 0xD78AD95FA46C994B6551D0DA85FC275FE613CE37657FB8D5E3D130840159D822 SWAP1 PUSH1 0x80 ADD PUSH1 0x40 MLOAD DUP1 SWAP2 SUB SWAP1 LOG3 POP POP PUSH1 0x1 PUSH1 0x10 SSTORE POP POP POP POP POP POP POP POP POP JUMP JUMPDEST PUSH1 0x0 PUSH2 0xCCD CALLER DUP5 DUP5 PUSH2 0x18D3 JUMP JUMPDEST POP PUSH1 0x1 JUMPDEST SWAP3 SWAP2 POP POP JUMP JUMPDEST PUSH1 0x1 PUSH1 0x1 PUSH1 0xA0 SHL SUB DUP4 AND PUSH1 0x0 SWAP1 DUP2 MSTORE PUSH1 0x2 PUSH1 0x20 SWAP1 DUP2 MSTORE PUSH1 0x40 DUP1 DUP4 KECCAK256 CALLER DUP5 MSTORE SWAP1 SWAP2 MSTORE DUP2 KECCAK256 SLOAD ISZERO PUSH2 0xD53 JUMPI PUSH1 0x1 PUSH1 0x1 PUSH1 0xA0 SHL SUB DUP5 AND PUSH1 0x0 SWAP1 DUP2 MSTORE PUSH1 0x2 PUSH1 0x20 SWAP1 DUP2 MSTORE PUSH1 0x40 DUP1 DUP4 KECCAK256 CALLER DUP5 MSTORE SWAP1 SWAP2 MSTORE SWAP1 KECCAK256 SLOAD PUSH2 0xD2E SWAP1 DUP4 PUSH2 0x17AD JUMP JUMPDEST PUSH1 0x1 PUSH1 0x1 PUSH1 0xA0 SHL SUB DUP6 AND PUSH1 0x0 SWAP1 DUP2 MSTORE PUSH1 0x2 PUSH1 0x20 SWAP1 DUP2 MSTORE PUSH1 0x40 DUP1 DUP4 KECCAK256 CALLER DUP5 MSTORE SWAP1 SWAP2 MSTORE SWAP1 KECCAK256 SSTORE JUMPDEST PUSH2 0xD5E DUP5 DUP5 DUP5 PUSH2 0x1935 JUMP JUMPDEST POP PUSH1 0x1 SWAP4 SWAP3 POP POP POP JUMP JUMPDEST PUSH1 0x0 PUSH1 0x10 SLOAD PUSH1 0x1 EQ PUSH2 0xDBC JUMPI PUSH1 0x40 MLOAD PUSH3 0x461BCD PUSH1 0xE5 SHL DUP2 MSTORE PUSH1 0x20 PUSH1 0x4 DUP3 ADD MSTORE PUSH1 0x11 PUSH1 0x24 DUP3 ADD MSTORE PUSH32 0x556E697377617056323A204C4F434B4544000000000000000000000000000000 PUSH1 0x44 DUP3 ADD MSTORE PUSH1 0x64 ADD PUSH2 0x683 JUMP JUMPDEST PUSH1 0x0 PUSH1 0x10 DUP2 SWAP1 SSTORE DUP1 PUSH2 0xDD1 PUSH1 0xA SLOAD PUSH1 0xB SLOAD SWAP1 SWAP2 JUMP JUMPDEST PUSH1 0x5 SLOAD PUSH1 0x8 SLOAD PUSH1 0x40 MLOAD PUSH4 0x3DE222BB PUSH1 0xE2 SHL DUP2 MSTORE PUSH1 0x1 PUSH1 0x1 PUSH1 0xA0 SHL SUB SWAP2 DUP3 AND PUSH1 0x4 DUP3 ADD MSTORE ADDRESS PUSH1 0x24 DUP3 ADD MSTORE SWAP4 SWAP6 POP SWAP2 SWAP4 POP PUSH1 0x0 SWAP3 SWAP2 AND SWAP1 PUSH4 0xF7888AEC SWAP1 PUSH1 0x44 ADD PUSH1 0x20 PUSH1 0x40 MLOAD DUP1 DUP4 SUB DUP2 PUSH1 0x0 DUP8 GAS CALL ISZERO DUP1 ISZERO PUSH2 0xE2E JUMPI RETURNDATASIZE PUSH1 0x0 DUP1 RETURNDATACOPY RETURNDATASIZE PUSH1 0x0 REVERT JUMPDEST POP POP POP POP PUSH1 0x40 MLOAD RETURNDATASIZE PUSH1 0x1F NOT PUSH1 0x1F DUP3 ADD AND DUP3 ADD DUP1 PUSH1 0x40 MSTORE POP DUP2 ADD SWAP1 PUSH2 0xE52 SWAP2 SWAP1 PUSH2 0x1D15 JUMP JUMPDEST PUSH1 0x5 SLOAD PUSH1 0x9 SLOAD PUSH1 0x40 MLOAD PUSH4 0x3DE222BB PUSH1 0xE2 SHL DUP2 MSTORE PUSH1 0x1 PUSH1 0x1 PUSH1 0xA0 SHL SUB SWAP2 DUP3 AND PUSH1 0x4 DUP3 ADD MSTORE ADDRESS PUSH1 0x24 DUP3 ADD MSTORE SWAP3 SWAP4 POP PUSH1 0x0 SWAP3 SWAP2 AND SWAP1 PUSH4 0xF7888AEC SWAP1 PUSH1 0x44 ADD PUSH1 0x20 PUSH1 0x40 MLOAD DUP1 DUP4 SUB DUP2 PUSH1 0x0 DUP8 GAS CALL ISZERO DUP1 ISZERO PUSH2 0xEAC JUMPI RETURNDATASIZE PUSH1 0x0 DUP1 RETURNDATACOPY RETURNDATASIZE PUSH1 0x0 REVERT JUMPDEST POP POP POP POP PUSH1 0x40 MLOAD RETURNDATASIZE PUSH1 0x1F NOT PUSH1 0x1F DUP3 ADD AND DUP3 ADD DUP1 PUSH1 0x40 MSTORE POP DUP2 ADD SWAP1 PUSH2 0xED0 SWAP2 SWAP1 PUSH2 0x1D15 JUMP JUMPDEST SWAP1 POP PUSH1 0x0 PUSH2 0xEDE DUP4 DUP7 PUSH2 0x17AD JUMP JUMPDEST SWAP1 POP PUSH1 0x0 PUSH2 0xEEC DUP4 DUP7 PUSH2 0x17AD JUMP JUMPDEST PUSH1 0x0 DUP1 SLOAD SWAP2 SWAP3 POP DUP2 SWAP1 SUB PUSH2 0xFA2 JUMPI PUSH2 0xF12 PUSH2 0x3E8 PUSH2 0xBC2 PUSH2 0xF0D DUP7 DUP7 PUSH2 0x173D JUMP JUMPDEST PUSH2 0x19DB JUMP JUMPDEST PUSH1 0x5 SLOAD PUSH1 0x6 SLOAD PUSH1 0x40 MLOAD PUSH32 0xC6C3BBE600000000000000000000000000000000000000000000000000000000 DUP2 MSTORE PUSH1 0x1 PUSH1 0x1 PUSH1 0xA0 SHL SUB SWAP2 DUP3 AND PUSH1 0x4 DUP3 ADD MSTORE PUSH1 0x0 PUSH1 0x24 DUP3 ADD MSTORE PUSH2 0x3E8 PUSH1 0x44 DUP3 ADD MSTORE SWAP3 SWAP11 POP AND SWAP1 PUSH4 0xC6C3BBE6 SWAP1 PUSH1 0x64 ADD PUSH1 0x0 PUSH1 0x40 MLOAD DUP1 DUP4 SUB DUP2 PUSH1 0x0 DUP8 DUP1 EXTCODESIZE ISZERO DUP1 ISZERO PUSH2 0xF85 JUMPI PUSH1 0x0 DUP1 REVERT JUMPDEST POP GAS CALL ISZERO DUP1 ISZERO PUSH2 0xF99 JUMPI RETURNDATASIZE PUSH1 0x0 DUP1 RETURNDATACOPY RETURNDATASIZE PUSH1 0x0 REVERT JUMPDEST POP POP POP POP PUSH2 0xFD7 JUMP JUMPDEST PUSH2 0xFD4 DUP8 PUSH2 0xFB0 DUP6 DUP5 PUSH2 0x173D JUMP JUMPDEST PUSH2 0xFBA SWAP2 SWAP1 PUSH2 0x1DBA JUMP JUMPDEST DUP8 PUSH2 0xFC5 DUP6 DUP6 PUSH2 0x173D JUMP JUMPDEST PUSH2 0xFCF SWAP2 SWAP1 PUSH2 0x1DBA JUMP JUMPDEST PUSH2 0x1A4B JUMP JUMPDEST SWAP8 POP JUMPDEST PUSH1 0x0 DUP9 GT PUSH2 0x104D JUMPI PUSH1 0x40 MLOAD PUSH3 0x461BCD PUSH1 0xE5 SHL DUP2 MSTORE PUSH1 0x20 PUSH1 0x4 DUP3 ADD MSTORE PUSH1 0x28 PUSH1 0x24 DUP3 ADD MSTORE PUSH32 0x556E697377617056323A20494E53554646494349454E545F4C49515549444954 PUSH1 0x44 DUP3 ADD MSTORE PUSH32 0x595F4D494E544544000000000000000000000000000000000000000000000000 PUSH1 0x64 DUP3 ADD MSTORE PUSH1 0x84 ADD PUSH2 0x683 JUMP JUMPDEST PUSH1 0x11 DUP6 SWAP1 SSTORE PUSH1 0x12 DUP5 SWAP1 SSTORE PUSH1 0x5 SLOAD PUSH1 0x6 SLOAD PUSH1 0x40 MLOAD PUSH32 0xC6C3BBE600000000000000000000000000000000000000000000000000000000 DUP2 MSTORE PUSH1 0x1 PUSH1 0x1 PUSH1 0xA0 SHL SUB SWAP2 DUP3 AND PUSH1 0x4 DUP3 ADD MSTORE DUP12 DUP3 AND PUSH1 0x24 DUP3 ADD MSTORE PUSH1 0x44 DUP2 ADD DUP12 SWAP1 MSTORE SWAP2 AND SWAP1 PUSH4 0xC6C3BBE6 SWAP1 PUSH1 0x64 ADD PUSH1 0x0 PUSH1 0x40 MLOAD DUP1 DUP4 SUB DUP2 PUSH1 0x0 DUP8 DUP1 EXTCODESIZE ISZERO DUP1 ISZERO PUSH2 0x10C8 JUMPI PUSH1 0x0 DUP1 REVERT JUMPDEST POP GAS CALL ISZERO DUP1 ISZERO PUSH2 0x10DC JUMPI RETURNDATASIZE PUSH1 0x0 DUP1 RETURNDATACOPY RETURNDATASIZE PUSH1 0x0 REVERT JUMPDEST POP POP POP POP PUSH2 0x10EC DUP6 DUP6 DUP10 DUP10 PUSH2 0x180B JUMP JUMPDEST PUSH1 0x40 DUP1 MLOAD DUP5 DUP2 MSTORE PUSH1 0x20 DUP2 ADD DUP5 SWAP1 MSTORE CALLER SWAP2 PUSH32 0x4C209B5FC8AD50758F13E2E1088BA56A560DFF690A1C6FEF26394F4C03821C4F SWAP2 ADD PUSH1 0x40 MLOAD DUP1 SWAP2 SUB SWAP1 LOG2 POP POP PUSH1 0x1 PUSH1 0x10 SSTORE POP SWAP4 SWAP6 SWAP5 POP POP POP POP POP JUMP JUMPDEST PUSH1 0x0 DUP1 PUSH1 0x10 SLOAD PUSH1 0x1 EQ PUSH2 0x118E JUMPI PUSH1 0x40 MLOAD PUSH3 0x461BCD PUSH1 0xE5 SHL DUP2 MSTORE PUSH1 0x20 PUSH1 0x4 DUP3 ADD MSTORE PUSH1 0x11 PUSH1 0x24 DUP3 ADD MSTORE PUSH32 0x556E697377617056323A204C4F434B4544000000000000000000000000000000 PUSH1 0x44 DUP3 ADD MSTORE PUSH1 0x64 ADD PUSH2 0x683 JUMP JUMPDEST PUSH1 0x1 PUSH1 0x10 SSTORE SWAP1 SWAP3 SWAP1 SWAP2 POP JUMP JUMPDEST PUSH1 0x5 DUP1 SLOAD PUSH20 0xFFFFFFFFFFFFFFFFFFFFFFFFFFFFFFFFFFFFFFFF NOT AND PUSH1 0x1 PUSH1 0x1 PUSH1 0xA0 SHL SUB DUP4 DUP2 AND SWAP2 DUP3 OR SWAP1 SWAP3 SSTORE PUSH1 0x8 SLOAD PUSH1 0x40 MLOAD PUSH32 0x5977043800000000000000000000000000000000000000000000000000000000 DUP2 MSTORE SWAP3 AND PUSH1 0x4 DUP4 ADD MSTORE PUSH1 0x0 SWAP2 PUSH4 0x59770438 SWAP1 PUSH1 0x24 ADD PUSH1 0x0 PUSH1 0x40 MLOAD DUP1 DUP4 SUB DUP2 PUSH1 0x0 DUP8 GAS CALL ISZERO DUP1 ISZERO PUSH2 0x1221 JUMPI RETURNDATASIZE PUSH1 0x0 DUP1 RETURNDATACOPY RETURNDATASIZE PUSH1 0x0 REVERT JUMPDEST POP POP POP POP PUSH1 0x40 MLOAD RETURNDATASIZE PUSH1 0x0 DUP3 RETURNDATACOPY PUSH1 0x1F RETURNDATASIZE SWAP1 DUP2 ADD PUSH1 0x1F NOT AND DUP3 ADD PUSH1 0x40 MSTORE PUSH2 0x1249 SWAP2 SWAP1 DUP2 ADD SWAP1 PUSH2 0x1E6C JUMP JUMPDEST POP POP PUSH1 0x5 SLOAD PUSH1 0x9 SLOAD PUSH1 0x40 MLOAD PUSH32 0x5977043800000000000000000000000000000000000000000000000000000000 DUP2 MSTORE PUSH1 0x1 PUSH1 0x1 PUSH1 0xA0 SHL SUB SWAP2 DUP3 AND PUSH1 0x4 DUP3 ADD MSTORE SWAP5 SWAP6 POP PUSH1 0x0 SWAP5 SWAP2 AND SWAP3 POP PUSH4 0x59770438 SWAP2 POP PUSH1 0x24 ADD PUSH1 0x0 PUSH1 0x40 MLOAD DUP1 DUP4 SUB DUP2 PUSH1 0x0 DUP8 GAS CALL ISZERO DUP1 ISZERO PUSH2 0x12BA JUMPI RETURNDATASIZE PUSH1 0x0 DUP1 RETURNDATACOPY RETURNDATASIZE PUSH1 0x0 REVERT JUMPDEST POP POP POP POP PUSH1 0x40 MLOAD RETURNDATASIZE PUSH1 0x0 DUP3 RETURNDATACOPY PUSH1 0x1F RETURNDATASIZE SWAP1 DUP2 ADD PUSH1 0x1F NOT AND DUP3 ADD PUSH1 0x40 MSTORE PUSH2 0x12E2 SWAP2 SWAP1 DUP2 ADD SWAP1 PUSH2 0x1E6C JUMP JUMPDEST POP POP PUSH1 0x5 SLOAD PUSH1 0x40 MLOAD SWAP4 SWAP5 POP PUSH1 0x1 PUSH1 0x1 PUSH1 0xA0 SHL SUB AND SWAP3 PUSH4 0x2C9D484 SWAP3 POP PUSH2 0x130F SWAP2 POP DUP6 SWAP1 DUP6 SWAP1 PUSH1 0x20 ADD PUSH2 0x1F02 JUMP JUMPDEST PUSH1 0x40 MLOAD PUSH1 0x20 DUP2 DUP4 SUB SUB DUP2 MSTORE SWAP1 PUSH1 0x40 MSTORE PUSH1 0x12 PUSH1 0x0 ADDRESS PUSH1 0x40 MLOAD DUP6 PUSH4 0xFFFFFFFF AND PUSH1 0xE0 SHL DUP2 MSTORE PUSH1 0x4 ADD PUSH2 0x1342 SWAP5 SWAP4 SWAP3 SWAP2 SWAP1 PUSH2 0x1F5A JUMP JUMPDEST PUSH1 0x20 PUSH1 0x40 MLOAD DUP1 DUP4 SUB DUP2 PUSH1 0x0 DUP8 GAS CALL ISZERO DUP1 ISZERO PUSH2 0x1361 JUMPI RETURNDATASIZE PUSH1 0x0 DUP1 RETURNDATACOPY RETURNDATASIZE PUSH1 0x0 REVERT JUMPDEST POP POP POP POP PUSH1 0x40 MLOAD RETURNDATASIZE PUSH1 0x1F NOT PUSH1 0x1F DUP3 ADD AND DUP3 ADD DUP1 PUSH1 0x40 MSTORE POP DUP2 ADD SWAP1 PUSH2 0x1385 SWAP2 SWAP1 PUSH2 0x1FCD JUMP JUMPDEST PUSH1 0x6 DUP1 SLOAD PUSH20 0xFFFFFFFFFFFFFFFFFFFFFFFFFFFFFFFFFFFFFFFF NOT AND PUSH1 0x1 PUSH1 0x1 PUSH1 0xA0 SHL SUB SWAP3 SWAP1 SWAP3 AND SWAP2 SWAP1 SWAP2 OR SWAP1 SSTORE POP POP POP JUMP JUMPDEST PUSH1 0x0 PUSH2 0xCCD CALLER DUP5 DUP5 PUSH2 0x1935 JUMP JUMPDEST PUSH1 0x10 SLOAD PUSH1 0x1 EQ PUSH2 0x1416 JUMPI PUSH1 0x40 MLOAD PUSH3 0x461BCD PUSH1 0xE5 SHL DUP2 MSTORE PUSH1 0x20 PUSH1 0x4 DUP3 ADD MSTORE PUSH1 0x11 PUSH1 0x24 DUP3 ADD MSTORE PUSH32 0x556E697377617056323A204C4F434B4544000000000000000000000000000000 PUSH1 0x44 DUP3 ADD MSTORE PUSH1 0x64 ADD PUSH2 0x683 JUMP JUMPDEST POP PUSH1 0x1 PUSH1 0x10 SSTORE JUMP JUMPDEST TIMESTAMP DUP5 LT ISZERO PUSH2 0x146E JUMPI PUSH1 0x40 MLOAD PUSH3 0x461BCD PUSH1 0xE5 SHL DUP2 MSTORE PUSH1 0x20 PUSH1 0x4 DUP3 ADD MSTORE PUSH1 0x12 PUSH1 0x24 DUP3 ADD MSTORE PUSH32 0x556E697377617056323A20455850495245440000000000000000000000000000 PUSH1 0x44 DUP3 ADD MSTORE PUSH1 0x64 ADD PUSH2 0x683 JUMP JUMPDEST PUSH1 0x3 SLOAD PUSH1 0x1 PUSH1 0x1 PUSH1 0xA0 SHL SUB DUP9 AND PUSH1 0x0 SWAP1 DUP2 MSTORE PUSH1 0x4 PUSH1 0x20 MSTORE PUSH1 0x40 DUP2 KECCAK256 DUP1 SLOAD SWAP2 SWAP3 SWAP2 PUSH32 0x6E71EDAE12B1B97F4D1F60370FEF10105FA2FAAE0126114A169C64845D6126C9 SWAP2 DUP12 SWAP2 DUP12 SWAP2 DUP12 SWAP2 SWAP1 DUP8 PUSH2 0x14C1 DUP4 PUSH2 0x1FEA JUMP JUMPDEST SWAP1 SWAP2 SSTORE POP PUSH1 0x40 DUP1 MLOAD PUSH1 0x20 DUP2 ADD SWAP7 SWAP1 SWAP7 MSTORE PUSH1 0x1 PUSH1 0x1 PUSH1 0xA0 SHL SUB SWAP5 DUP6 AND SWAP1 DUP7 ADD MSTORE SWAP3 SWAP1 SWAP2 AND PUSH1 0x60 DUP5 ADD MSTORE PUSH1 0x80 DUP4 ADD MSTORE PUSH1 0xA0 DUP3 ADD MSTORE PUSH1 0xC0 DUP2 ADD DUP8 SWAP1 MSTORE PUSH1 0xE0 ADD PUSH1 0x40 MLOAD PUSH1 0x20 DUP2 DUP4 SUB SUB DUP2 MSTORE SWAP1 PUSH1 0x40 MSTORE DUP1 MLOAD SWAP1 PUSH1 0x20 ADD KECCAK256 PUSH1 0x40 MLOAD PUSH1 0x20 ADD PUSH2 0x1555 SWAP3 SWAP2 SWAP1 PUSH32 0x1901000000000000000000000000000000000000000000000000000000000000 DUP2 MSTORE PUSH1 0x2 DUP2 ADD SWAP3 SWAP1 SWAP3 MSTORE PUSH1 0x22 DUP3 ADD MSTORE PUSH1 0x42 ADD SWAP1 JUMP JUMPDEST PUSH1 0x40 DUP1 MLOAD PUSH1 0x1F NOT DUP2 DUP5 SUB ADD DUP2 MSTORE DUP3 DUP3 MSTORE DUP1 MLOAD PUSH1 0x20 SWAP2 DUP3 ADD KECCAK256 PUSH1 0x0 DUP1 DUP6 MSTORE SWAP2 DUP5 ADD DUP1 DUP5 MSTORE DUP2 SWAP1 MSTORE PUSH1 0xFF DUP9 AND SWAP3 DUP5 ADD SWAP3 SWAP1 SWAP3 MSTORE PUSH1 0x60 DUP4 ADD DUP7 SWAP1 MSTORE PUSH1 0x80 DUP4 ADD DUP6 SWAP1 MSTORE SWAP1 SWAP3 POP SWAP1 PUSH1 0x1 SWAP1 PUSH1 0xA0 ADD PUSH1 0x20 PUSH1 0x40 MLOAD PUSH1 0x20 DUP2 SUB SWAP1 DUP1 DUP5 SUB SWAP1 DUP6 GAS STATICCALL ISZERO DUP1 ISZERO PUSH2 0x15C0 JUMPI RETURNDATASIZE PUSH1 0x0 DUP1 RETURNDATACOPY RETURNDATASIZE PUSH1 0x0 REVERT JUMPDEST POP POP PUSH1 0x40 MLOAD PUSH1 0x1F NOT ADD MLOAD SWAP2 POP POP PUSH1 0x1 PUSH1 0x1 PUSH1 0xA0 SHL SUB DUP2 AND ISZERO DUP1 ISZERO SWAP1 PUSH2 0x15F6 JUMPI POP DUP9 PUSH1 0x1 PUSH1 0x1 PUSH1 0xA0 SHL SUB AND DUP2 PUSH1 0x1 PUSH1 0x1 PUSH1 0xA0 SHL SUB AND EQ JUMPDEST PUSH2 0x1642 JUMPI PUSH1 0x40 MLOAD PUSH3 0x461BCD PUSH1 0xE5 SHL DUP2 MSTORE PUSH1 0x20 PUSH1 0x4 DUP3 ADD MSTORE PUSH1 0x1C PUSH1 0x24 DUP3 ADD MSTORE PUSH32 0x556E697377617056323A20494E56414C49445F5349474E415455524500000000 PUSH1 0x44 DUP3 ADD MSTORE PUSH1 0x64 ADD PUSH2 0x683 JUMP JUMPDEST PUSH2 0x164D DUP10 DUP10 DUP10 PUSH2 0x18D3 JUMP JUMPDEST POP POP POP POP POP POP POP POP POP JUMP JUMPDEST PUSH1 0x10 SLOAD PUSH1 0x1 EQ PUSH2 0x16AA JUMPI PUSH1 0x40 MLOAD PUSH3 0x461BCD PUSH1 0xE5 SHL DUP2 MSTORE PUSH1 0x20 PUSH1 0x4 DUP3 ADD MSTORE PUSH1 0x11 PUSH1 0x24 DUP3 ADD MSTORE PUSH32 0x556E697377617056323A204C4F434B4544000000000000000000000000000000 PUSH1 0x44 DUP3 ADD MSTORE PUSH1 0x64 ADD PUSH2 0x683 JUMP JUMPDEST PUSH1 0x1 PUSH1 0x10 SSTORE JUMP JUMPDEST PUSH1 0x5 SLOAD PUSH1 0x40 MLOAD PUSH32 0xBEABACC800000000000000000000000000000000000000000000000000000000 DUP2 MSTORE PUSH1 0x1 PUSH1 0x1 PUSH1 0xA0 SHL SUB DUP6 DUP2 AND PUSH1 0x4 DUP4 ADD MSTORE DUP5 DUP2 AND PUSH1 0x24 DUP4 ADD MSTORE PUSH1 0x44 DUP3 ADD DUP5 SWAP1 MSTORE SWAP1 SWAP2 AND SWAP1 PUSH4 0xBEABACC8 SWAP1 PUSH1 0x64 ADD PUSH1 0x0 PUSH1 0x40 MLOAD DUP1 DUP4 SUB DUP2 PUSH1 0x0 DUP8 DUP1 EXTCODESIZE ISZERO DUP1 ISZERO PUSH2 0x1720 JUMPI PUSH1 0x0 DUP1 REVERT JUMPDEST POP GAS CALL ISZERO DUP1 ISZERO PUSH2 0x1734 JUMPI RETURNDATASIZE PUSH1 0x0 DUP1 RETURNDATACOPY RETURNDATASIZE PUSH1 0x0 REVERT JUMPDEST POP POP POP POP POP POP POP JUMP JUMPDEST PUSH1 0x0 DUP2 ISZERO DUP1 PUSH2 0x1761 JUMPI POP DUP3 DUP3 PUSH2 0x1753 DUP2 DUP4 PUSH2 0x2022 JUMP JUMPDEST SWAP3 POP PUSH2 0x175F SWAP1 DUP4 PUSH2 0x1DBA JUMP JUMPDEST EQ JUMPDEST PUSH2 0xCD1 JUMPI PUSH1 0x40 MLOAD PUSH3 0x461BCD PUSH1 0xE5 SHL DUP2 MSTORE PUSH1 0x20 PUSH1 0x4 DUP3 ADD MSTORE PUSH1 0x14 PUSH1 0x24 DUP3 ADD MSTORE PUSH32 0x64732D6D6174682D6D756C2D6F766572666C6F77000000000000000000000000 PUSH1 0x44 DUP3 ADD MSTORE PUSH1 0x64 ADD PUSH2 0x683 JUMP JUMPDEST PUSH1 0x0 DUP3 PUSH2 0x17BA DUP4 DUP3 PUSH2 0x1D91 JUMP JUMPDEST SWAP2 POP DUP2 GT ISZERO PUSH2 0xCD1 JUMPI PUSH1 0x40 MLOAD PUSH3 0x461BCD PUSH1 0xE5 SHL DUP2 MSTORE PUSH1 0x20 PUSH1 0x4 DUP3 ADD MSTORE PUSH1 0x15 PUSH1 0x24 DUP3 ADD MSTORE PUSH32 0x64732D6D6174682D7375622D756E646572666C6F770000000000000000000000 PUSH1 0x44 DUP3 ADD MSTORE PUSH1 0x64 ADD PUSH2 0x683 JUMP JUMPDEST PUSH1 0x0 PUSH2 0x181C PUSH5 0x100000000 TIMESTAMP PUSH2 0x2039 JUMP JUMPDEST PUSH1 0xC SLOAD SWAP1 SWAP2 POP PUSH1 0x0 SWAP1 PUSH2 0x1835 SWAP1 PUSH4 0xFFFFFFFF AND DUP4 PUSH2 0x204D JUMP JUMPDEST SWAP1 POP PUSH1 0x0 DUP2 PUSH4 0xFFFFFFFF AND GT DUP1 ISZERO PUSH2 0x184C JUMPI POP DUP4 ISZERO ISZERO JUMPDEST DUP1 ISZERO PUSH2 0x1857 JUMPI POP DUP3 ISZERO ISZERO JUMPDEST POP PUSH1 0xA DUP7 SWAP1 SSTORE PUSH1 0xB DUP6 SWAP1 SSTORE PUSH1 0xC DUP1 SLOAD PUSH32 0xFFFFFFFFFFFFFFFFFFFFFFFFFFFFFFFFFFFFFFFFFFFFFFFFFFFFFFFF00000000 AND PUSH4 0xFFFFFFFF DUP5 AND OR SWAP1 SSTORE PUSH1 0x40 DUP1 MLOAD DUP8 DUP2 MSTORE PUSH1 0x20 DUP2 ADD DUP8 SWAP1 MSTORE PUSH32 0xCF2AA50876CDFBB541206F89AF0EE78D44A2ABF8D328E37FA4917F982149848A SWAP2 ADD PUSH1 0x40 MLOAD DUP1 SWAP2 SUB SWAP1 LOG1 POP POP POP POP POP POP JUMP JUMPDEST PUSH1 0x1 PUSH1 0x1 PUSH1 0xA0 SHL SUB DUP4 DUP2 AND PUSH1 0x0 DUP2 DUP2 MSTORE PUSH1 0x2 PUSH1 0x20 SWAP1 DUP2 MSTORE PUSH1 0x40 DUP1 DUP4 KECCAK256 SWAP5 DUP8 AND DUP1 DUP5 MSTORE SWAP5 DUP3 MSTORE SWAP2 DUP3 SWAP1 KECCAK256 DUP6 SWAP1 SSTORE SWAP1 MLOAD DUP5 DUP2 MSTORE PUSH32 0x8C5BE1E5EBEC7D5BD14F71427D1E84F3DD0314C0F7B2291E5B200AC8C7C3B925 SWAP2 ADD JUMPDEST PUSH1 0x40 MLOAD DUP1 SWAP2 SUB SWAP1 LOG3 POP POP POP JUMP JUMPDEST PUSH1 0x1 PUSH1 0x1 PUSH1 0xA0 SHL SUB DUP4 AND PUSH1 0x0 SWAP1 DUP2 MSTORE PUSH1 0x1 PUSH1 0x20 MSTORE PUSH1 0x40 SWAP1 KECCAK256 SLOAD PUSH2 0x1958 SWAP1 DUP3 PUSH2 0x17AD JUMP JUMPDEST PUSH1 0x1 PUSH1 0x1 PUSH1 0xA0 SHL SUB DUP1 DUP6 AND PUSH1 0x0 SWAP1 DUP2 MSTORE PUSH1 0x1 PUSH1 0x20 MSTORE PUSH1 0x40 DUP1 DUP3 KECCAK256 SWAP4 SWAP1 SWAP4 SSTORE SWAP1 DUP5 AND DUP2 MSTORE KECCAK256 SLOAD PUSH2 0x1987 SWAP1 DUP3 PUSH2 0x1A63 JUMP JUMPDEST PUSH1 0x1 PUSH1 0x1 PUSH1 0xA0 SHL SUB DUP1 DUP5 AND PUSH1 0x0 DUP2 DUP2 MSTORE PUSH1 0x1 PUSH1 0x20 MSTORE PUSH1 0x40 SWAP1 DUP2 SWAP1 KECCAK256 SWAP4 SWAP1 SWAP4 SSTORE SWAP2 MLOAD SWAP1 DUP6 AND SWAP1 PUSH32 0xDDF252AD1BE2C89B69C2B068FC378DAA952BA7F163C4A11628F55A4DF523B3EF SWAP1 PUSH2 0x1928 SWAP1 DUP6 DUP2 MSTORE PUSH1 0x20 ADD SWAP1 JUMP JUMPDEST PUSH1 0x0 PUSH1 0x3 DUP3 GT ISZERO PUSH2 0x1A3C JUMPI POP DUP1 PUSH1 0x0 PUSH2 0x19F5 PUSH1 0x2 DUP4 PUSH2 0x1DBA JUMP JUMPDEST PUSH2 0x1A00 SWAP1 PUSH1 0x1 PUSH2 0x2071 JUMP JUMPDEST SWAP1 POP JUMPDEST DUP2 DUP2 LT ISZERO PUSH2 0x1A36 JUMPI SWAP1 POP DUP1 PUSH1 0x2 DUP2 PUSH2 0x1A1B DUP2 DUP7 PUSH2 0x1DBA JUMP JUMPDEST PUSH2 0x1A25 SWAP2 SWAP1 PUSH2 0x2071 JUMP JUMPDEST PUSH2 0x1A2F SWAP2 SWAP1 PUSH2 0x1DBA JUMP JUMPDEST SWAP1 POP PUSH2 0x1A03 JUMP JUMPDEST POP SWAP2 SWAP1 POP JUMP JUMPDEST DUP2 ISZERO PUSH2 0x1A46 JUMPI POP PUSH1 0x1 JUMPDEST SWAP2 SWAP1 POP JUMP JUMPDEST PUSH1 0x0 DUP2 DUP4 LT PUSH2 0x1A5A JUMPI DUP2 PUSH2 0x1A5C JUMP JUMPDEST DUP3 JUMPDEST SWAP4 SWAP3 POP POP POP JUMP JUMPDEST PUSH1 0x0 DUP3 PUSH2 0x1A70 DUP4 DUP3 PUSH2 0x2071 JUMP JUMPDEST SWAP2 POP DUP2 LT ISZERO PUSH2 0xCD1 JUMPI PUSH1 0x40 MLOAD PUSH3 0x461BCD PUSH1 0xE5 SHL DUP2 MSTORE PUSH1 0x20 PUSH1 0x4 DUP3 ADD MSTORE PUSH1 0x14 PUSH1 0x24 DUP3 ADD MSTORE PUSH32 0x64732D6D6174682D6164642D6F766572666C6F77000000000000000000000000 PUSH1 0x44 DUP3 ADD MSTORE PUSH1 0x64 ADD PUSH2 0x683 JUMP JUMPDEST PUSH1 0x1 PUSH1 0x1 PUSH1 0xA0 SHL SUB DUP2 AND DUP2 EQ PUSH2 0x1AD6 JUMPI PUSH1 0x0 DUP1 REVERT JUMPDEST POP JUMP JUMPDEST PUSH1 0x0 DUP1 PUSH1 0x0 DUP1 PUSH1 0x0 PUSH1 0x80 DUP7 DUP9 SUB SLT ISZERO PUSH2 0x1AF1 JUMPI PUSH1 0x0 DUP1 REVERT JUMPDEST DUP6 CALLDATALOAD SWAP5 POP PUSH1 0x20 DUP7 ADD CALLDATALOAD SWAP4 POP PUSH1 0x40 DUP7 ADD CALLDATALOAD PUSH2 0x1B0A DUP2 PUSH2 0x1AC1 JUMP JUMPDEST SWAP3 POP PUSH1 0x60 DUP7 ADD CALLDATALOAD PUSH8 0xFFFFFFFFFFFFFFFF DUP1 DUP3 GT ISZERO PUSH2 0x1B27 JUMPI PUSH1 0x0 DUP1 REVERT JUMPDEST DUP2 DUP9 ADD SWAP2 POP DUP9 PUSH1 0x1F DUP4 ADD SLT PUSH2 0x1B3B JUMPI PUSH1 0x0 DUP1 REVERT JUMPDEST DUP2 CALLDATALOAD DUP2 DUP2 GT ISZERO PUSH2 0x1B4A JUMPI PUSH1 0x0 DUP1 REVERT JUMPDEST DUP10 PUSH1 0x20 DUP3 DUP6 ADD ADD GT ISZERO PUSH2 0x1B5C JUMPI PUSH1 0x0 DUP1 REVERT JUMPDEST SWAP7 SWAP10 SWAP6 SWAP9 POP SWAP4 SWAP7 POP PUSH1 0x20 ADD SWAP5 SWAP4 SWAP3 POP POP POP JUMP JUMPDEST PUSH1 0x0 JUMPDEST DUP4 DUP2 LT ISZERO PUSH2 0x1B8A JUMPI DUP2 DUP2 ADD MLOAD DUP4 DUP3 ADD MSTORE PUSH1 0x20 ADD PUSH2 0x1B72 JUMP JUMPDEST POP POP PUSH1 0x0 SWAP2 ADD MSTORE JUMP JUMPDEST PUSH1 0x0 DUP2 MLOAD DUP1 DUP5 MSTORE PUSH2 0x1BAB DUP2 PUSH1 0x20 DUP7 ADD PUSH1 0x20 DUP7 ADD PUSH2 0x1B6F JUMP JUMPDEST PUSH1 0x1F ADD PUSH1 0x1F NOT AND SWAP3 SWAP1 SWAP3 ADD PUSH1 0x20 ADD SWAP3 SWAP2 POP POP JUMP JUMPDEST PUSH1 0x20 DUP2 MSTORE PUSH1 0x0 PUSH2 0x1A5C PUSH1 0x20 DUP4 ADD DUP5 PUSH2 0x1B93 JUMP JUMPDEST PUSH1 0x0 DUP1 PUSH1 0x40 DUP4 DUP6 SUB SLT ISZERO PUSH2 0x1BE5 JUMPI PUSH1 0x0 DUP1 REVERT JUMPDEST DUP3 CALLDATALOAD PUSH2 0x1BF0 DUP2 PUSH2 0x1AC1 JUMP JUMPDEST SWAP5 PUSH1 0x20 SWAP4 SWAP1 SWAP4 ADD CALLDATALOAD SWAP4 POP POP POP JUMP JUMPDEST PUSH1 0x0 DUP1 PUSH1 0x0 PUSH1 0x60 DUP5 DUP7 SUB SLT ISZERO PUSH2 0x1C13 JUMPI PUSH1 0x0 DUP1 REVERT JUMPDEST DUP4 CALLDATALOAD PUSH2 0x1C1E DUP2 PUSH2 0x1AC1 JUMP JUMPDEST SWAP3 POP PUSH1 0x20 DUP5 ADD CALLDATALOAD PUSH2 0x1C2E DUP2 PUSH2 0x1AC1 JUMP JUMPDEST SWAP3 SWAP6 SWAP3 SWAP5 POP POP POP PUSH1 0x40 SWAP2 SWAP1 SWAP2 ADD CALLDATALOAD SWAP1 JUMP JUMPDEST PUSH1 0x0 DUP1 PUSH1 0x40 DUP4 DUP6 SUB SLT ISZERO PUSH2 0x1C52 JUMPI PUSH1 0x0 DUP1 REVERT JUMPDEST DUP3 CALLDATALOAD PUSH2 0x1C5D DUP2 PUSH2 0x1AC1 JUMP JUMPDEST SWAP2 POP PUSH1 0x20 DUP4 ADD CALLDATALOAD PUSH2 0x1C6D DUP2 PUSH2 0x1AC1 JUMP JUMPDEST DUP1 SWAP2 POP POP SWAP3 POP SWAP3 SWAP1 POP JUMP JUMPDEST PUSH1 0x0 PUSH1 0x20 DUP3 DUP5 SUB SLT ISZERO PUSH2 0x1C8A JUMPI PUSH1 0x0 DUP1 REVERT JUMPDEST DUP2 CALLDATALOAD PUSH2 0x1A5C DUP2 PUSH2 0x1AC1 JUMP JUMPDEST PUSH1 0xFF DUP2 AND DUP2 EQ PUSH2 0x1AD6 JUMPI PUSH1 0x0 DUP1 REVERT JUMPDEST PUSH1 0x0 DUP1 PUSH1 0x0 DUP1 PUSH1 0x0 DUP1 PUSH1 0x0 PUSH1 0xE0 DUP9 DUP11 SUB SLT ISZERO PUSH2 0x1CBF JUMPI PUSH1 0x0 DUP1 REVERT JUMPDEST DUP8 CALLDATALOAD PUSH2 0x1CCA DUP2 PUSH2 0x1AC1 JUMP JUMPDEST SWAP7 POP PUSH1 0x20 DUP9 ADD CALLDATALOAD PUSH2 0x1CDA DUP2 PUSH2 0x1AC1 JUMP JUMPDEST SWAP6 POP PUSH1 0x40 DUP9 ADD CALLDATALOAD SWAP5 POP PUSH1 0x60 DUP9 ADD CALLDATALOAD SWAP4 POP PUSH1 0x80 DUP9 ADD CALLDATALOAD PUSH2 0x1CF8 DUP2 PUSH2 0x1C95 JUMP JUMPDEST SWAP7 SWAP10 SWAP6 SWAP9 POP SWAP4 SWAP7 SWAP3 SWAP6 SWAP5 PUSH1 0xA0 DUP5 ADD CALLDATALOAD SWAP5 POP PUSH1 0xC0 SWAP1 SWAP4 ADD CALLDATALOAD SWAP3 SWAP2 POP POP JUMP JUMPDEST PUSH1 0x0 PUSH1 0x20 DUP3 DUP5 SUB SLT ISZERO PUSH2 0x1D27 JUMPI PUSH1 0x0 DUP1 REVERT JUMPDEST POP MLOAD SWAP2 SWAP1 POP JUMP JUMPDEST PUSH1 0x1 PUSH1 0x1 PUSH1 0xA0 SHL SUB DUP7 AND DUP2 MSTORE DUP5 PUSH1 0x20 DUP3 ADD MSTORE DUP4 PUSH1 0x40 DUP3 ADD MSTORE PUSH1 0x80 PUSH1 0x60 DUP3 ADD MSTORE DUP2 PUSH1 0x80 DUP3 ADD MSTORE DUP2 DUP4 PUSH1 0xA0 DUP4 ADD CALLDATACOPY PUSH1 0x0 DUP2 DUP4 ADD PUSH1 0xA0 SWAP1 DUP2 ADD SWAP2 SWAP1 SWAP2 MSTORE PUSH1 0x1F SWAP1 SWAP3 ADD PUSH1 0x1F NOT AND ADD ADD SWAP5 SWAP4 POP POP POP POP JUMP JUMPDEST PUSH4 0x4E487B71 PUSH1 0xE0 SHL PUSH1 0x0 MSTORE PUSH1 0x11 PUSH1 0x4 MSTORE PUSH1 0x24 PUSH1 0x0 REVERT JUMPDEST DUP2 DUP2 SUB DUP2 DUP2 GT ISZERO PUSH2 0xCD1 JUMPI PUSH2 0xCD1 PUSH2 0x1D7B JUMP JUMPDEST PUSH4 0x4E487B71 PUSH1 0xE0 SHL PUSH1 0x0 MSTORE PUSH1 0x12 PUSH1 0x4 MSTORE PUSH1 0x24 PUSH1 0x0 REVERT JUMPDEST PUSH1 0x0 DUP3 PUSH2 0x1DC9 JUMPI PUSH2 0x1DC9 PUSH2 0x1DA4 JUMP JUMPDEST POP DIV SWAP1 JUMP JUMPDEST PUSH4 0x4E487B71 PUSH1 0xE0 SHL PUSH1 0x0 MSTORE PUSH1 0x41 PUSH1 0x4 MSTORE PUSH1 0x24 PUSH1 0x0 REVERT JUMPDEST PUSH1 0x0 DUP3 PUSH1 0x1F DUP4 ADD SLT PUSH2 0x1DF5 JUMPI PUSH1 0x0 DUP1 REVERT JUMPDEST DUP2 MLOAD PUSH8 0xFFFFFFFFFFFFFFFF DUP1 DUP3 GT ISZERO PUSH2 0x1E10 JUMPI PUSH2 0x1E10 PUSH2 0x1DCE JUMP JUMPDEST PUSH1 0x40 MLOAD PUSH1 0x1F DUP4 ADD PUSH1 0x1F NOT SWAP1 DUP2 AND PUSH1 0x3F ADD AND DUP2 ADD SWAP1 DUP3 DUP3 GT DUP2 DUP4 LT OR ISZERO PUSH2 0x1E38 JUMPI PUSH2 0x1E38 PUSH2 0x1DCE JUMP JUMPDEST DUP2 PUSH1 0x40 MSTORE DUP4 DUP2 MSTORE DUP7 PUSH1 0x20 DUP6 DUP9 ADD ADD GT ISZERO PUSH2 0x1E51 JUMPI PUSH1 0x0 DUP1 REVERT JUMPDEST PUSH2 0x1E62 DUP5 PUSH1 0x20 DUP4 ADD PUSH1 0x20 DUP10 ADD PUSH2 0x1B6F JUMP JUMPDEST SWAP7 SWAP6 POP POP POP POP POP POP JUMP JUMPDEST PUSH1 0x0 DUP1 PUSH1 0x0 DUP1 PUSH1 0x0 PUSH1 0xA0 DUP7 DUP9 SUB SLT ISZERO PUSH2 0x1E84 JUMPI PUSH1 0x0 DUP1 REVERT JUMPDEST DUP6 MLOAD PUSH8 0xFFFFFFFFFFFFFFFF DUP1 DUP3 GT ISZERO PUSH2 0x1E9C JUMPI PUSH1 0x0 DUP1 REVERT JUMPDEST PUSH2 0x1EA8 DUP10 DUP4 DUP11 ADD PUSH2 0x1DE4 JUMP JUMPDEST SWAP7 POP PUSH1 0x20 DUP9 ADD MLOAD SWAP2 POP DUP1 DUP3 GT ISZERO PUSH2 0x1EBE JUMPI PUSH1 0x0 DUP1 REVERT JUMPDEST POP PUSH2 0x1ECB DUP9 DUP3 DUP10 ADD PUSH2 0x1DE4 JUMP JUMPDEST SWAP5 POP POP PUSH1 0x40 DUP7 ADD MLOAD PUSH2 0x1EDC DUP2 PUSH2 0x1C95 JUMP JUMPDEST PUSH1 0x60 DUP8 ADD MLOAD PUSH1 0x80 DUP9 ADD MLOAD SWAP2 SWAP5 POP SWAP3 POP PUSH2 0x1EF4 DUP2 PUSH2 0x1AC1 JUMP JUMPDEST DUP1 SWAP2 POP POP SWAP3 SWAP6 POP SWAP3 SWAP6 SWAP1 SWAP4 POP JUMP JUMPDEST PUSH1 0x0 DUP4 MLOAD PUSH2 0x1F14 DUP2 DUP5 PUSH1 0x20 DUP9 ADD PUSH2 0x1B6F JUMP JUMPDEST PUSH32 0x2D00000000000000000000000000000000000000000000000000000000000000 SWAP1 DUP4 ADD SWAP1 DUP2 MSTORE DUP4 MLOAD PUSH2 0x1F4E DUP2 PUSH1 0x1 DUP5 ADD PUSH1 0x20 DUP9 ADD PUSH2 0x1B6F JUMP JUMPDEST ADD PUSH1 0x1 ADD SWAP5 SWAP4 POP POP POP POP JUMP JUMPDEST PUSH1 0xA0 DUP2 MSTORE PUSH1 0x0 PUSH2 0x1F6D PUSH1 0xA0 DUP4 ADD DUP8 PUSH2 0x1B93 JUMP JUMPDEST DUP3 DUP2 SUB PUSH1 0x20 DUP5 ADD MSTORE PUSH1 0x2 DUP2 MSTORE PUSH32 0x4C50000000000000000000000000000000000000000000000000000000000000 PUSH1 0x20 DUP3 ADD MSTORE PUSH1 0x40 DUP2 ADD SWAP2 POP POP PUSH1 0xFF DUP6 AND PUSH1 0x40 DUP4 ADD MSTORE DUP4 PUSH1 0x60 DUP4 ADD MSTORE PUSH1 0x1 PUSH1 0x1 PUSH1 0xA0 SHL SUB DUP4 AND PUSH1 0x80 DUP4 ADD MSTORE SWAP6 SWAP5 POP POP POP POP POP JUMP JUMPDEST PUSH1 0x0 PUSH1 0x20 DUP3 DUP5 SUB SLT ISZERO PUSH2 0x1FDF JUMPI PUSH1 0x0 DUP1 REVERT JUMPDEST DUP2 MLOAD PUSH2 0x1A5C DUP2 PUSH2 0x1AC1 JUMP JUMPDEST PUSH1 0x0 PUSH32 0xFFFFFFFFFFFFFFFFFFFFFFFFFFFFFFFFFFFFFFFFFFFFFFFFFFFFFFFFFFFFFFFF DUP3 SUB PUSH2 0x201B JUMPI PUSH2 0x201B PUSH2 0x1D7B JUMP JUMPDEST POP PUSH1 0x1 ADD SWAP1 JUMP JUMPDEST DUP1 DUP3 MUL DUP2 ISZERO DUP3 DUP3 DIV DUP5 EQ OR PUSH2 0xCD1 JUMPI PUSH2 0xCD1 PUSH2 0x1D7B JUMP JUMPDEST PUSH1 0x0 DUP3 PUSH2 0x2048 JUMPI PUSH2 0x2048 PUSH2 0x1DA4 JUMP JUMPDEST POP MOD SWAP1 JUMP JUMPDEST PUSH4 0xFFFFFFFF DUP3 DUP2 AND DUP3 DUP3 AND SUB SWAP1 DUP1 DUP3 GT ISZERO PUSH2 0x206A JUMPI PUSH2 0x206A PUSH2 0x1D7B JUMP JUMPDEST POP SWAP3 SWAP2 POP POP JUMP JUMPDEST DUP1 DUP3 ADD DUP1 DUP3 GT ISZERO PUSH2 0xCD1 JUMPI PUSH2 0xCD1 PUSH2 0x1D7B JUMP INVALID LOG2 PUSH5 0x6970667358 0x22 SLT KECCAK256 PUSH11 0x240203C6E39CA2DE29A230 SWAP9 0xC4 0x5E 0xA5 EXP SWAP10 0x29 LOG4 MUL GASLIMIT 0x24 COINBASE PUSH1 0x79 0x2E PUSH9 0x43E197BD64736F6C63 NUMBER STOP ADDMOD EQ STOP CALLER LOG2 PUSH5 0x6970667358 0x22 SLT KECCAK256 SDIV SELFBALANCE DUP16 0x5D 0xFB SAR JUMP 0xD3 DUP9 0xC5 0xDF 0x2A 0xFC 0xC6 DUP8 TIMESTAMP 0x29 DUP14 EXP CREATE2 LOG3 POP 0xB4 PUSH28 0x2D3E49AB0280C02164736F6C63430008140033000000000000000000 "
        },
        "methodIdentifiers": {
          "allPairs(uint256)": "1e3dd18b",
          "allPairsLength()": "574f2ba3",
          "createPair(address,address)": "c9c65396",
          "feeTo()": "017e7e58",
          "feeToSetter()": "094b7415",
          "getPair(address,address)": "e6a43905",
          "getTokenLib()": "2942fddb",
          "setFeeTo(address)": "f46901ed",
          "setFeeToSetter(address)": "a2e74af6",
          "tokenLib()": "a87cfc12"
        }
      }
    }
  }
}