{
  "contracts/Nil.sol": {
    "Nil": {
      "abi": [
        {
          "inputs": [],
          "name": "IS_INTERNAL_MESSAGE",
          "outputs": [
            {
              "internalType": "address",
              "name": "",
              "type": "address"
            }
          ],
          "stateMutability": "view",
          "type": "function"
        },
        {
          "inputs": [],
          "name": "MINTER_ADDRESS",
          "outputs": [
            {
              "internalType": "address payable",
              "name": "",
              "type": "address"
            }
          ],
          "stateMutability": "view",
          "type": "function"
        },
        {
          "inputs": [],
          "name": "VERIFY_SIGNATURE",
          "outputs": [
            {
              "internalType": "address",
              "name": "",
              "type": "address"
            }
          ],
          "stateMutability": "view",
          "type": "function"
        }
      ],
      "evm": {
        "bytecode": {
          "linkReferences": {},
          "object": "60d2610039600b82828239805160001a60731461002c57634e487b7160e01b600052600060045260246000fd5b30600052607381538281f3fe730000000000000000000000000000000000000000301460806040526004361060475760003560e01c80637f0a921b14604c578063a167fd5f14607c578063a4b80b6a146083575b600080fd5b605360ff81565b60405173ffffffffffffffffffffffffffffffffffffffff909116815260200160405180910390f35b605360fe81565b605372012222222222222222222222222222222222228156fea2646970667358221220f0ac8adf596262e1439d656579d7ad77931826a244d3dfaad79a18f85a372bab64736f6c63430008140033",
          "opcodes": "PUSH1 0xD2 PUSH2 0x39 PUSH1 0xB DUP3 DUP3 DUP3 CODECOPY DUP1 MLOAD PUSH1 0x0 BYTE PUSH1 0x73 EQ PUSH2 0x2C JUMPI PUSH4 0x4E487B71 PUSH1 0xE0 SHL PUSH1 0x0 MSTORE PUSH1 0x0 PUSH1 0x4 MSTORE PUSH1 0x24 PUSH1 0x0 REVERT JUMPDEST ADDRESS PUSH1 0x0 MSTORE PUSH1 0x73 DUP2 MSTORE8 DUP3 DUP2 RETURN INVALID PUSH20 0x0 ADDRESS EQ PUSH1 0x80 PUSH1 0x40 MSTORE PUSH1 0x4 CALLDATASIZE LT PUSH1 0x47 JUMPI PUSH1 0x0 CALLDATALOAD PUSH1 0xE0 SHR DUP1 PUSH4 0x7F0A921B EQ PUSH1 0x4C JUMPI DUP1 PUSH4 0xA167FD5F EQ PUSH1 0x7C JUMPI DUP1 PUSH4 0xA4B80B6A EQ PUSH1 0x83 JUMPI JUMPDEST PUSH1 0x0 DUP1 REVERT JUMPDEST PUSH1 0x53 PUSH1 0xFF DUP2 JUMP JUMPDEST PUSH1 0x40 MLOAD PUSH20 0xFFFFFFFFFFFFFFFFFFFFFFFFFFFFFFFFFFFFFFFF SWAP1 SWAP2 AND DUP2 MSTORE PUSH1 0x20 ADD PUSH1 0x40 MLOAD DUP1 SWAP2 SUB SWAP1 RETURN JUMPDEST PUSH1 0x53 PUSH1 0xFE DUP2 JUMP JUMPDEST PUSH1 0x53 PUSH19 0x1222222222222222222222222222222222222 DUP2 JUMP INVALID LOG2 PUSH5 0x6970667358 0x22 SLT KECCAK256 CREATE 0xAC DUP11 0xDF MSIZE PUSH3 0x62E143 SWAP14 PUSH6 0x6579D7AD7793 XOR 0x26 LOG2 PREVRANDAO 0xD3 0xDF 0xAA 0xD7 SWAP11 XOR 0xF8 GAS CALLDATACOPY 0x2B 0xAB PUSH5 0x736F6C6343 STOP ADDMOD EQ STOP CALLER "
        },
        "methodIdentifiers": {
          "IS_INTERNAL_MESSAGE()": "7f0a921b",
          "MINTER_ADDRESS()": "a4b80b6a",
          "VERIFY_SIGNATURE()": "a167fd5f"
        }
      }
    }
  }
}