{
  "contracts/Nil.sol": {
    "Precompile": {
      "abi": [
        {
          "inputs": [
            {
              "internalType": "bool",
              "name": "",
              "type": "bool"
            },
            {
              "internalType": "address",
              "name": "",
              "type": "address"
            },
            {
              "internalType": "address",
              "name": "",
              "type": "address"
            },
            {
              "internalType": "address",
              "name": "",
              "type": "address"
            },
            {
              "internalType": "uint256",
              "name": "",
              "type": "uint256"
            },
            {
              "components": [
                {
                  "internalType": "uint256",
                  "name": "id",
                  "type": "uint256"
                },
                {
                  "internalType": "uint256",
                  "name": "amount",
                  "type": "uint256"
                }
              ],
              "internalType": "struct Nil.Token[]",
              "name": "",
              "type": "tuple[]"
            },
            {
              "internalType": "bytes",
              "name": "",
              "type": "bytes"
            }
          ],
          "name": "precompileAsyncCall",
          "outputs": [
            {
              "internalType": "bool",
              "name": "",
              "type": "bool"
            }
          ],
          "stateMutability": "payable",
          "type": "function"
        },
        {
          "inputs": [
            {
              "internalType": "uint256",
              "name": "id",
              "type": "uint256"
            },
            {
              "internalType": "address",
              "name": "addr",
              "type": "address"
            }
          ],
          "name": "precompileGetCurrencyBalance",
          "outputs": [
            {
              "internalType": "uint256",
              "name": "",
              "type": "uint256"
            }
          ],
          "stateMutability": "nonpayable",
          "type": "function"
        },
        {
          "inputs": [],
          "name": "precompileGetMessageTokens",
          "outputs": [
            {
              "components": [
                {
                  "internalType": "uint256",
                  "name": "id",
                  "type": "uint256"
                },
                {
                  "internalType": "uint256",
                  "name": "amount",
                  "type": "uint256"
                }
              ],
              "internalType": "struct Nil.Token[]",
              "name": "",
              "type": "tuple[]"
            }
          ],
          "stateMutability": "nonpayable",
          "type": "function"
        },
        {
          "inputs": [
            {
              "internalType": "uint256",
              "name": "id",
              "type": "uint256"
            },
            {
              "internalType": "uint256",
              "name": "amount",
              "type": "uint256"
            }
          ],
          "name": "precompileMintCurrency",
          "outputs": [
            {
              "internalType": "bool",
              "name": "",
              "type": "bool"
            }
          ],
          "stateMutability": "nonpayable",
          "type": "function"
        },
        {
          "inputs": [
            {
              "internalType": "address",
              "name": "",
              "type": "address"
            },
            {
              "components": [
                {
                  "internalType": "uint256",
                  "name": "id",
                  "type": "uint256"
                },
                {
                  "internalType": "uint256",
                  "name": "amount",
                  "type": "uint256"
                }
              ],
              "internalType": "struct Nil.Token[]",
              "name": "",
              "type": "tuple[]"
            }
          ],
          "name": "precompileSendTokens",
          "outputs": [
            {
              "internalType": "bool",
              "name": "",
              "type": "bool"
            }
          ],
          "stateMutability": "nonpayable",
          "type": "function"
        }
      ],
      "evm": {
        "bytecode": {
          "linkReferences": {},
          "object": "608060405234801561001057600080fd5b50610496806100206000396000f3fe60806040526004361061005a5760003560e01c806364782ed41161004357806364782ed4146100c05780638ee83f19146100db578063bceebfe2146100f757600080fd5b80632495aa6d1461005f5780633a1735fc1461008f575b600080fd5b61007a61006d366004610268565b6000979650505050505050565b60405190151581526020015b60405180910390f35b34801561009b57600080fd5b506100b26100aa366004610375565b600092915050565b604051908152602001610086565b3480156100cc57600080fd5b5061007a6100aa3660046103a1565b3480156100e757600080fd5b50606060405161008691906103c3565b34801561010357600080fd5b5061007a6100aa366004610412565b803573ffffffffffffffffffffffffffffffffffffffff8116811461013657600080fd5b919050565b7f4e487b7100000000000000000000000000000000000000000000000000000000600052604160045260246000fd5b6040805190810167ffffffffffffffff8111828210171561018d5761018d61013b565b60405290565b604051601f8201601f1916810167ffffffffffffffff811182821017156101bc576101bc61013b565b604052919050565b600082601f8301126101d557600080fd5b8135602067ffffffffffffffff8211156101f1576101f161013b565b6101ff818360051b01610193565b82815260069290921b8401810191818101908684111561021e57600080fd5b8286015b8481101561025d576040818903121561023b5760008081fd5b61024361016a565b813581528482013585820152835291830191604001610222565b509695505050505050565b600080600080600080600060e0888a03121561028357600080fd5b8735801515811461029357600080fd5b965060206102a2898201610112565b96506102b060408a01610112565b95506102be60608a01610112565b94506080890135935060a089013567ffffffffffffffff808211156102e257600080fd5b6102ee8c838d016101c4565b945060c08b013591508082111561030457600080fd5b818b0191508b601f83011261031857600080fd5b81358181111561032a5761032a61013b565b61033c84601f19601f84011601610193565b91508082528c8482850101111561035257600080fd5b808484018584013760008482840101525080935050505092959891949750929550565b6000806040838503121561038857600080fd5b8235915061039860208401610112565b90509250929050565b600080604083850312156103b457600080fd5b50508035926020909101359150565b602080825282518282018190526000919060409081850190868401855b82811015610405578151805185528601518685015292840192908501906001016103e0565b5091979650505050505050565b6000806040838503121561042557600080fd5b61042e83610112565b9150602083013567ffffffffffffffff81111561044a57600080fd5b610456858286016101c4565b915050925092905056fea2646970667358221220112e1300dadc71e260c27da8873ef3220002c8a2c81111145fca2ccc759e131564736f6c63430008140033",
          "opcodes": "PUSH1 0x80 PUSH1 0x40 MSTORE CALLVALUE DUP1 ISZERO PUSH2 0x10 JUMPI PUSH1 0x0 DUP1 REVERT JUMPDEST POP PUSH2 0x496 DUP1 PUSH2 0x20 PUSH1 0x0 CODECOPY PUSH1 0x0 RETURN INVALID PUSH1 0x80 PUSH1 0x40 MSTORE PUSH1 0x4 CALLDATASIZE LT PUSH2 0x5A JUMPI PUSH1 0x0 CALLDATALOAD PUSH1 0xE0 SHR DUP1 PUSH4 0x64782ED4 GT PUSH2 0x43 JUMPI DUP1 PUSH4 0x64782ED4 EQ PUSH2 0xC0 JUMPI DUP1 PUSH4 0x8EE83F19 EQ PUSH2 0xDB JUMPI DUP1 PUSH4 0xBCEEBFE2 EQ PUSH2 0xF7 JUMPI PUSH1 0x0 DUP1 REVERT JUMPDEST DUP1 PUSH4 0x2495AA6D EQ PUSH2 0x5F JUMPI DUP1 PUSH4 0x3A1735FC EQ PUSH2 0x8F JUMPI JUMPDEST PUSH1 0x0 DUP1 REVERT JUMPDEST PUSH2 0x7A PUSH2 0x6D CALLDATASIZE PUSH1 0x4 PUSH2 0x268 JUMP JUMPDEST PUSH1 0x0 SWAP8 SWAP7 POP POP POP POP POP POP POP JUMP JUMPDEST PUSH1 0x40 MLOAD SWAP1 ISZERO ISZERO DUP2 MSTORE PUSH1 0x20 ADD JUMPDEST PUSH1 0x40 MLOAD DUP1 SWAP2 SUB SWAP1 RETURN JUMPDEST CALLVALUE DUP1 ISZERO PUSH2 0x9B JUMPI PUSH1 0x0 DUP1 REVERT JUMPDEST POP PUSH2 0xB2 PUSH2 0xAA CALLDATASIZE PUSH1 0x4 PUSH2 0x375 JUMP JUMPDEST PUSH1 0x0 SWAP3 SWAP2 POP POP JUMP JUMPDEST PUSH1 0x40 MLOAD SWAP1 DUP2 MSTORE PUSH1 0x20 ADD PUSH2 0x86 JUMP JUMPDEST CALLVALUE DUP1 ISZERO PUSH2 0xCC JUMPI PUSH1 0x0 DUP1 REVERT JUMPDEST POP PUSH2 0x7A PUSH2 0xAA CALLDATASIZE PUSH1 0x4 PUSH2 0x3A1 JUMP JUMPDEST CALLVALUE DUP1 ISZERO PUSH2 0xE7 JUMPI PUSH1 0x0 DUP1 REVERT JUMPDEST POP PUSH1 0x60 PUSH1 0x40 MLOAD PUSH2 0x86 SWAP2 SWAP1 PUSH2 0x3C3 JUMP JUMPDEST CALLVALUE DUP1 ISZERO PUSH2 0x103 JUMPI PUSH1 0x0 DUP1 REVERT JUMPDEST POP PUSH2 0x7A PUSH2 0xAA CALLDATASIZE PUSH1 0x4 PUSH2 0x412 JUMP JUMPDEST DUP1 CALLDATALOAD PUSH20 0xFFFFFFFFFFFFFFFFFFFFFFFFFFFFFFFFFFFFFFFF DUP2 AND DUP2 EQ PUSH2 0x136 JUMPI PUSH1 0x0 DUP1 REVERT JUMPDEST SWAP2 SWAP1 POP JUMP JUMPDEST PUSH32 0x4E487B7100000000000000000000000000000000000000000000000000000000 PUSH1 0x0 MSTORE PUSH1 0x41 PUSH1 0x4 MSTORE PUSH1 0x24 PUSH1 0x0 REVERT JUMPDEST PUSH1 0x40 DUP1 MLOAD SWAP1 DUP2 ADD PUSH8 0xFFFFFFFFFFFFFFFF DUP2 GT DUP3 DUP3 LT OR ISZERO PUSH2 0x18D JUMPI PUSH2 0x18D PUSH2 0x13B JUMP JUMPDEST PUSH1 0x40 MSTORE SWAP1 JUMP JUMPDEST PUSH1 0x40 MLOAD PUSH1 0x1F DUP3 ADD PUSH1 0x1F NOT AND DUP2 ADD PUSH8 0xFFFFFFFFFFFFFFFF DUP2 GT DUP3 DUP3 LT OR ISZERO PUSH2 0x1BC JUMPI PUSH2 0x1BC PUSH2 0x13B JUMP JUMPDEST PUSH1 0x40 MSTORE SWAP2 SWAP1 POP JUMP JUMPDEST PUSH1 0x0 DUP3 PUSH1 0x1F DUP4 ADD SLT PUSH2 0x1D5 JUMPI PUSH1 0x0 DUP1 REVERT JUMPDEST DUP2 CALLDATALOAD PUSH1 0x20 PUSH8 0xFFFFFFFFFFFFFFFF DUP3 GT ISZERO PUSH2 0x1F1 JUMPI PUSH2 0x1F1 PUSH2 0x13B JUMP JUMPDEST PUSH2 0x1FF DUP2 DUP4 PUSH1 0x5 SHL ADD PUSH2 0x193 JUMP JUMPDEST DUP3 DUP2 MSTORE PUSH1 0x6 SWAP3 SWAP1 SWAP3 SHL DUP5 ADD DUP2 ADD SWAP2 DUP2 DUP2 ADD SWAP1 DUP7 DUP5 GT ISZERO PUSH2 0x21E JUMPI PUSH1 0x0 DUP1 REVERT JUMPDEST DUP3 DUP7 ADD JUMPDEST DUP5 DUP2 LT ISZERO PUSH2 0x25D JUMPI PUSH1 0x40 DUP2 DUP10 SUB SLT ISZERO PUSH2 0x23B JUMPI PUSH1 0x0 DUP1 DUP2 REVERT JUMPDEST PUSH2 0x243 PUSH2 0x16A JUMP JUMPDEST DUP2 CALLDATALOAD DUP2 MSTORE DUP5 DUP3 ADD CALLDATALOAD DUP6 DUP3 ADD MSTORE DUP4 MSTORE SWAP2 DUP4 ADD SWAP2 PUSH1 0x40 ADD PUSH2 0x222 JUMP JUMPDEST POP SWAP7 SWAP6 POP POP POP POP POP POP JUMP JUMPDEST PUSH1 0x0 DUP1 PUSH1 0x0 DUP1 PUSH1 0x0 DUP1 PUSH1 0x0 PUSH1 0xE0 DUP9 DUP11 SUB SLT ISZERO PUSH2 0x283 JUMPI PUSH1 0x0 DUP1 REVERT JUMPDEST DUP8 CALLDATALOAD DUP1 ISZERO ISZERO DUP2 EQ PUSH2 0x293 JUMPI PUSH1 0x0 DUP1 REVERT JUMPDEST SWAP7 POP PUSH1 0x20 PUSH2 0x2A2 DUP10 DUP3 ADD PUSH2 0x112 JUMP JUMPDEST SWAP7 POP PUSH2 0x2B0 PUSH1 0x40 DUP11 ADD PUSH2 0x112 JUMP JUMPDEST SWAP6 POP PUSH2 0x2BE PUSH1 0x60 DUP11 ADD PUSH2 0x112 JUMP JUMPDEST SWAP5 POP PUSH1 0x80 DUP10 ADD CALLDATALOAD SWAP4 POP PUSH1 0xA0 DUP10 ADD CALLDATALOAD PUSH8 0xFFFFFFFFFFFFFFFF DUP1 DUP3 GT ISZERO PUSH2 0x2E2 JUMPI PUSH1 0x0 DUP1 REVERT JUMPDEST PUSH2 0x2EE DUP13 DUP4 DUP14 ADD PUSH2 0x1C4 JUMP JUMPDEST SWAP5 POP PUSH1 0xC0 DUP12 ADD CALLDATALOAD SWAP2 POP DUP1 DUP3 GT ISZERO PUSH2 0x304 JUMPI PUSH1 0x0 DUP1 REVERT JUMPDEST DUP2 DUP12 ADD SWAP2 POP DUP12 PUSH1 0x1F DUP4 ADD SLT PUSH2 0x318 JUMPI PUSH1 0x0 DUP1 REVERT JUMPDEST DUP2 CALLDATALOAD DUP2 DUP2 GT ISZERO PUSH2 0x32A JUMPI PUSH2 0x32A PUSH2 0x13B JUMP JUMPDEST PUSH2 0x33C DUP5 PUSH1 0x1F NOT PUSH1 0x1F DUP5 ADD AND ADD PUSH2 0x193 JUMP JUMPDEST SWAP2 POP DUP1 DUP3 MSTORE DUP13 DUP5 DUP3 DUP6 ADD ADD GT ISZERO PUSH2 0x352 JUMPI PUSH1 0x0 DUP1 REVERT JUMPDEST DUP1 DUP5 DUP5 ADD DUP6 DUP5 ADD CALLDATACOPY PUSH1 0x0 DUP5 DUP3 DUP5 ADD ADD MSTORE POP DUP1 SWAP4 POP POP POP POP SWAP3 SWAP6 SWAP9 SWAP2 SWAP5 SWAP8 POP SWAP3 SWAP6 POP JUMP JUMPDEST PUSH1 0x0 DUP1 PUSH1 0x40 DUP4 DUP6 SUB SLT ISZERO PUSH2 0x388 JUMPI PUSH1 0x0 DUP1 REVERT JUMPDEST DUP3 CALLDATALOAD SWAP2 POP PUSH2 0x398 PUSH1 0x20 DUP5 ADD PUSH2 0x112 JUMP JUMPDEST SWAP1 POP SWAP3 POP SWAP3 SWAP1 POP JUMP JUMPDEST PUSH1 0x0 DUP1 PUSH1 0x40 DUP4 DUP6 SUB SLT ISZERO PUSH2 0x3B4 JUMPI PUSH1 0x0 DUP1 REVERT JUMPDEST POP POP DUP1 CALLDATALOAD SWAP3 PUSH1 0x20 SWAP1 SWAP2 ADD CALLDATALOAD SWAP2 POP JUMP JUMPDEST PUSH1 0x20 DUP1 DUP3 MSTORE DUP3 MLOAD DUP3 DUP3 ADD DUP2 SWAP1 MSTORE PUSH1 0x0 SWAP2 SWAP1 PUSH1 0x40 SWAP1 DUP2 DUP6 ADD SWAP1 DUP7 DUP5 ADD DUP6 JUMPDEST DUP3 DUP2 LT ISZERO PUSH2 0x405 JUMPI DUP2 MLOAD DUP1 MLOAD DUP6 MSTORE DUP7 ADD MLOAD DUP7 DUP6 ADD MSTORE SWAP3 DUP5 ADD SWAP3 SWAP1 DUP6 ADD SWAP1 PUSH1 0x1 ADD PUSH2 0x3E0 JUMP JUMPDEST POP SWAP2 SWAP8 SWAP7 POP POP POP POP POP POP POP JUMP JUMPDEST PUSH1 0x0 DUP1 PUSH1 0x40 DUP4 DUP6 SUB SLT ISZERO PUSH2 0x425 JUMPI PUSH1 0x0 DUP1 REVERT JUMPDEST PUSH2 0x42E DUP4 PUSH2 0x112 JUMP JUMPDEST SWAP2 POP PUSH1 0x20 DUP4 ADD CALLDATALOAD PUSH8 0xFFFFFFFFFFFFFFFF DUP2 GT ISZERO PUSH2 0x44A JUMPI PUSH1 0x0 DUP1 REVERT JUMPDEST PUSH2 0x456 DUP6 DUP3 DUP7 ADD PUSH2 0x1C4 JUMP JUMPDEST SWAP2 POP POP SWAP3 POP SWAP3 SWAP1 POP JUMP INVALID LOG2 PUSH5 0x6970667358 0x22 SLT KECCAK256 GT 0x2E SGT STOP 0xDA 0xDC PUSH18 0xE260C27DA8873EF3220002C8A2C81111145F 0xCA 0x2C 0xCC PUSH22 0x9E131564736F6C634300081400330000000000000000 "
        },
        "methodIdentifiers": {
          "precompileAsyncCall(bool,address,address,address,uint256,(uint256,uint256)[],bytes)": "2495aa6d",
          "precompileGetCurrencyBalance(uint256,address)": "3a1735fc",
          "precompileGetMessageTokens()": "8ee83f19",
          "precompileMintCurrency(uint256,uint256)": "64782ed4",
          "precompileSendTokens(address,(uint256,uint256)[])": "bceebfe2"
        }
      }
    }
  }
}